{"contracts/TrustRent.sol":{"TrustRent":{"abi":[{"inputs":[{"internalType":"address","name":"_paymentToken","type":"address"},{"internalType":"address","name":"_feeReceiver","type":"address"}],"stateMutability":"nonpayable","type":"constructor"},{"inputs":[],"name":"AlreadyCancelled","type":"error"},{"inputs":[],"name":"InDispute","type":"error"},{"inputs":[],"name":"InvalidArgs","type":"error"},{"inputs":[],"name":"NotActive","type":"error"},{"inputs":[],"name":"NotGuest","type":"error"},{"inputs":[],"name":"NotHost","type":"error"},{"inputs":[],"name":"NothingToRelease","type":"error"},{"inputs":[],"name":"TooEarly","type":"error"},{"anonymous":false,"inputs":[{"indexed":true,"internalType":"uint256","name":"bookingId","type":"uint256"},{"indexed":true,"internalType":"address","name":"requester","type":"address"},{"indexed":false,"internalType":"uint8","name":"months","type":"uint8"},{"indexed":false,"internalType":"uint256","name":"amountPlannedUsdCents","type":"uint256"},{"indexed":false,"internalType":"string","name":"plan","type":"string"}],"name":"BNPLRequested","type":"event"},{"anonymous":false,"inputs":[{"indexed":true,"internalType":"uint256","name":"bookingId","type":"uint256"},{"indexed":true,"internalType":"uint256","name":"listingId","type":"uint256"},{"indexed":true,"internalType":"address","name":"guest","type":"address"},{"indexed":false,"internalType":"uint256","name":"startTs","type":"uint256"},{"indexed":false,"internalType":"uint8","name":"months","type":"uint8"},{"indexed":false,"internalType":"uint256","name":"totalPaid","type":"uint256"},{"indexed":false,"internalType":"uint256","name":"nftId","type":"uint256"}],"name":"Booked","type":"event"},{"anonymous":false,"inputs":[{"indexed":true,"internalType":"uint256","name":"bookingId","type":"uint256"},{"indexed":false,"internalType":"uint8","name":"monthsCompleted","type":"uint8"},{"indexed":false,"internalType":"uint256","name":"refundToGuest","type":"uint256"},{"indexed":false,"internalType":"uint256","name":"payoutToHost","type":"uint256"},{"indexed":false,"internalType":"uint256","name":"feeAmount","type":"uint256"}],"name":"CancelledEarly","type":"event"},{"anonymous":false,"inputs":[{"indexed":true,"internalType":"uint256","name":"bookingId","type":"uint256"},{"indexed":false,"internalType":"uint256","name":"payoutToHost","type":"uint256"},{"indexed":false,"internalType":"uint256","name":"payoutToGuest","type":"uint256"},{"indexed":false,"internalType":"uint256","name":"feeAmount","type":"uint256"}],"name":"DisputeResolved","type":"event"},{"anonymous":false,"inputs":[{"indexed":true,"internalType":"uint256","name":"bookingId","type":"uint256"},{"indexed":false,"internalType":"address","name":"by","type":"address"}],"name":"Disputed","type":"event"},{"anonymous":false,"inputs":[{"indexed":true,"internalType":"uint256","name":"listingId","type":"uint256"},{"indexed":true,"internalType":"address","name":"host","type":"address"},{"indexed":false,"internalType":"uint256","name":"priceUsdCentsPerMonth","type":"uint256"}],"name":"ListingAdded","type":"event"},{"anonymous":false,"inputs":[{"indexed":true,"internalType":"uint256","name":"listingId","type":"uint256"},{"indexed":false,"internalType":"uint256","name":"newPriceUsdCentsPerMonth","type":"uint256"},{"indexed":false,"internalType":"bool","name":"active","type":"bool"}],"name":"ListingUpdated","type":"event"},{"anonymous":false,"inputs":[{"indexed":true,"internalType":"address","name":"previousOwner","type":"address"},{"indexed":true,"internalType":"address","name":"newOwner","type":"address"}],"name":"OwnershipTransferred","type":"event"},{"anonymous":false,"inputs":[{"indexed":true,"internalType":"uint256","name":"bookingId","type":"uint256"},{"indexed":false,"internalType":"uint8","name":"monthsReleasedNow","type":"uint8"},{"indexed":false,"internalType":"uint256","name":"amountToHost","type":"uint256"},{"indexed":false,"internalType":"uint256","name":"feeAmount","type":"uint256"}],"name":"Released","type":"event"},{"anonymous":false,"inputs":[{"indexed":true,"internalType":"uint256","name":"packageId","type":"uint256"},{"indexed":true,"internalType":"address","name":"guest","type":"address"},{"indexed":false,"internalType":"uint256","name":"priceUsdCents","type":"uint256"}],"name":"TravelPackageBooked","type":"event"},{"inputs":[],"name":"FEE_BPS","outputs":[{"internalType":"uint96","name":"","type":"uint96"}],"stateMutability":"view","type":"function"},{"inputs":[],"name":"MAX_MONTHS","outputs":[{"internalType":"uint256","name":"","type":"uint256"}],"stateMutability":"view","type":"function"},{"inputs":[],"name":"MIN_START_DELAY","outputs":[{"internalType":"uint256","name":"","type":"uint256"}],"stateMutability":"view","type":"function"},{"inputs":[],"name":"MONTH","outputs":[{"internalType":"uint256","name":"","type":"uint256"}],"stateMutability":"view","type":"function"},{"inputs":[{"internalType":"uint256","name":"priceUsdCentsPerMonth","type":"uint256"}],"name":"addListing","outputs":[{"internalType":"uint256","name":"","type":"uint256"}],"stateMutability":"nonpayable","type":"function"},{"inputs":[{"internalType":"uint256","name":"bookingId","type":"uint256"},{"internalType":"uint256","name":"index","type":"uint256"}],"name":"bnplRequestAt","outputs":[{"internalType":"address","name":"requester","type":"address"},{"internalType":"uint8","name":"months","type":"uint8"},{"internalType":"uint256","name":"amountPlannedUsdCents","type":"uint256"},{"internalType":"string","name":"plan","type":"string"},{"internalType":"uint256","name":"ts","type":"uint256"}],"stateMutability":"view","type":"function"},{"inputs":[{"internalType":"uint256","name":"","type":"uint256"},{"internalType":"uint256","name":"","type":"uint256"}],"name":"bnplRequests","outputs":[{"internalType":"address","name":"requester","type":"address"},{"internalType":"uint8","name":"months","type":"uint8"},{"internalType":"uint256","name":"amountPlannedUsdCents","type":"uint256"},{"internalType":"string","name":"plan","type":"string"},{"internalType":"uint256","name":"ts","type":"uint256"}],"stateMutability":"view","type":"function"},{"inputs":[{"internalType":"uint256","name":"bookingId","type":"uint256"}],"name":"bnplRequestsCount","outputs":[{"internalType":"uint256","name":"","type":"uint256"}],"stateMutability":"view","type":"function"},{"inputs":[{"internalType":"uint256","name":"listingId","type":"uint256"},{"internalType":"uint256","name":"startTs","type":"uint256"},{"internalType":"uint8","name":"months","type":"uint8"},{"internalType":"string","name":"tokenURI_","type":"string"}],"name":"book","outputs":[{"internalType":"uint256","name":"","type":"uint256"}],"stateMutability":"nonpayable","type":"function"},{"inputs":[{"internalType":"uint256","name":"packageId","type":"uint256"},{"internalType":"uint256","name":"priceUsdCents","type":"uint256"}],"name":"bookTravelPackage","outputs":[],"stateMutability":"nonpayable","type":"function"},{"inputs":[],"name":"bookingNFT","outputs":[{"internalType":"contract IBookingNFT","name":"","type":"address"}],"stateMutability":"view","type":"function"},{"inputs":[{"internalType":"uint256","name":"","type":"uint256"}],"name":"bookings","outputs":[{"internalType":"uint256","name":"id","type":"uint256"},{"internalType":"uint256","name":"listingId","type":"uint256"},{"internalType":"address","name":"guest","type":"address"},{"internalType":"uint256","name":"startTs","type":"uint256"},{"internalType":"uint8","name":"monthsTotal","type":"uint8"},{"internalType":"uint8","name":"monthsReleased","type":"uint8"},{"internalType":"uint256","name":"amountTokenPaid","type":"uint256"},{"internalType":"bool","name":"cancelled","type":"bool"},{"internalType":"bool","name":"disputed","type":"bool"},{"internalType":"uint256","name":"nftId","type":"uint256"}],"stateMutability":"view","type":"function"},{"inputs":[{"internalType":"uint256","name":"bookingId","type":"uint256"}],"name":"cancelEarly","outputs":[],"stateMutability":"nonpayable","type":"function"},{"inputs":[],"name":"feeReceiver","outputs":[{"internalType":"address","name":"","type":"address"}],"stateMutability":"view","type":"function"},{"inputs":[{"internalType":"uint256","name":"listingId","type":"uint256"},{"internalType":"uint256","name":"startTs","type":"uint256"},{"internalType":"uint8","name":"months","type":"uint8"}],"name":"isAvailable","outputs":[{"internalType":"bool","name":"","type":"bool"}],"stateMutability":"view","type":"function"},{"inputs":[{"internalType":"uint256","name":"","type":"uint256"}],"name":"listings","outputs":[{"internalType":"uint256","name":"id","type":"uint256"},{"internalType":"address","name":"host","type":"address"},{"internalType":"uint256","name":"priceUsdCentsPerMonth","type":"uint256"},{"internalType":"bool","name":"active","type":"bool"}],"stateMutability":"view","type":"function"},{"inputs":[],"name":"owner","outputs":[{"internalType":"address","name":"","type":"address"}],"stateMutability":"view","type":"function"},{"inputs":[],"name":"paymentToken","outputs":[{"internalType":"contract IERC20","name":"","type":"address"}],"stateMutability":"view","type":"function"},{"inputs":[],"name":"paymentTokenDecimals","outputs":[{"internalType":"uint8","name":"","type":"uint8"}],"stateMutability":"view","type":"function"},{"inputs":[{"internalType":"uint256","name":"bookingId","type":"uint256"}],"name":"raiseDispute","outputs":[],"stateMutability":"nonpayable","type":"function"},{"inputs":[{"internalType":"uint256","name":"bookingId","type":"uint256"}],"name":"releaseAvailable","outputs":[],"stateMutability":"nonpayable","type":"function"},{"inputs":[],"name":"renounceOwnership","outputs":[],"stateMutability":"nonpayable","type":"function"},{"inputs":[{"internalType":"uint256","name":"bookingId","type":"uint256"},{"internalType":"uint8","name":"months","type":"uint8"},{"internalType":"string","name":"plan","type":"string"}],"name":"requestBNPL","outputs":[],"stateMutability":"nonpayable","type":"function"},{"inputs":[{"internalType":"uint256","name":"bookingId","type":"uint256"},{"internalType":"uint256","name":"payoutToHostGross","type":"uint256"},{"internalType":"uint256","name":"payoutToGuest","type":"uint256"}],"name":"resolveDispute","outputs":[],"stateMutability":"nonpayable","type":"function"},{"inputs":[{"internalType":"address","name":"nft","type":"address"}],"name":"setBookingNFT","outputs":[],"stateMutability":"nonpayable","type":"function"},{"inputs":[{"internalType":"address","name":"receiver","type":"address"}],"name":"setFeeReceiver","outputs":[],"stateMutability":"nonpayable","type":"function"},{"inputs":[{"internalType":"address","name":"newOwner","type":"address"}],"name":"transferOwnership","outputs":[],"stateMutability":"nonpayable","type":"function"},{"inputs":[{"internalType":"uint256","name":"","type":"uint256"}],"name":"travelBookings","outputs":[{"internalType":"address","name":"guest","type":"address"},{"internalType":"uint256","name":"priceUsdCents","type":"uint256"},{"internalType":"uint256","name":"ts","type":"uint256"}],"stateMutability":"view","type":"function"},{"inputs":[{"internalType":"uint256","name":"listingId","type":"uint256"},{"internalType":"uint256","name":"newPriceUsdCentsPerMonth","type":"uint256"},{"internalType":"bool","name":"active","type":"bool"}],"name":"updateListing","outputs":[],"stateMutability":"nonpayable","type":"function"}],"evm":{"bytecode":{"linkReferences":{},"object":"60c06040523480156200001157600080fd5b5060405162002c3438038062002c348339810160408190526200003491620001be565b6200003f3362000151565b600180556001600160a01b038216158015906200006457506001600160a01b03811615155b620000a35760405162461bcd60e51b815260206004820152600b60248201526a5a65726f4164647265737360a81b604482015260640160405180910390fd5b6001600160a01b03821660808190526040805163313ce56760e01b8152905163313ce56791600480820192602092909190829003018186803b158015620000e957600080fd5b505afa158015620000fe573d6000803e3d6000fd5b505050506040513d601f19601f82011682018060405250810190620001249190620001f6565b60ff1660a052600280546001600160a01b0319166001600160a01b03929092169190911790555062000222565b600080546001600160a01b038381166001600160a01b0319831681178455604051919092169283917f8be0079c531659141344cd1fd0a4f28419497f9722a3daafe3b4186f6b6457e09190a35050565b80516001600160a01b0381168114620001b957600080fd5b919050565b60008060408385031215620001d257600080fd5b620001dd83620001a1565b9150620001ed60208401620001a1565b90509250929050565b6000602082840312156200020957600080fd5b815160ff811681146200021b57600080fd5b9392505050565b60805160a0516129a66200028e600039600081816103220152611ef20152600081816102e301528181610b9801528181610fd00152818161100e0152818161126a015281816112aa015281816112eb015281816114e201528181611522015261156201526129a66000f3fe608060405234801561001057600080fd5b50600436106101cf5760003560e01c80639d45e78011610104578063c3a9d506116100a2578063ddefe58711610071578063ddefe58714610534578063de74e57b14610547578063efdcd974146105b3578063f2fde38b146105c657600080fd5b8063c3a9d506146104fc578063d5999a5c1461050f578063da5d24cf14610519578063dda12b4b1461052157600080fd5b8063ae445984116100de578063ae4459841461047c578063b3f00674146104a0578063bbf83835146104b3578063bf333f2c146104d657600080fd5b80639d45e78014610443578063a48e723014610456578063a5c1674e1461046957600080fd5b80633fabe74f11610171578063715018a61161014b578063715018a6146103c25780637401eab5146103ca57806387674c5b146104285780638da5cb5b1461043257600080fd5b80633fabe74f1461037c5780635063046c1461038f57806359627bf6146103af57600080fd5b80633013ce29116101ad5780633013ce29146102de578063325cd7961461031d578063371a5a22146103565780633dc59ab11461036957600080fd5b8063091c1b3b146101d45780631dab301e146101e95780631defb941146102bd575b600080fd5b6101e76101e2366004612513565b6105d9565b005b61025a6101f736600461256d565b60096020526000908152604090208054600182015460028301546003840154600485015460058601546006870154600790970154959694956001600160a01b0390941694929360ff8084169461010094859004821694818316939104909116908a565b604080519a8b5260208b01999099526001600160a01b0390971697890197909752606088019490945260ff9283166080880152911660a086015260c0850152151560e0840152901515610100830152610120820152610140015b60405180910390f35b6102d06102cb366004612586565b61088f565b6040519081526020016102b4565b6103057f000000000000000000000000000000000000000000000000000000000000000081565b6040516001600160a01b0390911681526020016102b4565b6103447f000000000000000000000000000000000000000000000000000000000000000081565b60405160ff90911681526020016102b4565b6101e761036436600461256d565b610e33565b6101e761037736600461256d565b611091565b6101e761038a3660046125ee565b611375565b6102d061039d36600461256d565b60009081526006602052604090205490565b600354610305906001600160a01b031681565b6101e76115ee565b6104036103d836600461256d565b6007602052600090815260409020805460018201546002909201546001600160a01b03909116919083565b604080516001600160a01b0390941684526020840192909252908201526060016102b4565b6102d06201518081565b6000546001600160a01b0316610305565b6101e761045136600461261a565b611602565b6102d061046436600461256d565b611670565b6101e761047736600461256d565b611756565b61048f61048a366004612643565b611870565b6040516102b49594939291906126bd565b600254610305906001600160a01b031681565b6104c66104c13660046126ff565b61197d565b60405190151581526020016102b4565b6104df61012c81565b6040516bffffffffffffffffffffffff90911681526020016102b4565b61048f61050a366004612643565b611b4e565b6102d062278d0081565b6102d0600681565b6101e761052f366004612742565b611c35565b6101e7610542366004612643565b611cea565b61058961055536600461256d565b600860205260009081526040902080546001820154600283015460039093015491926001600160a01b039091169160ff1684565b604080519485526001600160a01b03909316602085015291830152151560608201526080016102b4565b6101e76105c136600461261a565b611db0565b6101e76105d436600461261a565b611e1e565b6105e1611e94565b60ff8316610602576040516350dd03f760e11b815260040160405180910390fd5b600084815260096020908152604091829020825161014081018452815480825260018301549382019390935260028201546001600160a01b03169381019390935260038101546060840152600481015460ff808216608086015261010091829004811660a0860152600583015460c08601526006830154808216151560e087015282900416151590840152600701546101208301526106b4576040516350dd03f760e11b815260040160405180910390fd5b60408101516001600160a01b031633146106e05760405162a39df360e71b815260040160405180910390fd5b602080820151600090815260088252604080822081516080810183528154815260018201546001600160a01b03169481019490945260028101549184018290526003015460ff9081161515606085015261073d9190881690612791565b9050600660008881526020019081526020016000206040518060a00160405280336001600160a01b031681526020018860ff16815260200183815260200187878080601f01602080910402602001604051908101604052809392919081815260200183838082843760009201829052509385525050426020938401525083546001818101865594825290829020835160049092020180548484015160ff16600160a01b026001600160a81b03199091166001600160a01b039093169290921791909117815560408301519381019390935560608201518051929392610828926002850192019061241b565b50608082015181600301555050336001600160a01b0316877fea9b13c5cd89e62c935debc483d9f305240a57f31ad56d8daf8e465960d2585c8884898960405161087594939291906127d9565b60405180910390a350505061088960018055565b50505050565b6000610899611e94565b6000868152600860209081526040918290208251608081018452815480825260018301546001600160a01b0316938201939093526002820154938101939093526003015460ff161515606083015261092c5760405162461bcd60e51b8152602060048201526011602482015270131a5cdd1a5b99c81b9bdd08199bdd5b99607a1b60448201526064015b60405180910390fd5b80606001516109705760405162461bcd60e51b815260206004820152601060248201526f4c697374696e6720696e61637469766560801b6044820152606401610923565b60008560ff16118015610987575060068560ff1611155b6109c85760405162461bcd60e51b815260206004820152601260248201527126b7b73a34399036bab9ba1031329018969b60711b6044820152606401610923565b6109d56201518042612806565b861015610a105760405162461bcd60e51b8152602060048201526009602482015268546f6f206561726c7960b81b6044820152606401610923565b60015b6005548111610b685760008181526009602090815260409182902082516101408101845281548152600182015492810183905260028201546001600160a01b03169381019390935260038101546060840152600481015460ff808216608086015261010091829004811660a0860152600583015460c08601526006830154808216151560e0870152829004161515908401526007015461012083015289148015610abf57508060e00151155b15610b5f57600062278d00826080015160ff16610adc9190612791565b8260600151610aeb9190612806565b90506000610aff62278d0060ff8b16612791565b610b09908b612806565b9050826060015181111580610b1e5750818a10155b610b5c5760405162461bcd60e51b815260206004820152600f60248201526e4f7665726c617020626f6f6b696e6760881b6044820152606401610923565b50505b50600101610a13565b506000610b788260400151611eee565b90506000610b8960ff881683612791565b9050610bc06001600160a01b037f000000000000000000000000000000000000000000000000000000000000000016333084611f1f565b6000600560008154610bd19061281e565b918290555060035460405163d0def52160e01b81529192506000916001600160a01b039091169063d0def52190610c109033908c908c90600401612839565b602060405180830381600087803b158015610c2a57600080fd5b505af1158015610c3e573d6000803e3d6000fd5b505050506040513d601f19601f82011682018060405250810190610c62919061285e565b90506040518061014001604052808381526020018c8152602001336001600160a01b031681526020018b81526020018a60ff168152602001600060ff1681526020018481526020016000151581526020016000151581526020018281525060096000848152602001908152602001600020600082015181600001556020820151816001015560408201518160020160006101000a8154816001600160a01b0302191690836001600160a01b031602179055506060820151816003015560808201518160040160006101000a81548160ff021916908360ff16021790555060a08201518160040160016101000a81548160ff021916908360ff16021790555060c0820151816005015560e08201518160060160006101000a81548160ff0219169083151502179055506101008201518160060160016101000a81548160ff0219169083151502179055506101208201518160070155905050336001600160a01b03168b837f5829ff22a8bf2c53a38f1e2e4cf6b44d3b0b9224da2a2203004d5f15fe3c87cc8d8d8887604051610e13949392919093845260ff9290921660208401526040830152606082015260800190565b60405180910390a4509350505050610e2a60018055565b95945050505050565b610e3b611e94565b600081815260096020908152604080832060018082015485526008845293829020825160808101845281548152948101546001600160a01b031693850184905260028101549285019290925260039091015460ff161515606084015291903314610eb857604051638ff4f0c960e01b815260040160405180910390fd5b600682015460ff1615610ede576040516354e3762560e01b815260040160405180910390fd5b6006820154610100900460ff1615610f0957604051630a30a94d60e01b815260040160405180910390fd5b60038201546004830154600091610f229160ff16611f8a565b600484015490915060ff610100909104811690821611610f555760405163b10205ed60e01b815260040160405180910390fd5b6004830154600090610f6f90610100900460ff1683612877565b60048501805461ff00191661010060ff8616021790556040840151909150600090610f9990611eee565b90506000610faa60ff841683612791565b9050600080610fb883611fd4565b60208901519193509150610ff7906001600160a01b037f0000000000000000000000000000000000000000000000000000000000000000169084612003565b801561103757600254611037906001600160a01b037f00000000000000000000000000000000000000000000000000000000000000008116911683612003565b6040805160ff871681526020810184905290810182905289907f1592310480057b30d97ffbbaa2c233e77f6d24cf00612a24fe9608f7d98b35bb9060600160405180910390a2505050505050505061108e60018055565b50565b611099611e94565b600081815260096020526040902060028101546001600160a01b031633146110d35760405162a39df360e71b815260040160405180910390fd5b600681015460ff16156110f9576040516354e3762560e01b815260040160405180910390fd5b6006810154610100900460ff161561112457604051630a30a94d60e01b815260040160405180910390fd5b6001808201546000908152600860209081526040808320815160808101835281548152948101546001600160a01b03169285019290925260028201549084015260039081015460ff908116151560608501529084015460048501546111899216611f8a565b600484015490915060ff610100909104811690821610156111b357506004820154610100900460ff165b60048301546000906111cd90610100900460ff1683612877565b60048501549091506000906111e690849060ff16612877565b905060006111f78560400151611eee565b9050600061120860ff851683612791565b905060008061121683611fd4565b9092509050600061122a60ff871686612791565b60048b01805461ff00191661010060ff8c160217905560068b01805460ff1916600117905590508215611291576020890151611291906001600160a01b037f0000000000000000000000000000000000000000000000000000000000000000169085612003565b80156112d35760028a01546112d3906001600160a01b037f00000000000000000000000000000000000000000000000000000000000000008116911683612003565b81801561131457600254611314906001600160a01b037f00000000000000000000000000000000000000000000000000000000000000008116911683612003565b6040805160ff8b16815260208101849052908101859052606081018290528c907f7b962a03ba93184b4ce4263e86eae4306e600458596ffc74a206b6ce0eabd4299060800160405180910390a2505050505050505050505061108e60018055565b61137d612033565b611385611e94565b60008381526009602090815260408083206001808201548086526008855283862084516080808201875282548252938201546001600160a01b03908116828901526002808401548389015260039384015460ff9081161515606080860191909152895161014081018b52895481529a8b01969096529087015490911696880196909652908401549186019190915260048301548085169286019290925261010091829004841660a0860152600583015460c08601526006830154808516151560e0870152829004909316151590840152600781015461012084015292909161146d908361208d565b90508061147a8587612806565b11156114b85760405162461bcd60e51b815260206004820152600d60248201526c45786365656420657363726f7760981b6044820152606401610923565b6000806114c487611fd4565b90925090508115611509576020840151611509906001600160a01b037f0000000000000000000000000000000000000000000000000000000000000000169084612003565b851561154b57600285015461154b906001600160a01b037f00000000000000000000000000000000000000000000000000000000000000008116911688612003565b801561158b5760025461158b906001600160a01b037f00000000000000000000000000000000000000000000000000000000000000008116911683612003565b60068501805461ff0019169055604080518381526020810188905290810182905288907f43c6fe16c1e88a9b3bceaf30a2ae3d7e9ad9533f87698ebb2b628263771ae0e69060600160405180910390a250505050506115e960018055565b505050565b6115f6612033565b6116006000612169565b565b61160a612033565b6001600160a01b03811661164e5760405162461bcd60e51b815260206004820152600b60248201526a5a65726f4164647265737360a81b6044820152606401610923565b600380546001600160a01b0319166001600160a01b0392909216919091179055565b600081611690576040516350dd03f760e11b815260040160405180910390fd5b60006004600081546116a19061281e565b91829055506040805160808101825282815233602080830182815283850189815260016060860181815260008981526008865288902096518755925190860180546001600160a01b0319166001600160a01b03909216919091179055516002850155516003909301805460ff1916931515939093179092559151868152929350909183917f6c46eb6ba6a1b1a0cb085158b0b8b1bcb23f05a9f188c3b06d334c7721bcea0b910160405180910390a392915050565b600081815260096020908152604080832060018082015485526008845293829020825160808101845281548152948101546001600160a01b0390811694860194909452600280820154938601939093526003015460ff1615156060850152908101549092911633148015906117e1575080602001516001600160a01b0316336001600160a01b031614155b156117ff576040516350dd03f760e11b815260040160405180910390fd5b600682015460ff1615611825576040516354e3762560e01b815260040160405180910390fd5b60068201805461ff00191661010017905560405133815283907fcde8e21e97a7f6ec4bbf0ee44450212e0ba73be8fdfbfb2b155e861d86756bac9060200160405180910390a2505050565b6000806000606060008060066000898152602001908152602001600020878154811061189e5761189e61289a565b600091825260209091206004909102018054600182015460038301546002840180549495506001600160a01b03841694600160a01b90940460ff169390919082906118e8906128b0565b80601f0160208091040260200160405190810160405280929190818152602001828054611914906128b0565b80156119615780601f1061193657610100808354040283529160200191611961565b820191906000526020600020905b81548152906001019060200180831161194457829003601f168201915b5050505050915095509550955095509550509295509295909350565b600060ff82161580611992575060068260ff16115b1561199f57506000611b47565b6000848152600860209081526040918290208251608081018452815480825260018301546001600160a01b0316938201939093526002820154938101939093526003015460ff161515606083015215806119fb57508060600151155b15611a0a576000915050611b47565b60015b6005548111611b405760008181526009602090815260409182902082516101408101845281548152600182015492810183905260028201546001600160a01b03169381019390935260038101546060840152600481015460ff808216608086015261010091829004811660a0860152600583015460c08601526006830154808216151560e0870152829004161515908401526007015461012083015287148015611ab957508060e00151155b15611b2d57600062278d00826080015160ff16611ad69190612791565b8260600151611ae59190612806565b90506000611af962278d0060ff8916612791565b611b039089612806565b9050826060015181111580611b185750818810155b611b2a57600095505050505050611b47565b50505b5080611b388161281e565b915050611a0d565b5060019150505b9392505050565b60066020528160005260406000208181548110611b6a57600080fd5b60009182526020909120600490910201805460018201546002830180546001600160a01b0384169650600160a01b90930460ff169450909291611bac906128b0565b80601f0160208091040260200160405190810160405280929190818152602001828054611bd8906128b0565b8015611c255780601f10611bfa57610100808354040283529160200191611c25565b820191906000526020600020905b815481529060010190602001808311611c0857829003601f168201915b5050505050908060030154905085565b600083815260086020526040902060018101546001600160a01b03163314611c7057604051638ff4f0c960e01b815260040160405180910390fd5b82611c8e576040516350dd03f760e11b815260040160405180910390fd5b6002810183905560038101805460ff191683151590811790915560408051858152602081019290925285917f31aceb5c222c3c2acf0bfdd74237844684c71194bdb3442f13492d1bfceb950b910160405180910390a250505050565b611cf2611e94565b811580611cfd575080155b15611d1b576040516350dd03f760e11b815260040160405180910390fd5b6040805160608101825233808252602080830185815242848601908152600088815260078452869020945185546001600160a01b0319166001600160a01b039091161785559051600185015551600290930192909255915183815284917f7e5af458043e82233aa733596298771e3dfc3b42b42ac6ccf9787e665dffb976910160405180910390a3611dac60018055565b5050565b611db8612033565b6001600160a01b038116611dfc5760405162461bcd60e51b815260206004820152600b60248201526a5a65726f4164647265737360a81b6044820152606401610923565b600280546001600160a01b0319166001600160a01b0392909216919091179055565b611e26612033565b6001600160a01b038116611e8b5760405162461bcd60e51b815260206004820152602660248201527f4f776e61626c653a206e6577206f776e657220697320746865207a65726f206160448201526564647265737360d01b6064820152608401610923565b61108e81612169565b60026001541415611ee75760405162461bcd60e51b815260206004820152601f60248201527f5265656e7472616e637947756172643a207265656e7472616e742063616c6c006044820152606401610923565b6002600155565b60647f000000000000000000000000000000000000000000000000000000000000000060ff16600a0a919091020490565b6040516001600160a01b03808516602483015283166044820152606481018290526108899085906323b872dd60e01b906084015b60408051601f198184030181529190526020810180516001600160e01b03166001600160e01b0319909316929092179091526121b9565b600082421015611f9c57506000611fce565b600062278d00611fac85426128eb565b611fb69190612902565b90508060ff8085169082161115611fca5750825b9150505b92915050565b600080612710611fe661012c85612791565b611ff09190612902565b9050611ffc81846128eb565b9150915091565b6040516001600160a01b0383166024820152604481018290526115e990849063a9059cbb60e01b90606401611f53565b6000546001600160a01b031633146116005760405162461bcd60e51b815260206004820181905260248201527f4f776e61626c653a2063616c6c6572206973206e6f7420746865206f776e65726044820152606401610923565b60008061209d8360400151611eee565b90506000846080015160ff16826120b49190612791565b905060008560a0015160ff16836120cb9190612791565b90506000806120d983611fd4565b909250905060006120ea8284612806565b90508860e001511561213c57600061210a8a606001518b60800151611f8a565b90506000818b6080015161211e9190612877565b905061212d60ff821689612791565b6121379084612806565b925050505b8481106121525760009650505050505050611fce565b61215c81866128eb565b9998505050505050505050565b600080546001600160a01b038381166001600160a01b0319831681178455604051919092169283917f8be0079c531659141344cd1fd0a4f28419497f9722a3daafe3b4186f6b6457e09190a35050565b600061220e826040518060400160405280602081526020017f5361666545524332303a206c6f772d6c6576656c2063616c6c206661696c6564815250856001600160a01b031661228e9092919063ffffffff16565b905080516000148061222f57508080602001905181019061222f9190612924565b6115e95760405162461bcd60e51b815260206004820152602a60248201527f5361666545524332303a204552433230206f7065726174696f6e20646964206e6044820152691bdd081cdd58d8d9595960b21b6064820152608401610923565b606061229d84846000856122a5565b949350505050565b6060824710156123065760405162461bcd60e51b815260206004820152602660248201527f416464726573733a20696e73756666696369656e742062616c616e636520666f6044820152651c8818d85b1b60d21b6064820152608401610923565b600080866001600160a01b031685876040516123229190612941565b60006040518083038185875af1925050503d806000811461235f576040519150601f19603f3d011682016040523d82523d6000602084013e612364565b606091505b509150915061237587838387612380565b979650505050505050565b606083156123ec5782516123e5576001600160a01b0385163b6123e55760405162461bcd60e51b815260206004820152601d60248201527f416464726573733a2063616c6c20746f206e6f6e2d636f6e74726163740000006044820152606401610923565b508161229d565b61229d83838151156124015781518083602001fd5b8060405162461bcd60e51b8152600401610923919061295d565b828054612427906128b0565b90600052602060002090601f016020900481019282612449576000855561248f565b82601f1061246257805160ff191683800117855561248f565b8280016001018555821561248f579182015b8281111561248f578251825591602001919060010190612474565b5061249b92915061249f565b5090565b5b8082111561249b57600081556001016124a0565b803560ff811681146124c557600080fd5b919050565b60008083601f8401126124dc57600080fd5b50813567ffffffffffffffff8111156124f457600080fd5b60208301915083602082850101111561250c57600080fd5b9250929050565b6000806000806060858703121561252957600080fd5b84359350612539602086016124b4565b9250604085013567ffffffffffffffff81111561255557600080fd5b612561878288016124ca565b95989497509550505050565b60006020828403121561257f57600080fd5b5035919050565b60008060008060006080868803121561259e57600080fd5b85359450602086013593506125b5604087016124b4565b9250606086013567ffffffffffffffff8111156125d157600080fd5b6125dd888289016124ca565b969995985093965092949392505050565b60008060006060848603121561260357600080fd5b505081359360208301359350604090920135919050565b60006020828403121561262c57600080fd5b81356001600160a01b0381168114611b4757600080fd5b6000806040838503121561265657600080fd5b50508035926020909101359150565b60005b83811015612680578181015183820152602001612668565b838111156108895750506000910152565b600081518084526126a9816020860160208601612665565b601f01601f19169290920160200192915050565b60018060a01b038616815260ff8516602082015283604082015260a0606082015260006126ed60a0830185612691565b90508260808301529695505050505050565b60008060006060848603121561271457600080fd5b833592506020840135915061272b604085016124b4565b90509250925092565b801515811461108e57600080fd5b60008060006060848603121561275757600080fd5b8335925060208401359150604084013561277081612734565b809150509250925092565b634e487b7160e01b600052601160045260246000fd5b60008160001904831182151516156127ab576127ab61277b565b500290565b81835281816020850137506000828201602090810191909152601f909101601f19169091010190565b60ff851681528360208201526060604082015260006127fc6060830184866127b0565b9695505050505050565b600082198211156128195761281961277b565b500190565b60006000198214156128325761283261277b565b5060010190565b6001600160a01b0384168152604060208201819052600090610e2a90830184866127b0565b60006020828403121561287057600080fd5b5051919050565b600060ff821660ff8416808210156128915761289161277b565b90039392505050565b634e487b7160e01b600052603260045260246000fd5b600181811c908216806128c457607f821691505b602082108114156128e557634e487b7160e01b600052602260045260246000fd5b50919050565b6000828210156128fd576128fd61277b565b500390565b60008261291f57634e487b7160e01b600052601260045260246000fd5b500490565b60006020828403121561293657600080fd5b8151611b4781612734565b60008251612953818460208701612665565b9190910192915050565b602081526000611b47602083018461269156fea2646970667358221220f135dff6ff424d988f0967f77716d63a027375a81a3104ca4f40157cc30db71664736f6c63430008090033","opcodes":"PUSH1 0xC0 PUSH1 0x40 MSTORE CALLVALUE DUP1 ISZERO PUSH3 0x11 JUMPI PUSH1 0x0 DUP1 REVERT JUMPDEST POP PUSH1 0x40 MLOAD PUSH3 0x2C34 CODESIZE SUB DUP1 PUSH3 0x2C34 DUP4 CODECOPY DUP2 ADD PUSH1 0x40 DUP2 SWAP1 MSTORE PUSH3 0x34 SWAP2 PUSH3 0x1BE JUMP JUMPDEST PUSH3 0x3F CALLER PUSH3 0x151 JUMP JUMPDEST PUSH1 0x1 DUP1 SSTORE PUSH1 0x1 PUSH1 0x1 PUSH1 0xA0 SHL SUB DUP3 AND ISZERO DUP1 ISZERO SWAP1 PUSH3 0x64 JUMPI POP PUSH1 0x1 PUSH1 0x1 PUSH1 0xA0 SHL SUB DUP2 AND ISZERO ISZERO JUMPDEST PUSH3 0xA3 JUMPI PUSH1 0x40 MLOAD PUSH3 0x461BCD PUSH1 0xE5 SHL DUP2 MSTORE PUSH1 0x20 PUSH1 0x4 DUP3 ADD MSTORE PUSH1 0xB PUSH1 0x24 DUP3 ADD MSTORE PUSH11 0x5A65726F41646472657373 PUSH1 0xA8 SHL PUSH1 0x44 DUP3 ADD MSTORE PUSH1 0x64 ADD PUSH1 0x40 MLOAD DUP1 SWAP2 SUB SWAP1 REVERT JUMPDEST PUSH1 0x1 PUSH1 0x1 PUSH1 0xA0 SHL SUB DUP3 AND PUSH1 0x80 DUP2 SWAP1 MSTORE PUSH1 0x40 DUP1 MLOAD PUSH4 0x313CE567 PUSH1 0xE0 SHL DUP2 MSTORE SWAP1 MLOAD PUSH4 0x313CE567 SWAP2 PUSH1 0x4 DUP1 DUP3 ADD SWAP3 PUSH1 0x20 SWAP3 SWAP1 SWAP2 SWAP1 DUP3 SWAP1 SUB ADD DUP2 DUP7 DUP1 EXTCODESIZE ISZERO DUP1 ISZERO PUSH3 0xE9 JUMPI PUSH1 0x0 DUP1 REVERT JUMPDEST POP GAS STATICCALL ISZERO DUP1 ISZERO PUSH3 0xFE JUMPI RETURNDATASIZE PUSH1 0x0 DUP1 RETURNDATACOPY RETURNDATASIZE PUSH1 0x0 REVERT JUMPDEST POP POP POP POP PUSH1 0x40 MLOAD RETURNDATASIZE PUSH1 0x1F NOT PUSH1 0x1F DUP3 ADD AND DUP3 ADD DUP1 PUSH1 0x40 MSTORE POP DUP2 ADD SWAP1 PUSH3 0x124 SWAP2 SWAP1 PUSH3 0x1F6 JUMP JUMPDEST PUSH1 0xFF AND PUSH1 0xA0 MSTORE PUSH1 0x2 DUP1 SLOAD PUSH1 0x1 PUSH1 0x1 PUSH1 0xA0 SHL SUB NOT AND PUSH1 0x1 PUSH1 0x1 PUSH1 0xA0 SHL SUB SWAP3 SWAP1 SWAP3 AND SWAP2 SWAP1 SWAP2 OR SWAP1 SSTORE POP PUSH3 0x222 JUMP JUMPDEST PUSH1 0x0 DUP1 SLOAD PUSH1 0x1 PUSH1 0x1 PUSH1 0xA0 SHL SUB DUP4 DUP2 AND PUSH1 0x1 PUSH1 0x1 PUSH1 0xA0 SHL SUB NOT DUP4 AND DUP2 OR DUP5 SSTORE PUSH1 0x40 MLOAD SWAP2 SWAP1 SWAP3 AND SWAP3 DUP4 SWAP2 PUSH32 0x8BE0079C531659141344CD1FD0A4F28419497F9722A3DAAFE3B4186F6B6457E0 SWAP2 SWAP1 LOG3 POP POP JUMP JUMPDEST DUP1 MLOAD PUSH1 0x1 PUSH1 0x1 PUSH1 0xA0 SHL SUB DUP2 AND DUP2 EQ PUSH3 0x1B9 JUMPI PUSH1 0x0 DUP1 REVERT JUMPDEST SWAP2 SWAP1 POP JUMP JUMPDEST PUSH1 0x0 DUP1 PUSH1 0x40 DUP4 DUP6 SUB SLT ISZERO PUSH3 0x1D2 JUMPI PUSH1 0x0 DUP1 REVERT JUMPDEST PUSH3 0x1DD DUP4 PUSH3 0x1A1 JUMP JUMPDEST SWAP2 POP PUSH3 0x1ED PUSH1 0x20 DUP5 ADD PUSH3 0x1A1 JUMP JUMPDEST SWAP1 POP SWAP3 POP SWAP3 SWAP1 POP JUMP JUMPDEST PUSH1 0x0 PUSH1 0x20 DUP3 DUP5 SUB SLT ISZERO PUSH3 0x209 JUMPI PUSH1 0x0 DUP1 REVERT JUMPDEST DUP2 MLOAD PUSH1 0xFF DUP2 AND DUP2 EQ PUSH3 0x21B JUMPI PUSH1 0x0 DUP1 REVERT JUMPDEST SWAP4 SWAP3 POP POP POP JUMP JUMPDEST PUSH1 0x80 MLOAD PUSH1 0xA0 MLOAD PUSH2 0x29A6 PUSH3 0x28E PUSH1 0x0 CODECOPY PUSH1 0x0 DUP2 DUP2 PUSH2 0x322 ADD MSTORE PUSH2 0x1EF2 ADD MSTORE PUSH1 0x0 DUP2 DUP2 PUSH2 0x2E3 ADD MSTORE DUP2 DUP2 PUSH2 0xB98 ADD MSTORE DUP2 DUP2 PUSH2 0xFD0 ADD MSTORE DUP2 DUP2 PUSH2 0x100E ADD MSTORE DUP2 DUP2 PUSH2 0x126A ADD MSTORE DUP2 DUP2 PUSH2 0x12AA ADD MSTORE DUP2 DUP2 PUSH2 0x12EB ADD MSTORE DUP2 DUP2 PUSH2 0x14E2 ADD MSTORE DUP2 DUP2 PUSH2 0x1522 ADD MSTORE PUSH2 0x1562 ADD MSTORE PUSH2 0x29A6 PUSH1 0x0 RETURN INVALID PUSH1 0x80 PUSH1 0x40 MSTORE CALLVALUE DUP1 ISZERO PUSH2 0x10 JUMPI PUSH1 0x0 DUP1 REVERT JUMPDEST POP PUSH1 0x4 CALLDATASIZE LT PUSH2 0x1CF JUMPI PUSH1 0x0 CALLDATALOAD PUSH1 0xE0 SHR DUP1 PUSH4 0x9D45E780 GT PUSH2 0x104 JUMPI DUP1 PUSH4 0xC3A9D506 GT PUSH2 0xA2 JUMPI DUP1 PUSH4 0xDDEFE587 GT PUSH2 0x71 JUMPI DUP1 PUSH4 0xDDEFE587 EQ PUSH2 0x534 JUMPI DUP1 PUSH4 0xDE74E57B EQ PUSH2 0x547 JUMPI DUP1 PUSH4 0xEFDCD974 EQ PUSH2 0x5B3 JUMPI DUP1 PUSH4 0xF2FDE38B EQ PUSH2 0x5C6 JUMPI PUSH1 0x0 DUP1 REVERT JUMPDEST DUP1 PUSH4 0xC3A9D506 EQ PUSH2 0x4FC JUMPI DUP1 PUSH4 0xD5999A5C EQ PUSH2 0x50F JUMPI DUP1 PUSH4 0xDA5D24CF EQ PUSH2 0x519 JUMPI DUP1 PUSH4 0xDDA12B4B EQ PUSH2 0x521 JUMPI PUSH1 0x0 DUP1 REVERT JUMPDEST DUP1 PUSH4 0xAE445984 GT PUSH2 0xDE JUMPI DUP1 PUSH4 0xAE445984 EQ PUSH2 0x47C JUMPI DUP1 PUSH4 0xB3F00674 EQ PUSH2 0x4A0 JUMPI DUP1 PUSH4 0xBBF83835 EQ PUSH2 0x4B3 JUMPI DUP1 PUSH4 0xBF333F2C EQ PUSH2 0x4D6 JUMPI PUSH1 0x0 DUP1 REVERT JUMPDEST DUP1 PUSH4 0x9D45E780 EQ PUSH2 0x443 JUMPI DUP1 PUSH4 0xA48E7230 EQ PUSH2 0x456 JUMPI DUP1 PUSH4 0xA5C1674E EQ PUSH2 0x469 JUMPI PUSH1 0x0 DUP1 REVERT JUMPDEST DUP1 PUSH4 0x3FABE74F GT PUSH2 0x171 JUMPI DUP1 PUSH4 0x715018A6 GT PUSH2 0x14B JUMPI DUP1 PUSH4 0x715018A6 EQ PUSH2 0x3C2 JUMPI DUP1 PUSH4 0x7401EAB5 EQ PUSH2 0x3CA JUMPI DUP1 PUSH4 0x87674C5B EQ PUSH2 0x428 JUMPI DUP1 PUSH4 0x8DA5CB5B EQ PUSH2 0x432 JUMPI PUSH1 0x0 DUP1 REVERT JUMPDEST DUP1 PUSH4 0x3FABE74F EQ PUSH2 0x37C JUMPI DUP1 PUSH4 0x5063046C EQ PUSH2 0x38F JUMPI DUP1 PUSH4 0x59627BF6 EQ PUSH2 0x3AF JUMPI PUSH1 0x0 DUP1 REVERT JUMPDEST DUP1 PUSH4 0x3013CE29 GT PUSH2 0x1AD JUMPI DUP1 PUSH4 0x3013CE29 EQ PUSH2 0x2DE JUMPI DUP1 PUSH4 0x325CD796 EQ PUSH2 0x31D JUMPI DUP1 PUSH4 0x371A5A22 EQ PUSH2 0x356 JUMPI DUP1 PUSH4 0x3DC59AB1 EQ PUSH2 0x369 JUMPI PUSH1 0x0 DUP1 REVERT JUMPDEST DUP1 PUSH4 0x91C1B3B EQ PUSH2 0x1D4 JUMPI DUP1 PUSH4 0x1DAB301E EQ PUSH2 0x1E9 JUMPI DUP1 PUSH4 0x1DEFB941 EQ PUSH2 0x2BD JUMPI JUMPDEST PUSH1 0x0 DUP1 REVERT JUMPDEST PUSH2 0x1E7 PUSH2 0x1E2 CALLDATASIZE PUSH1 0x4 PUSH2 0x2513 JUMP JUMPDEST PUSH2 0x5D9 JUMP JUMPDEST STOP JUMPDEST PUSH2 0x25A PUSH2 0x1F7 CALLDATASIZE PUSH1 0x4 PUSH2 0x256D JUMP JUMPDEST PUSH1 0x9 PUSH1 0x20 MSTORE PUSH1 0x0 SWAP1 DUP2 MSTORE PUSH1 0x40 SWAP1 KECCAK256 DUP1 SLOAD PUSH1 0x1 DUP3 ADD SLOAD PUSH1 0x2 DUP4 ADD SLOAD PUSH1 0x3 DUP5 ADD SLOAD PUSH1 0x4 DUP6 ADD SLOAD PUSH1 0x5 DUP7 ADD SLOAD PUSH1 0x6 DUP8 ADD SLOAD PUSH1 0x7 SWAP1 SWAP8 ADD SLOAD SWAP6 SWAP7 SWAP5 SWAP6 PUSH1 0x1 PUSH1 0x1 PUSH1 0xA0 SHL SUB SWAP1 SWAP5 AND SWAP5 SWAP3 SWAP4 PUSH1 0xFF DUP1 DUP5 AND SWAP5 PUSH2 0x100 SWAP5 DUP6 SWAP1 DIV DUP3 AND SWAP5 DUP2 DUP4 AND SWAP4 SWAP2 DIV SWAP1 SWAP2 AND SWAP1 DUP11 JUMP JUMPDEST PUSH1 0x40 DUP1 MLOAD SWAP11 DUP12 MSTORE PUSH1 0x20 DUP12 ADD SWAP10 SWAP1 SWAP10 MSTORE PUSH1 0x1 PUSH1 0x1 PUSH1 0xA0 SHL SUB SWAP1 SWAP8 AND SWAP8 DUP10 ADD SWAP8 SWAP1 SWAP8 MSTORE PUSH1 0x60 DUP9 ADD SWAP5 SWAP1 SWAP5 MSTORE PUSH1 0xFF SWAP3 DUP4 AND PUSH1 0x80 DUP9 ADD MSTORE SWAP2 AND PUSH1 0xA0 DUP7 ADD MSTORE PUSH1 0xC0 DUP6 ADD MSTORE ISZERO ISZERO PUSH1 0xE0 DUP5 ADD MSTORE SWAP1 ISZERO ISZERO PUSH2 0x100 DUP4 ADD MSTORE PUSH2 0x120 DUP3 ADD MSTORE PUSH2 0x140 ADD JUMPDEST PUSH1 0x40 MLOAD DUP1 SWAP2 SUB SWAP1 RETURN JUMPDEST PUSH2 0x2D0 PUSH2 0x2CB CALLDATASIZE PUSH1 0x4 PUSH2 0x2586 JUMP JUMPDEST PUSH2 0x88F JUMP JUMPDEST PUSH1 0x40 MLOAD SWAP1 DUP2 MSTORE PUSH1 0x20 ADD PUSH2 0x2B4 JUMP JUMPDEST PUSH2 0x305 PUSH32 0x0 DUP2 JUMP JUMPDEST PUSH1 0x40 MLOAD PUSH1 0x1 PUSH1 0x1 PUSH1 0xA0 SHL SUB SWAP1 SWAP2 AND DUP2 MSTORE PUSH1 0x20 ADD PUSH2 0x2B4 JUMP JUMPDEST PUSH2 0x344 PUSH32 0x0 DUP2 JUMP JUMPDEST PUSH1 0x40 MLOAD PUSH1 0xFF SWAP1 SWAP2 AND DUP2 MSTORE PUSH1 0x20 ADD PUSH2 0x2B4 JUMP JUMPDEST PUSH2 0x1E7 PUSH2 0x364 CALLDATASIZE PUSH1 0x4 PUSH2 0x256D JUMP JUMPDEST PUSH2 0xE33 JUMP JUMPDEST PUSH2 0x1E7 PUSH2 0x377 CALLDATASIZE PUSH1 0x4 PUSH2 0x256D JUMP JUMPDEST PUSH2 0x1091 JUMP JUMPDEST PUSH2 0x1E7 PUSH2 0x38A CALLDATASIZE PUSH1 0x4 PUSH2 0x25EE JUMP JUMPDEST PUSH2 0x1375 JUMP JUMPDEST PUSH2 0x2D0 PUSH2 0x39D CALLDATASIZE PUSH1 0x4 PUSH2 0x256D JUMP JUMPDEST PUSH1 0x0 SWAP1 DUP2 MSTORE PUSH1 0x6 PUSH1 0x20 MSTORE PUSH1 0x40 SWAP1 KECCAK256 SLOAD SWAP1 JUMP JUMPDEST PUSH1 0x3 SLOAD PUSH2 0x305 SWAP1 PUSH1 0x1 PUSH1 0x1 PUSH1 0xA0 SHL SUB AND DUP2 JUMP JUMPDEST PUSH2 0x1E7 PUSH2 0x15EE JUMP JUMPDEST PUSH2 0x403 PUSH2 0x3D8 CALLDATASIZE PUSH1 0x4 PUSH2 0x256D JUMP JUMPDEST PUSH1 0x7 PUSH1 0x20 MSTORE PUSH1 0x0 SWAP1 DUP2 MSTORE PUSH1 0x40 SWAP1 KECCAK256 DUP1 SLOAD PUSH1 0x1 DUP3 ADD SLOAD PUSH1 0x2 SWAP1 SWAP3 ADD SLOAD PUSH1 0x1 PUSH1 0x1 PUSH1 0xA0 SHL SUB SWAP1 SWAP2 AND SWAP2 SWAP1 DUP4 JUMP JUMPDEST PUSH1 0x40 DUP1 MLOAD PUSH1 0x1 PUSH1 0x1 PUSH1 0xA0 SHL SUB SWAP1 SWAP5 AND DUP5 MSTORE PUSH1 0x20 DUP5 ADD SWAP3 SWAP1 SWAP3 MSTORE SWAP1 DUP3 ADD MSTORE PUSH1 0x60 ADD PUSH2 0x2B4 JUMP JUMPDEST PUSH2 0x2D0 PUSH3 0x15180 DUP2 JUMP JUMPDEST PUSH1 0x0 SLOAD PUSH1 0x1 PUSH1 0x1 PUSH1 0xA0 SHL SUB AND PUSH2 0x305 JUMP JUMPDEST PUSH2 0x1E7 PUSH2 0x451 CALLDATASIZE PUSH1 0x4 PUSH2 0x261A JUMP JUMPDEST PUSH2 0x1602 JUMP JUMPDEST PUSH2 0x2D0 PUSH2 0x464 CALLDATASIZE PUSH1 0x4 PUSH2 0x256D JUMP JUMPDEST PUSH2 0x1670 JUMP JUMPDEST PUSH2 0x1E7 PUSH2 0x477 CALLDATASIZE PUSH1 0x4 PUSH2 0x256D JUMP JUMPDEST PUSH2 0x1756 JUMP JUMPDEST PUSH2 0x48F PUSH2 0x48A CALLDATASIZE PUSH1 0x4 PUSH2 0x2643 JUMP JUMPDEST PUSH2 0x1870 JUMP JUMPDEST PUSH1 0x40 MLOAD PUSH2 0x2B4 SWAP6 SWAP5 SWAP4 SWAP3 SWAP2 SWAP1 PUSH2 0x26BD JUMP JUMPDEST PUSH1 0x2 SLOAD PUSH2 0x305 SWAP1 PUSH1 0x1 PUSH1 0x1 PUSH1 0xA0 SHL SUB AND DUP2 JUMP JUMPDEST PUSH2 0x4C6 PUSH2 0x4C1 CALLDATASIZE PUSH1 0x4 PUSH2 0x26FF JUMP JUMPDEST PUSH2 0x197D JUMP JUMPDEST PUSH1 0x40 MLOAD SWAP1 ISZERO ISZERO DUP2 MSTORE PUSH1 0x20 ADD PUSH2 0x2B4 JUMP JUMPDEST PUSH2 0x4DF PUSH2 0x12C DUP2 JUMP JUMPDEST PUSH1 0x40 MLOAD PUSH12 0xFFFFFFFFFFFFFFFFFFFFFFFF SWAP1 SWAP2 AND DUP2 MSTORE PUSH1 0x20 ADD PUSH2 0x2B4 JUMP JUMPDEST PUSH2 0x48F PUSH2 0x50A CALLDATASIZE PUSH1 0x4 PUSH2 0x2643 JUMP JUMPDEST PUSH2 0x1B4E JUMP JUMPDEST PUSH2 0x2D0 PUSH3 0x278D00 DUP2 JUMP JUMPDEST PUSH2 0x2D0 PUSH1 0x6 DUP2 JUMP JUMPDEST PUSH2 0x1E7 PUSH2 0x52F CALLDATASIZE PUSH1 0x4 PUSH2 0x2742 JUMP JUMPDEST PUSH2 0x1C35 JUMP JUMPDEST PUSH2 0x1E7 PUSH2 0x542 CALLDATASIZE PUSH1 0x4 PUSH2 0x2643 JUMP JUMPDEST PUSH2 0x1CEA JUMP JUMPDEST PUSH2 0x589 PUSH2 0x555 CALLDATASIZE PUSH1 0x4 PUSH2 0x256D JUMP JUMPDEST PUSH1 0x8 PUSH1 0x20 MSTORE PUSH1 0x0 SWAP1 DUP2 MSTORE PUSH1 0x40 SWAP1 KECCAK256 DUP1 SLOAD PUSH1 0x1 DUP3 ADD SLOAD PUSH1 0x2 DUP4 ADD SLOAD PUSH1 0x3 SWAP1 SWAP4 ADD SLOAD SWAP2 SWAP3 PUSH1 0x1 PUSH1 0x1 PUSH1 0xA0 SHL SUB SWAP1 SWAP2 AND SWAP2 PUSH1 0xFF AND DUP5 JUMP JUMPDEST PUSH1 0x40 DUP1 MLOAD SWAP5 DUP6 MSTORE PUSH1 0x1 PUSH1 0x1 PUSH1 0xA0 SHL SUB SWAP1 SWAP4 AND PUSH1 0x20 DUP6 ADD MSTORE SWAP2 DUP4 ADD MSTORE ISZERO ISZERO PUSH1 0x60 DUP3 ADD MSTORE PUSH1 0x80 ADD PUSH2 0x2B4 JUMP JUMPDEST PUSH2 0x1E7 PUSH2 0x5C1 CALLDATASIZE PUSH1 0x4 PUSH2 0x261A JUMP JUMPDEST PUSH2 0x1DB0 JUMP JUMPDEST PUSH2 0x1E7 PUSH2 0x5D4 CALLDATASIZE PUSH1 0x4 PUSH2 0x261A JUMP JUMPDEST PUSH2 0x1E1E JUMP JUMPDEST PUSH2 0x5E1 PUSH2 0x1E94 JUMP JUMPDEST PUSH1 0xFF DUP4 AND PUSH2 0x602 JUMPI PUSH1 0x40 MLOAD PUSH4 0x50DD03F7 PUSH1 0xE1 SHL DUP2 MSTORE PUSH1 0x4 ADD PUSH1 0x40 MLOAD DUP1 SWAP2 SUB SWAP1 REVERT JUMPDEST PUSH1 0x0 DUP5 DUP2 MSTORE PUSH1 0x9 PUSH1 0x20 SWAP1 DUP2 MSTORE PUSH1 0x40 SWAP2 DUP3 SWAP1 KECCAK256 DUP3 MLOAD PUSH2 0x140 DUP2 ADD DUP5 MSTORE DUP2 SLOAD DUP1 DUP3 MSTORE PUSH1 0x1 DUP4 ADD SLOAD SWAP4 DUP3 ADD SWAP4 SWAP1 SWAP4 MSTORE PUSH1 0x2 DUP3 ADD SLOAD PUSH1 0x1 PUSH1 0x1 PUSH1 0xA0 SHL SUB AND SWAP4 DUP2 ADD SWAP4 SWAP1 SWAP4 MSTORE PUSH1 0x3 DUP2 ADD SLOAD PUSH1 0x60 DUP5 ADD MSTORE PUSH1 0x4 DUP2 ADD SLOAD PUSH1 0xFF DUP1 DUP3 AND PUSH1 0x80 DUP7 ADD MSTORE PUSH2 0x100 SWAP2 DUP3 SWAP1 DIV DUP2 AND PUSH1 0xA0 DUP7 ADD MSTORE PUSH1 0x5 DUP4 ADD SLOAD PUSH1 0xC0 DUP7 ADD MSTORE PUSH1 0x6 DUP4 ADD SLOAD DUP1 DUP3 AND ISZERO ISZERO PUSH1 0xE0 DUP8 ADD MSTORE DUP3 SWAP1 DIV AND ISZERO ISZERO SWAP1 DUP5 ADD MSTORE PUSH1 0x7 ADD SLOAD PUSH2 0x120 DUP4 ADD MSTORE PUSH2 0x6B4 JUMPI PUSH1 0x40 MLOAD PUSH4 0x50DD03F7 PUSH1 0xE1 SHL DUP2 MSTORE PUSH1 0x4 ADD PUSH1 0x40 MLOAD DUP1 SWAP2 SUB SWAP1 REVERT JUMPDEST PUSH1 0x40 DUP2 ADD MLOAD PUSH1 0x1 PUSH1 0x1 PUSH1 0xA0 SHL SUB AND CALLER EQ PUSH2 0x6E0 JUMPI PUSH1 0x40 MLOAD PUSH3 0xA39DF3 PUSH1 0xE7 SHL DUP2 MSTORE PUSH1 0x4 ADD PUSH1 0x40 MLOAD DUP1 SWAP2 SUB SWAP1 REVERT JUMPDEST PUSH1 0x20 DUP1 DUP3 ADD MLOAD PUSH1 0x0 SWAP1 DUP2 MSTORE PUSH1 0x8 DUP3 MSTORE PUSH1 0x40 DUP1 DUP3 KECCAK256 DUP2 MLOAD PUSH1 0x80 DUP2 ADD DUP4 MSTORE DUP2 SLOAD DUP2 MSTORE PUSH1 0x1 DUP3 ADD SLOAD PUSH1 0x1 PUSH1 0x1 PUSH1 0xA0 SHL SUB AND SWAP5 DUP2 ADD SWAP5 SWAP1 SWAP5 MSTORE PUSH1 0x2 DUP2 ADD SLOAD SWAP2 DUP5 ADD DUP3 SWAP1 MSTORE PUSH1 0x3 ADD SLOAD PUSH1 0xFF SWAP1 DUP2 AND ISZERO ISZERO PUSH1 0x60 DUP6 ADD MSTORE PUSH2 0x73D SWAP2 SWAP1 DUP9 AND SWAP1 PUSH2 0x2791 JUMP JUMPDEST SWAP1 POP PUSH1 0x6 PUSH1 0x0 DUP9 DUP2 MSTORE PUSH1 0x20 ADD SWAP1 DUP2 MSTORE PUSH1 0x20 ADD PUSH1 0x0 KECCAK256 PUSH1 0x40 MLOAD DUP1 PUSH1 0xA0 ADD PUSH1 0x40 MSTORE DUP1 CALLER PUSH1 0x1 PUSH1 0x1 PUSH1 0xA0 SHL SUB AND DUP2 MSTORE PUSH1 0x20 ADD DUP9 PUSH1 0xFF AND DUP2 MSTORE PUSH1 0x20 ADD DUP4 DUP2 MSTORE PUSH1 0x20 ADD DUP8 DUP8 DUP1 DUP1 PUSH1 0x1F ADD PUSH1 0x20 DUP1 SWAP2 DIV MUL PUSH1 0x20 ADD PUSH1 0x40 MLOAD SWAP1 DUP2 ADD PUSH1 0x40 MSTORE DUP1 SWAP4 SWAP3 SWAP2 SWAP1 DUP2 DUP2 MSTORE PUSH1 0x20 ADD DUP4 DUP4 DUP1 DUP3 DUP5 CALLDATACOPY PUSH1 0x0 SWAP3 ADD DUP3 SWAP1 MSTORE POP SWAP4 DUP6 MSTORE POP POP TIMESTAMP PUSH1 0x20 SWAP4 DUP5 ADD MSTORE POP DUP4 SLOAD PUSH1 0x1 DUP2 DUP2 ADD DUP7 SSTORE SWAP5 DUP3 MSTORE SWAP1 DUP3 SWAP1 KECCAK256 DUP4 MLOAD PUSH1 0x4 SWAP1 SWAP3 MUL ADD DUP1 SLOAD DUP5 DUP5 ADD MLOAD PUSH1 0xFF AND PUSH1 0x1 PUSH1 0xA0 SHL MUL PUSH1 0x1 PUSH1 0x1 PUSH1 0xA8 SHL SUB NOT SWAP1 SWAP2 AND PUSH1 0x1 PUSH1 0x1 PUSH1 0xA0 SHL SUB SWAP1 SWAP4 AND SWAP3 SWAP1 SWAP3 OR SWAP2 SWAP1 SWAP2 OR DUP2 SSTORE PUSH1 0x40 DUP4 ADD MLOAD SWAP4 DUP2 ADD SWAP4 SWAP1 SWAP4 SSTORE PUSH1 0x60 DUP3 ADD MLOAD DUP1 MLOAD SWAP3 SWAP4 SWAP3 PUSH2 0x828 SWAP3 PUSH1 0x2 DUP6 ADD SWAP3 ADD SWAP1 PUSH2 0x241B JUMP JUMPDEST POP PUSH1 0x80 DUP3 ADD MLOAD DUP2 PUSH1 0x3 ADD SSTORE POP POP CALLER PUSH1 0x1 PUSH1 0x1 PUSH1 0xA0 SHL SUB AND DUP8 PUSH32 0xEA9B13C5CD89E62C935DEBC483D9F305240A57F31AD56D8DAF8E465960D2585C DUP9 DUP5 DUP10 DUP10 PUSH1 0x40 MLOAD PUSH2 0x875 SWAP5 SWAP4 SWAP3 SWAP2 SWAP1 PUSH2 0x27D9 JUMP JUMPDEST PUSH1 0x40 MLOAD DUP1 SWAP2 SUB SWAP1 LOG3 POP POP POP PUSH2 0x889 PUSH1 0x1 DUP1 SSTORE JUMP JUMPDEST POP POP POP POP JUMP JUMPDEST PUSH1 0x0 PUSH2 0x899 PUSH2 0x1E94 JUMP JUMPDEST PUSH1 0x0 DUP7 DUP2 MSTORE PUSH1 0x8 PUSH1 0x20 SWAP1 DUP2 MSTORE PUSH1 0x40 SWAP2 DUP3 SWAP1 KECCAK256 DUP3 MLOAD PUSH1 0x80 DUP2 ADD DUP5 MSTORE DUP2 SLOAD DUP1 DUP3 MSTORE PUSH1 0x1 DUP4 ADD SLOAD PUSH1 0x1 PUSH1 0x1 PUSH1 0xA0 SHL SUB AND SWAP4 DUP3 ADD SWAP4 SWAP1 SWAP4 MSTORE PUSH1 0x2 DUP3 ADD SLOAD SWAP4 DUP2 ADD SWAP4 SWAP1 SWAP4 MSTORE PUSH1 0x3 ADD SLOAD PUSH1 0xFF AND ISZERO ISZERO PUSH1 0x60 DUP4 ADD MSTORE PUSH2 0x92C JUMPI PUSH1 0x40 MLOAD PUSH3 0x461BCD PUSH1 0xE5 SHL DUP2 MSTORE PUSH1 0x20 PUSH1 0x4 DUP3 ADD MSTORE PUSH1 0x11 PUSH1 0x24 DUP3 ADD MSTORE PUSH17 0x131A5CDD1A5B99C81B9BDD08199BDD5B99 PUSH1 0x7A SHL PUSH1 0x44 DUP3 ADD MSTORE PUSH1 0x64 ADD JUMPDEST PUSH1 0x40 MLOAD DUP1 SWAP2 SUB SWAP1 REVERT JUMPDEST DUP1 PUSH1 0x60 ADD MLOAD PUSH2 0x970 JUMPI PUSH1 0x40 MLOAD PUSH3 0x461BCD PUSH1 0xE5 SHL DUP2 MSTORE PUSH1 0x20 PUSH1 0x4 DUP3 ADD MSTORE PUSH1 0x10 PUSH1 0x24 DUP3 ADD MSTORE PUSH16 0x4C697374696E6720696E616374697665 PUSH1 0x80 SHL PUSH1 0x44 DUP3 ADD MSTORE PUSH1 0x64 ADD PUSH2 0x923 JUMP JUMPDEST PUSH1 0x0 DUP6 PUSH1 0xFF AND GT DUP1 ISZERO PUSH2 0x987 JUMPI POP PUSH1 0x6 DUP6 PUSH1 0xFF AND GT ISZERO JUMPDEST PUSH2 0x9C8 JUMPI PUSH1 0x40 MLOAD PUSH3 0x461BCD PUSH1 0xE5 SHL DUP2 MSTORE PUSH1 0x20 PUSH1 0x4 DUP3 ADD MSTORE PUSH1 0x12 PUSH1 0x24 DUP3 ADD MSTORE PUSH18 0x26B7B73A34399036BAB9BA1031329018969B PUSH1 0x71 SHL PUSH1 0x44 DUP3 ADD MSTORE PUSH1 0x64 ADD PUSH2 0x923 JUMP JUMPDEST PUSH2 0x9D5 PUSH3 0x15180 TIMESTAMP PUSH2 0x2806 JUMP JUMPDEST DUP7 LT ISZERO PUSH2 0xA10 JUMPI PUSH1 0x40 MLOAD PUSH3 0x461BCD PUSH1 0xE5 SHL DUP2 MSTORE PUSH1 0x20 PUSH1 0x4 DUP3 ADD MSTORE PUSH1 0x9 PUSH1 0x24 DUP3 ADD MSTORE PUSH9 0x546F6F206561726C79 PUSH1 0xB8 SHL PUSH1 0x44 DUP3 ADD MSTORE PUSH1 0x64 ADD PUSH2 0x923 JUMP JUMPDEST PUSH1 0x1 JUMPDEST PUSH1 0x5 SLOAD DUP2 GT PUSH2 0xB68 JUMPI PUSH1 0x0 DUP2 DUP2 MSTORE PUSH1 0x9 PUSH1 0x20 SWAP1 DUP2 MSTORE PUSH1 0x40 SWAP2 DUP3 SWAP1 KECCAK256 DUP3 MLOAD PUSH2 0x140 DUP2 ADD DUP5 MSTORE DUP2 SLOAD DUP2 MSTORE PUSH1 0x1 DUP3 ADD SLOAD SWAP3 DUP2 ADD DUP4 SWAP1 MSTORE PUSH1 0x2 DUP3 ADD SLOAD PUSH1 0x1 PUSH1 0x1 PUSH1 0xA0 SHL SUB AND SWAP4 DUP2 ADD SWAP4 SWAP1 SWAP4 MSTORE PUSH1 0x3 DUP2 ADD SLOAD PUSH1 0x60 DUP5 ADD MSTORE PUSH1 0x4 DUP2 ADD SLOAD PUSH1 0xFF DUP1 DUP3 AND PUSH1 0x80 DUP7 ADD MSTORE PUSH2 0x100 SWAP2 DUP3 SWAP1 DIV DUP2 AND PUSH1 0xA0 DUP7 ADD MSTORE PUSH1 0x5 DUP4 ADD SLOAD PUSH1 0xC0 DUP7 ADD MSTORE PUSH1 0x6 DUP4 ADD SLOAD DUP1 DUP3 AND ISZERO ISZERO PUSH1 0xE0 DUP8 ADD MSTORE DUP3 SWAP1 DIV AND ISZERO ISZERO SWAP1 DUP5 ADD MSTORE PUSH1 0x7 ADD SLOAD PUSH2 0x120 DUP4 ADD MSTORE DUP10 EQ DUP1 ISZERO PUSH2 0xABF JUMPI POP DUP1 PUSH1 0xE0 ADD MLOAD ISZERO JUMPDEST ISZERO PUSH2 0xB5F JUMPI PUSH1 0x0 PUSH3 0x278D00 DUP3 PUSH1 0x80 ADD MLOAD PUSH1 0xFF AND PUSH2 0xADC SWAP2 SWAP1 PUSH2 0x2791 JUMP JUMPDEST DUP3 PUSH1 0x60 ADD MLOAD PUSH2 0xAEB SWAP2 SWAP1 PUSH2 0x2806 JUMP JUMPDEST SWAP1 POP PUSH1 0x0 PUSH2 0xAFF PUSH3 0x278D00 PUSH1 0xFF DUP12 AND PUSH2 0x2791 JUMP JUMPDEST PUSH2 0xB09 SWAP1 DUP12 PUSH2 0x2806 JUMP JUMPDEST SWAP1 POP DUP3 PUSH1 0x60 ADD MLOAD DUP2 GT ISZERO DUP1 PUSH2 0xB1E JUMPI POP DUP2 DUP11 LT ISZERO JUMPDEST PUSH2 0xB5C JUMPI PUSH1 0x40 MLOAD PUSH3 0x461BCD PUSH1 0xE5 SHL DUP2 MSTORE PUSH1 0x20 PUSH1 0x4 DUP3 ADD MSTORE PUSH1 0xF PUSH1 0x24 DUP3 ADD MSTORE PUSH15 0x4F7665726C617020626F6F6B696E67 PUSH1 0x88 SHL PUSH1 0x44 DUP3 ADD MSTORE PUSH1 0x64 ADD PUSH2 0x923 JUMP JUMPDEST POP POP JUMPDEST POP PUSH1 0x1 ADD PUSH2 0xA13 JUMP JUMPDEST POP PUSH1 0x0 PUSH2 0xB78 DUP3 PUSH1 0x40 ADD MLOAD PUSH2 0x1EEE JUMP JUMPDEST SWAP1 POP PUSH1 0x0 PUSH2 0xB89 PUSH1 0xFF DUP9 AND DUP4 PUSH2 0x2791 JUMP JUMPDEST SWAP1 POP PUSH2 0xBC0 PUSH1 0x1 PUSH1 0x1 PUSH1 0xA0 SHL SUB PUSH32 0x0 AND CALLER ADDRESS DUP5 PUSH2 0x1F1F JUMP JUMPDEST PUSH1 0x0 PUSH1 0x5 PUSH1 0x0 DUP2 SLOAD PUSH2 0xBD1 SWAP1 PUSH2 0x281E JUMP JUMPDEST SWAP2 DUP3 SWAP1 SSTORE POP PUSH1 0x3 SLOAD PUSH1 0x40 MLOAD PUSH4 0xD0DEF521 PUSH1 0xE0 SHL DUP2 MSTORE SWAP2 SWAP3 POP PUSH1 0x0 SWAP2 PUSH1 0x1 PUSH1 0x1 PUSH1 0xA0 SHL SUB SWAP1 SWAP2 AND SWAP1 PUSH4 0xD0DEF521 SWAP1 PUSH2 0xC10 SWAP1 CALLER SWAP1 DUP13 SWAP1 DUP13 SWAP1 PUSH1 0x4 ADD PUSH2 0x2839 JUMP JUMPDEST PUSH1 0x20 PUSH1 0x40 MLOAD DUP1 DUP4 SUB DUP2 PUSH1 0x0 DUP8 DUP1 EXTCODESIZE ISZERO DUP1 ISZERO PUSH2 0xC2A JUMPI PUSH1 0x0 DUP1 REVERT JUMPDEST POP GAS CALL ISZERO DUP1 ISZERO PUSH2 0xC3E JUMPI RETURNDATASIZE PUSH1 0x0 DUP1 RETURNDATACOPY RETURNDATASIZE PUSH1 0x0 REVERT JUMPDEST POP POP POP POP PUSH1 0x40 MLOAD RETURNDATASIZE PUSH1 0x1F NOT PUSH1 0x1F DUP3 ADD AND DUP3 ADD DUP1 PUSH1 0x40 MSTORE POP DUP2 ADD SWAP1 PUSH2 0xC62 SWAP2 SWAP1 PUSH2 0x285E JUMP JUMPDEST SWAP1 POP PUSH1 0x40 MLOAD DUP1 PUSH2 0x140 ADD PUSH1 0x40 MSTORE DUP1 DUP4 DUP2 MSTORE PUSH1 0x20 ADD DUP13 DUP2 MSTORE PUSH1 0x20 ADD CALLER PUSH1 0x1 PUSH1 0x1 PUSH1 0xA0 SHL SUB AND DUP2 MSTORE PUSH1 0x20 ADD DUP12 DUP2 MSTORE PUSH1 0x20 ADD DUP11 PUSH1 0xFF AND DUP2 MSTORE PUSH1 0x20 ADD PUSH1 0x0 PUSH1 0xFF AND DUP2 MSTORE PUSH1 0x20 ADD DUP5 DUP2 MSTORE PUSH1 0x20 ADD PUSH1 0x0 ISZERO ISZERO DUP2 MSTORE PUSH1 0x20 ADD PUSH1 0x0 ISZERO ISZERO DUP2 MSTORE PUSH1 0x20 ADD DUP3 DUP2 MSTORE POP PUSH1 0x9 PUSH1 0x0 DUP5 DUP2 MSTORE PUSH1 0x20 ADD SWAP1 DUP2 MSTORE PUSH1 0x20 ADD PUSH1 0x0 KECCAK256 PUSH1 0x0 DUP3 ADD MLOAD DUP2 PUSH1 0x0 ADD SSTORE PUSH1 0x20 DUP3 ADD MLOAD DUP2 PUSH1 0x1 ADD SSTORE PUSH1 0x40 DUP3 ADD MLOAD DUP2 PUSH1 0x2 ADD PUSH1 0x0 PUSH2 0x100 EXP DUP2 SLOAD DUP2 PUSH1 0x1 PUSH1 0x1 PUSH1 0xA0 SHL SUB MUL NOT AND SWAP1 DUP4 PUSH1 0x1 PUSH1 0x1 PUSH1 0xA0 SHL SUB AND MUL OR SWAP1 SSTORE POP PUSH1 0x60 DUP3 ADD MLOAD DUP2 PUSH1 0x3 ADD SSTORE PUSH1 0x80 DUP3 ADD MLOAD DUP2 PUSH1 0x4 ADD PUSH1 0x0 PUSH2 0x100 EXP DUP2 SLOAD DUP2 PUSH1 0xFF MUL NOT AND SWAP1 DUP4 PUSH1 0xFF AND MUL OR SWAP1 SSTORE POP PUSH1 0xA0 DUP3 ADD MLOAD DUP2 PUSH1 0x4 ADD PUSH1 0x1 PUSH2 0x100 EXP DUP2 SLOAD DUP2 PUSH1 0xFF MUL NOT AND SWAP1 DUP4 PUSH1 0xFF AND MUL OR SWAP1 SSTORE POP PUSH1 0xC0 DUP3 ADD MLOAD DUP2 PUSH1 0x5 ADD SSTORE PUSH1 0xE0 DUP3 ADD MLOAD DUP2 PUSH1 0x6 ADD PUSH1 0x0 PUSH2 0x100 EXP DUP2 SLOAD DUP2 PUSH1 0xFF MUL NOT AND SWAP1 DUP4 ISZERO ISZERO MUL OR SWAP1 SSTORE POP PUSH2 0x100 DUP3 ADD MLOAD DUP2 PUSH1 0x6 ADD PUSH1 0x1 PUSH2 0x100 EXP DUP2 SLOAD DUP2 PUSH1 0xFF MUL NOT AND SWAP1 DUP4 ISZERO ISZERO MUL OR SWAP1 SSTORE POP PUSH2 0x120 DUP3 ADD MLOAD DUP2 PUSH1 0x7 ADD SSTORE SWAP1 POP POP CALLER PUSH1 0x1 PUSH1 0x1 PUSH1 0xA0 SHL SUB AND DUP12 DUP4 PUSH32 0x5829FF22A8BF2C53A38F1E2E4CF6B44D3B0B9224DA2A2203004D5F15FE3C87CC DUP14 DUP14 DUP9 DUP8 PUSH1 0x40 MLOAD PUSH2 0xE13 SWAP5 SWAP4 SWAP3 SWAP2 SWAP1 SWAP4 DUP5 MSTORE PUSH1 0xFF SWAP3 SWAP1 SWAP3 AND PUSH1 0x20 DUP5 ADD MSTORE PUSH1 0x40 DUP4 ADD MSTORE PUSH1 0x60 DUP3 ADD MSTORE PUSH1 0x80 ADD SWAP1 JUMP JUMPDEST PUSH1 0x40 MLOAD DUP1 SWAP2 SUB SWAP1 LOG4 POP SWAP4 POP POP POP POP PUSH2 0xE2A PUSH1 0x1 DUP1 SSTORE JUMP JUMPDEST SWAP6 SWAP5 POP POP POP POP POP JUMP JUMPDEST PUSH2 0xE3B PUSH2 0x1E94 JUMP JUMPDEST PUSH1 0x0 DUP2 DUP2 MSTORE PUSH1 0x9 PUSH1 0x20 SWAP1 DUP2 MSTORE PUSH1 0x40 DUP1 DUP4 KECCAK256 PUSH1 0x1 DUP1 DUP3 ADD SLOAD DUP6 MSTORE PUSH1 0x8 DUP5 MSTORE SWAP4 DUP3 SWAP1 KECCAK256 DUP3 MLOAD PUSH1 0x80 DUP2 ADD DUP5 MSTORE DUP2 SLOAD DUP2 MSTORE SWAP5 DUP2 ADD SLOAD PUSH1 0x1 PUSH1 0x1 PUSH1 0xA0 SHL SUB AND SWAP4 DUP6 ADD DUP5 SWAP1 MSTORE PUSH1 0x2 DUP2 ADD SLOAD SWAP3 DUP6 ADD SWAP3 SWAP1 SWAP3 MSTORE PUSH1 0x3 SWAP1 SWAP2 ADD SLOAD PUSH1 0xFF AND ISZERO ISZERO PUSH1 0x60 DUP5 ADD MSTORE SWAP2 SWAP1 CALLER EQ PUSH2 0xEB8 JUMPI PUSH1 0x40 MLOAD PUSH4 0x8FF4F0C9 PUSH1 0xE0 SHL DUP2 MSTORE PUSH1 0x4 ADD PUSH1 0x40 MLOAD DUP1 SWAP2 SUB SWAP1 REVERT JUMPDEST PUSH1 0x6 DUP3 ADD SLOAD PUSH1 0xFF AND ISZERO PUSH2 0xEDE JUMPI PUSH1 0x40 MLOAD PUSH4 0x54E37625 PUSH1 0xE0 SHL DUP2 MSTORE PUSH1 0x4 ADD PUSH1 0x40 MLOAD DUP1 SWAP2 SUB SWAP1 REVERT JUMPDEST PUSH1 0x6 DUP3 ADD SLOAD PUSH2 0x100 SWAP1 DIV PUSH1 0xFF AND ISZERO PUSH2 0xF09 JUMPI PUSH1 0x40 MLOAD PUSH4 0xA30A94D PUSH1 0xE0 SHL DUP2 MSTORE PUSH1 0x4 ADD PUSH1 0x40 MLOAD DUP1 SWAP2 SUB SWAP1 REVERT JUMPDEST PUSH1 0x3 DUP3 ADD SLOAD PUSH1 0x4 DUP4 ADD SLOAD PUSH1 0x0 SWAP2 PUSH2 0xF22 SWAP2 PUSH1 0xFF AND PUSH2 0x1F8A JUMP JUMPDEST PUSH1 0x4 DUP5 ADD SLOAD SWAP1 SWAP2 POP PUSH1 0xFF PUSH2 0x100 SWAP1 SWAP2 DIV DUP2 AND SWAP1 DUP3 AND GT PUSH2 0xF55 JUMPI PUSH1 0x40 MLOAD PUSH4 0xB10205ED PUSH1 0xE0 SHL DUP2 MSTORE PUSH1 0x4 ADD PUSH1 0x40 MLOAD DUP1 SWAP2 SUB SWAP1 REVERT JUMPDEST PUSH1 0x4 DUP4 ADD SLOAD PUSH1 0x0 SWAP1 PUSH2 0xF6F SWAP1 PUSH2 0x100 SWAP1 DIV PUSH1 0xFF AND DUP4 PUSH2 0x2877 JUMP JUMPDEST PUSH1 0x4 DUP6 ADD DUP1 SLOAD PUSH2 0xFF00 NOT AND PUSH2 0x100 PUSH1 0xFF DUP7 AND MUL OR SWAP1 SSTORE PUSH1 0x40 DUP5 ADD MLOAD SWAP1 SWAP2 POP PUSH1 0x0 SWAP1 PUSH2 0xF99 SWAP1 PUSH2 0x1EEE JUMP JUMPDEST SWAP1 POP PUSH1 0x0 PUSH2 0xFAA PUSH1 0xFF DUP5 AND DUP4 PUSH2 0x2791 JUMP JUMPDEST SWAP1 POP PUSH1 0x0 DUP1 PUSH2 0xFB8 DUP4 PUSH2 0x1FD4 JUMP JUMPDEST PUSH1 0x20 DUP10 ADD MLOAD SWAP2 SWAP4 POP SWAP2 POP PUSH2 0xFF7 SWAP1 PUSH1 0x1 PUSH1 0x1 PUSH1 0xA0 SHL SUB PUSH32 0x0 AND SWAP1 DUP5 PUSH2 0x2003 JUMP JUMPDEST DUP1 ISZERO PUSH2 0x1037 JUMPI PUSH1 0x2 SLOAD PUSH2 0x1037 SWAP1 PUSH1 0x1 PUSH1 0x1 PUSH1 0xA0 SHL SUB PUSH32 0x0 DUP2 AND SWAP2 AND DUP4 PUSH2 0x2003 JUMP JUMPDEST PUSH1 0x40 DUP1 MLOAD PUSH1 0xFF DUP8 AND DUP2 MSTORE PUSH1 0x20 DUP2 ADD DUP5 SWAP1 MSTORE SWAP1 DUP2 ADD DUP3 SWAP1 MSTORE DUP10 SWAP1 PUSH32 0x1592310480057B30D97FFBBAA2C233E77F6D24CF00612A24FE9608F7D98B35BB SWAP1 PUSH1 0x60 ADD PUSH1 0x40 MLOAD DUP1 SWAP2 SUB SWAP1 LOG2 POP POP POP POP POP POP POP POP PUSH2 0x108E PUSH1 0x1 DUP1 SSTORE JUMP JUMPDEST POP JUMP JUMPDEST PUSH2 0x1099 PUSH2 0x1E94 JUMP JUMPDEST PUSH1 0x0 DUP2 DUP2 MSTORE PUSH1 0x9 PUSH1 0x20 MSTORE PUSH1 0x40 SWAP1 KECCAK256 PUSH1 0x2 DUP2 ADD SLOAD PUSH1 0x1 PUSH1 0x1 PUSH1 0xA0 SHL SUB AND CALLER EQ PUSH2 0x10D3 JUMPI PUSH1 0x40 MLOAD PUSH3 0xA39DF3 PUSH1 0xE7 SHL DUP2 MSTORE PUSH1 0x4 ADD PUSH1 0x40 MLOAD DUP1 SWAP2 SUB SWAP1 REVERT JUMPDEST PUSH1 0x6 DUP2 ADD SLOAD PUSH1 0xFF AND ISZERO PUSH2 0x10F9 JUMPI PUSH1 0x40 MLOAD PUSH4 0x54E37625 PUSH1 0xE0 SHL DUP2 MSTORE PUSH1 0x4 ADD PUSH1 0x40 MLOAD DUP1 SWAP2 SUB SWAP1 REVERT JUMPDEST PUSH1 0x6 DUP2 ADD SLOAD PUSH2 0x100 SWAP1 DIV PUSH1 0xFF AND ISZERO PUSH2 0x1124 JUMPI PUSH1 0x40 MLOAD PUSH4 0xA30A94D PUSH1 0xE0 SHL DUP2 MSTORE PUSH1 0x4 ADD PUSH1 0x40 MLOAD DUP1 SWAP2 SUB SWAP1 REVERT JUMPDEST PUSH1 0x1 DUP1 DUP3 ADD SLOAD PUSH1 0x0 SWAP1 DUP2 MSTORE PUSH1 0x8 PUSH1 0x20 SWAP1 DUP2 MSTORE PUSH1 0x40 DUP1 DUP4 KECCAK256 DUP2 MLOAD PUSH1 0x80 DUP2 ADD DUP4 MSTORE DUP2 SLOAD DUP2 MSTORE SWAP5 DUP2 ADD SLOAD PUSH1 0x1 PUSH1 0x1 PUSH1 0xA0 SHL SUB AND SWAP3 DUP6 ADD SWAP3 SWAP1 SWAP3 MSTORE PUSH1 0x2 DUP3 ADD SLOAD SWAP1 DUP5 ADD MSTORE PUSH1 0x3 SWAP1 DUP2 ADD SLOAD PUSH1 0xFF SWAP1 DUP2 AND ISZERO ISZERO PUSH1 0x60 DUP6 ADD MSTORE SWAP1 DUP5 ADD SLOAD PUSH1 0x4 DUP6 ADD SLOAD PUSH2 0x1189 SWAP3 AND PUSH2 0x1F8A JUMP JUMPDEST PUSH1 0x4 DUP5 ADD SLOAD SWAP1 SWAP2 POP PUSH1 0xFF PUSH2 0x100 SWAP1 SWAP2 DIV DUP2 AND SWAP1 DUP3 AND LT ISZERO PUSH2 0x11B3 JUMPI POP PUSH1 0x4 DUP3 ADD SLOAD PUSH2 0x100 SWAP1 DIV PUSH1 0xFF AND JUMPDEST PUSH1 0x4 DUP4 ADD SLOAD PUSH1 0x0 SWAP1 PUSH2 0x11CD SWAP1 PUSH2 0x100 SWAP1 DIV PUSH1 0xFF AND DUP4 PUSH2 0x2877 JUMP JUMPDEST PUSH1 0x4 DUP6 ADD SLOAD SWAP1 SWAP2 POP PUSH1 0x0 SWAP1 PUSH2 0x11E6 SWAP1 DUP5 SWAP1 PUSH1 0xFF AND PUSH2 0x2877 JUMP JUMPDEST SWAP1 POP PUSH1 0x0 PUSH2 0x11F7 DUP6 PUSH1 0x40 ADD MLOAD PUSH2 0x1EEE JUMP JUMPDEST SWAP1 POP PUSH1 0x0 PUSH2 0x1208 PUSH1 0xFF DUP6 AND DUP4 PUSH2 0x2791 JUMP JUMPDEST SWAP1 POP PUSH1 0x0 DUP1 PUSH2 0x1216 DUP4 PUSH2 0x1FD4 JUMP JUMPDEST SWAP1 SWAP3 POP SWAP1 POP PUSH1 0x0 PUSH2 0x122A PUSH1 0xFF DUP8 AND DUP7 PUSH2 0x2791 JUMP JUMPDEST PUSH1 0x4 DUP12 ADD DUP1 SLOAD PUSH2 0xFF00 NOT AND PUSH2 0x100 PUSH1 0xFF DUP13 AND MUL OR SWAP1 SSTORE PUSH1 0x6 DUP12 ADD DUP1 SLOAD PUSH1 0xFF NOT AND PUSH1 0x1 OR SWAP1 SSTORE SWAP1 POP DUP3 ISZERO PUSH2 0x1291 JUMPI PUSH1 0x20 DUP10 ADD MLOAD PUSH2 0x1291 SWAP1 PUSH1 0x1 PUSH1 0x1 PUSH1 0xA0 SHL SUB PUSH32 0x0 AND SWAP1 DUP6 PUSH2 0x2003 JUMP JUMPDEST DUP1 ISZERO PUSH2 0x12D3 JUMPI PUSH1 0x2 DUP11 ADD SLOAD PUSH2 0x12D3 SWAP1 PUSH1 0x1 PUSH1 0x1 PUSH1 0xA0 SHL SUB PUSH32 0x0 DUP2 AND SWAP2 AND DUP4 PUSH2 0x2003 JUMP JUMPDEST DUP2 DUP1 ISZERO PUSH2 0x1314 JUMPI PUSH1 0x2 SLOAD PUSH2 0x1314 SWAP1 PUSH1 0x1 PUSH1 0x1 PUSH1 0xA0 SHL SUB PUSH32 0x0 DUP2 AND SWAP2 AND DUP4 PUSH2 0x2003 JUMP JUMPDEST PUSH1 0x40 DUP1 MLOAD PUSH1 0xFF DUP12 AND DUP2 MSTORE PUSH1 0x20 DUP2 ADD DUP5 SWAP1 MSTORE SWAP1 DUP2 ADD DUP6 SWAP1 MSTORE PUSH1 0x60 DUP2 ADD DUP3 SWAP1 MSTORE DUP13 SWAP1 PUSH32 0x7B962A03BA93184B4CE4263E86EAE4306E600458596FFC74A206B6CE0EABD429 SWAP1 PUSH1 0x80 ADD PUSH1 0x40 MLOAD DUP1 SWAP2 SUB SWAP1 LOG2 POP POP POP POP POP POP POP POP POP POP POP PUSH2 0x108E PUSH1 0x1 DUP1 SSTORE JUMP JUMPDEST PUSH2 0x137D PUSH2 0x2033 JUMP JUMPDEST PUSH2 0x1385 PUSH2 0x1E94 JUMP JUMPDEST PUSH1 0x0 DUP4 DUP2 MSTORE PUSH1 0x9 PUSH1 0x20 SWAP1 DUP2 MSTORE PUSH1 0x40 DUP1 DUP4 KECCAK256 PUSH1 0x1 DUP1 DUP3 ADD SLOAD DUP1 DUP7 MSTORE PUSH1 0x8 DUP6 MSTORE DUP4 DUP7 KECCAK256 DUP5 MLOAD PUSH1 0x80 DUP1 DUP3 ADD DUP8 MSTORE DUP3 SLOAD DUP3 MSTORE SWAP4 DUP3 ADD SLOAD PUSH1 0x1 PUSH1 0x1 PUSH1 0xA0 SHL SUB SWAP1 DUP2 AND DUP3 DUP10 ADD MSTORE PUSH1 0x2 DUP1 DUP5 ADD SLOAD DUP4 DUP10 ADD MSTORE PUSH1 0x3 SWAP4 DUP5 ADD SLOAD PUSH1 0xFF SWAP1 DUP2 AND ISZERO ISZERO PUSH1 0x60 DUP1 DUP7 ADD SWAP2 SWAP1 SWAP2 MSTORE DUP10 MLOAD PUSH2 0x140 DUP2 ADD DUP12 MSTORE DUP10 SLOAD DUP2 MSTORE SWAP11 DUP12 ADD SWAP7 SWAP1 SWAP7 MSTORE SWAP1 DUP8 ADD SLOAD SWAP1 SWAP2 AND SWAP7 DUP9 ADD SWAP7 SWAP1 SWAP7 MSTORE SWAP1 DUP5 ADD SLOAD SWAP2 DUP7 ADD SWAP2 SWAP1 SWAP2 MSTORE PUSH1 0x4 DUP4 ADD SLOAD DUP1 DUP6 AND SWAP3 DUP7 ADD SWAP3 SWAP1 SWAP3 MSTORE PUSH2 0x100 SWAP2 DUP3 SWAP1 DIV DUP5 AND PUSH1 0xA0 DUP7 ADD MSTORE PUSH1 0x5 DUP4 ADD SLOAD PUSH1 0xC0 DUP7 ADD MSTORE PUSH1 0x6 DUP4 ADD SLOAD DUP1 DUP6 AND ISZERO ISZERO PUSH1 0xE0 DUP8 ADD MSTORE DUP3 SWAP1 DIV SWAP1 SWAP4 AND ISZERO ISZERO SWAP1 DUP5 ADD MSTORE PUSH1 0x7 DUP2 ADD SLOAD PUSH2 0x120 DUP5 ADD MSTORE SWAP3 SWAP1 SWAP2 PUSH2 0x146D SWAP1 DUP4 PUSH2 0x208D JUMP JUMPDEST SWAP1 POP DUP1 PUSH2 0x147A DUP6 DUP8 PUSH2 0x2806 JUMP JUMPDEST GT ISZERO PUSH2 0x14B8 JUMPI PUSH1 0x40 MLOAD PUSH3 0x461BCD PUSH1 0xE5 SHL DUP2 MSTORE PUSH1 0x20 PUSH1 0x4 DUP3 ADD MSTORE PUSH1 0xD PUSH1 0x24 DUP3 ADD MSTORE PUSH13 0x45786365656420657363726F77 PUSH1 0x98 SHL PUSH1 0x44 DUP3 ADD MSTORE PUSH1 0x64 ADD PUSH2 0x923 JUMP JUMPDEST PUSH1 0x0 DUP1 PUSH2 0x14C4 DUP8 PUSH2 0x1FD4 JUMP JUMPDEST SWAP1 SWAP3 POP SWAP1 POP DUP2 ISZERO PUSH2 0x1509 JUMPI PUSH1 0x20 DUP5 ADD MLOAD PUSH2 0x1509 SWAP1 PUSH1 0x1 PUSH1 0x1 PUSH1 0xA0 SHL SUB PUSH32 0x0 AND SWAP1 DUP5 PUSH2 0x2003 JUMP JUMPDEST DUP6 ISZERO PUSH2 0x154B JUMPI PUSH1 0x2 DUP6 ADD SLOAD PUSH2 0x154B SWAP1 PUSH1 0x1 PUSH1 0x1 PUSH1 0xA0 SHL SUB PUSH32 0x0 DUP2 AND SWAP2 AND DUP9 PUSH2 0x2003 JUMP JUMPDEST DUP1 ISZERO PUSH2 0x158B JUMPI PUSH1 0x2 SLOAD PUSH2 0x158B SWAP1 PUSH1 0x1 PUSH1 0x1 PUSH1 0xA0 SHL SUB PUSH32 0x0 DUP2 AND SWAP2 AND DUP4 PUSH2 0x2003 JUMP JUMPDEST PUSH1 0x6 DUP6 ADD DUP1 SLOAD PUSH2 0xFF00 NOT AND SWAP1 SSTORE PUSH1 0x40 DUP1 MLOAD DUP4 DUP2 MSTORE PUSH1 0x20 DUP2 ADD DUP9 SWAP1 MSTORE SWAP1 DUP2 ADD DUP3 SWAP1 MSTORE DUP9 SWAP1 PUSH32 0x43C6FE16C1E88A9B3BCEAF30A2AE3D7E9AD9533F87698EBB2B628263771AE0E6 SWAP1 PUSH1 0x60 ADD PUSH1 0x40 MLOAD DUP1 SWAP2 SUB SWAP1 LOG2 POP POP POP POP POP PUSH2 0x15E9 PUSH1 0x1 DUP1 SSTORE JUMP JUMPDEST POP POP POP JUMP JUMPDEST PUSH2 0x15F6 PUSH2 0x2033 JUMP JUMPDEST PUSH2 0x1600 PUSH1 0x0 PUSH2 0x2169 JUMP JUMPDEST JUMP JUMPDEST PUSH2 0x160A PUSH2 0x2033 JUMP JUMPDEST PUSH1 0x1 PUSH1 0x1 PUSH1 0xA0 SHL SUB DUP2 AND PUSH2 0x164E JUMPI PUSH1 0x40 MLOAD PUSH3 0x461BCD PUSH1 0xE5 SHL DUP2 MSTORE PUSH1 0x20 PUSH1 0x4 DUP3 ADD MSTORE PUSH1 0xB PUSH1 0x24 DUP3 ADD MSTORE PUSH11 0x5A65726F41646472657373 PUSH1 0xA8 SHL PUSH1 0x44 DUP3 ADD MSTORE PUSH1 0x64 ADD PUSH2 0x923 JUMP JUMPDEST PUSH1 0x3 DUP1 SLOAD PUSH1 0x1 PUSH1 0x1 PUSH1 0xA0 SHL SUB NOT AND PUSH1 0x1 PUSH1 0x1 PUSH1 0xA0 SHL SUB SWAP3 SWAP1 SWAP3 AND SWAP2 SWAP1 SWAP2 OR SWAP1 SSTORE JUMP JUMPDEST PUSH1 0x0 DUP2 PUSH2 0x1690 JUMPI PUSH1 0x40 MLOAD PUSH4 0x50DD03F7 PUSH1 0xE1 SHL DUP2 MSTORE PUSH1 0x4 ADD PUSH1 0x40 MLOAD DUP1 SWAP2 SUB SWAP1 REVERT JUMPDEST PUSH1 0x0 PUSH1 0x4 PUSH1 0x0 DUP2 SLOAD PUSH2 0x16A1 SWAP1 PUSH2 0x281E JUMP JUMPDEST SWAP2 DUP3 SWAP1 SSTORE POP PUSH1 0x40 DUP1 MLOAD PUSH1 0x80 DUP2 ADD DUP3 MSTORE DUP3 DUP2 MSTORE CALLER PUSH1 0x20 DUP1 DUP4 ADD DUP3 DUP2 MSTORE DUP4 DUP6 ADD DUP10 DUP2 MSTORE PUSH1 0x1 PUSH1 0x60 DUP7 ADD DUP2 DUP2 MSTORE PUSH1 0x0 DUP10 DUP2 MSTORE PUSH1 0x8 DUP7 MSTORE DUP9 SWAP1 KECCAK256 SWAP7 MLOAD DUP8 SSTORE SWAP3 MLOAD SWAP1 DUP7 ADD DUP1 SLOAD PUSH1 0x1 PUSH1 0x1 PUSH1 0xA0 SHL SUB NOT AND PUSH1 0x1 PUSH1 0x1 PUSH1 0xA0 SHL SUB SWAP1 SWAP3 AND SWAP2 SWAP1 SWAP2 OR SWAP1 SSTORE MLOAD PUSH1 0x2 DUP6 ADD SSTORE MLOAD PUSH1 0x3 SWAP1 SWAP4 ADD DUP1 SLOAD PUSH1 0xFF NOT AND SWAP4 ISZERO ISZERO SWAP4 SWAP1 SWAP4 OR SWAP1 SWAP3 SSTORE SWAP2 MLOAD DUP7 DUP2 MSTORE SWAP3 SWAP4 POP SWAP1 SWAP2 DUP4 SWAP2 PUSH32 0x6C46EB6BA6A1B1A0CB085158B0B8B1BCB23F05A9F188C3B06D334C7721BCEA0B SWAP2 ADD PUSH1 0x40 MLOAD DUP1 SWAP2 SUB SWAP1 LOG3 SWAP3 SWAP2 POP POP JUMP JUMPDEST PUSH1 0x0 DUP2 DUP2 MSTORE PUSH1 0x9 PUSH1 0x20 SWAP1 DUP2 MSTORE PUSH1 0x40 DUP1 DUP4 KECCAK256 PUSH1 0x1 DUP1 DUP3 ADD SLOAD DUP6 MSTORE PUSH1 0x8 DUP5 MSTORE SWAP4 DUP3 SWAP1 KECCAK256 DUP3 MLOAD PUSH1 0x80 DUP2 ADD DUP5 MSTORE DUP2 SLOAD DUP2 MSTORE SWAP5 DUP2 ADD SLOAD PUSH1 0x1 PUSH1 0x1 PUSH1 0xA0 SHL SUB SWAP1 DUP2 AND SWAP5 DUP7 ADD SWAP5 SWAP1 SWAP5 MSTORE PUSH1 0x2 DUP1 DUP3 ADD SLOAD SWAP4 DUP7 ADD SWAP4 SWAP1 SWAP4 MSTORE PUSH1 0x3 ADD SLOAD PUSH1 0xFF AND ISZERO ISZERO PUSH1 0x60 DUP6 ADD MSTORE SWAP1 DUP2 ADD SLOAD SWAP1 SWAP3 SWAP2 AND CALLER EQ DUP1 ISZERO SWAP1 PUSH2 0x17E1 JUMPI POP DUP1 PUSH1 0x20 ADD MLOAD PUSH1 0x1 PUSH1 0x1 PUSH1 0xA0 SHL SUB AND CALLER PUSH1 0x1 PUSH1 0x1 PUSH1 0xA0 SHL SUB AND EQ ISZERO JUMPDEST ISZERO PUSH2 0x17FF JUMPI PUSH1 0x40 MLOAD PUSH4 0x50DD03F7 PUSH1 0xE1 SHL DUP2 MSTORE PUSH1 0x4 ADD PUSH1 0x40 MLOAD DUP1 SWAP2 SUB SWAP1 REVERT JUMPDEST PUSH1 0x6 DUP3 ADD SLOAD PUSH1 0xFF AND ISZERO PUSH2 0x1825 JUMPI PUSH1 0x40 MLOAD PUSH4 0x54E37625 PUSH1 0xE0 SHL DUP2 MSTORE PUSH1 0x4 ADD PUSH1 0x40 MLOAD DUP1 SWAP2 SUB SWAP1 REVERT JUMPDEST PUSH1 0x6 DUP3 ADD DUP1 SLOAD PUSH2 0xFF00 NOT AND PUSH2 0x100 OR SWAP1 SSTORE PUSH1 0x40 MLOAD CALLER DUP2 MSTORE DUP4 SWAP1 PUSH32 0xCDE8E21E97A7F6EC4BBF0EE44450212E0BA73BE8FDFBFB2B155E861D86756BAC SWAP1 PUSH1 0x20 ADD PUSH1 0x40 MLOAD DUP1 SWAP2 SUB SWAP1 LOG2 POP POP POP JUMP JUMPDEST PUSH1 0x0 DUP1 PUSH1 0x0 PUSH1 0x60 PUSH1 0x0 DUP1 PUSH1 0x6 PUSH1 0x0 DUP10 DUP2 MSTORE PUSH1 0x20 ADD SWAP1 DUP2 MSTORE PUSH1 0x20 ADD PUSH1 0x0 KECCAK256 DUP8 DUP2 SLOAD DUP2 LT PUSH2 0x189E JUMPI PUSH2 0x189E PUSH2 0x289A JUMP JUMPDEST PUSH1 0x0 SWAP2 DUP3 MSTORE PUSH1 0x20 SWAP1 SWAP2 KECCAK256 PUSH1 0x4 SWAP1 SWAP2 MUL ADD DUP1 SLOAD PUSH1 0x1 DUP3 ADD SLOAD PUSH1 0x3 DUP4 ADD SLOAD PUSH1 0x2 DUP5 ADD DUP1 SLOAD SWAP5 SWAP6 POP PUSH1 0x1 PUSH1 0x1 PUSH1 0xA0 SHL SUB DUP5 AND SWAP5 PUSH1 0x1 PUSH1 0xA0 SHL SWAP1 SWAP5 DIV PUSH1 0xFF AND SWAP4 SWAP1 SWAP2 SWAP1 DUP3 SWAP1 PUSH2 0x18E8 SWAP1 PUSH2 0x28B0 JUMP JUMPDEST DUP1 PUSH1 0x1F ADD PUSH1 0x20 DUP1 SWAP2 DIV MUL PUSH1 0x20 ADD PUSH1 0x40 MLOAD SWAP1 DUP2 ADD PUSH1 0x40 MSTORE DUP1 SWAP3 SWAP2 SWAP1 DUP2 DUP2 MSTORE PUSH1 0x20 ADD DUP3 DUP1 SLOAD PUSH2 0x1914 SWAP1 PUSH2 0x28B0 JUMP JUMPDEST DUP1 ISZERO PUSH2 0x1961 JUMPI DUP1 PUSH1 0x1F LT PUSH2 0x1936 JUMPI PUSH2 0x100 DUP1 DUP4 SLOAD DIV MUL DUP4 MSTORE SWAP2 PUSH1 0x20 ADD SWAP2 PUSH2 0x1961 JUMP JUMPDEST DUP3 ADD SWAP2 SWAP1 PUSH1 0x0 MSTORE PUSH1 0x20 PUSH1 0x0 KECCAK256 SWAP1 JUMPDEST DUP2 SLOAD DUP2 MSTORE SWAP1 PUSH1 0x1 ADD SWAP1 PUSH1 0x20 ADD DUP1 DUP4 GT PUSH2 0x1944 JUMPI DUP3 SWAP1 SUB PUSH1 0x1F AND DUP3 ADD SWAP2 JUMPDEST POP POP POP POP POP SWAP2 POP SWAP6 POP SWAP6 POP SWAP6 POP SWAP6 POP SWAP6 POP POP SWAP3 SWAP6 POP SWAP3 SWAP6 SWAP1 SWAP4 POP JUMP JUMPDEST PUSH1 0x0 PUSH1 0xFF DUP3 AND ISZERO DUP1 PUSH2 0x1992 JUMPI POP PUSH1 0x6 DUP3 PUSH1 0xFF AND GT JUMPDEST ISZERO PUSH2 0x199F JUMPI POP PUSH1 0x0 PUSH2 0x1B47 JUMP JUMPDEST PUSH1 0x0 DUP5 DUP2 MSTORE PUSH1 0x8 PUSH1 0x20 SWAP1 DUP2 MSTORE PUSH1 0x40 SWAP2 DUP3 SWAP1 KECCAK256 DUP3 MLOAD PUSH1 0x80 DUP2 ADD DUP5 MSTORE DUP2 SLOAD DUP1 DUP3 MSTORE PUSH1 0x1 DUP4 ADD SLOAD PUSH1 0x1 PUSH1 0x1 PUSH1 0xA0 SHL SUB AND SWAP4 DUP3 ADD SWAP4 SWAP1 SWAP4 MSTORE PUSH1 0x2 DUP3 ADD SLOAD SWAP4 DUP2 ADD SWAP4 SWAP1 SWAP4 MSTORE PUSH1 0x3 ADD SLOAD PUSH1 0xFF AND ISZERO ISZERO PUSH1 0x60 DUP4 ADD MSTORE ISZERO DUP1 PUSH2 0x19FB JUMPI POP DUP1 PUSH1 0x60 ADD MLOAD ISZERO JUMPDEST ISZERO PUSH2 0x1A0A JUMPI PUSH1 0x0 SWAP2 POP POP PUSH2 0x1B47 JUMP JUMPDEST PUSH1 0x1 JUMPDEST PUSH1 0x5 SLOAD DUP2 GT PUSH2 0x1B40 JUMPI PUSH1 0x0 DUP2 DUP2 MSTORE PUSH1 0x9 PUSH1 0x20 SWAP1 DUP2 MSTORE PUSH1 0x40 SWAP2 DUP3 SWAP1 KECCAK256 DUP3 MLOAD PUSH2 0x140 DUP2 ADD DUP5 MSTORE DUP2 SLOAD DUP2 MSTORE PUSH1 0x1 DUP3 ADD SLOAD SWAP3 DUP2 ADD DUP4 SWAP1 MSTORE PUSH1 0x2 DUP3 ADD SLOAD PUSH1 0x1 PUSH1 0x1 PUSH1 0xA0 SHL SUB AND SWAP4 DUP2 ADD SWAP4 SWAP1 SWAP4 MSTORE PUSH1 0x3 DUP2 ADD SLOAD PUSH1 0x60 DUP5 ADD MSTORE PUSH1 0x4 DUP2 ADD SLOAD PUSH1 0xFF DUP1 DUP3 AND PUSH1 0x80 DUP7 ADD MSTORE PUSH2 0x100 SWAP2 DUP3 SWAP1 DIV DUP2 AND PUSH1 0xA0 DUP7 ADD MSTORE PUSH1 0x5 DUP4 ADD SLOAD PUSH1 0xC0 DUP7 ADD MSTORE PUSH1 0x6 DUP4 ADD SLOAD DUP1 DUP3 AND ISZERO ISZERO PUSH1 0xE0 DUP8 ADD MSTORE DUP3 SWAP1 DIV AND ISZERO ISZERO SWAP1 DUP5 ADD MSTORE PUSH1 0x7 ADD SLOAD PUSH2 0x120 DUP4 ADD MSTORE DUP8 EQ DUP1 ISZERO PUSH2 0x1AB9 JUMPI POP DUP1 PUSH1 0xE0 ADD MLOAD ISZERO JUMPDEST ISZERO PUSH2 0x1B2D JUMPI PUSH1 0x0 PUSH3 0x278D00 DUP3 PUSH1 0x80 ADD MLOAD PUSH1 0xFF AND PUSH2 0x1AD6 SWAP2 SWAP1 PUSH2 0x2791 JUMP JUMPDEST DUP3 PUSH1 0x60 ADD MLOAD PUSH2 0x1AE5 SWAP2 SWAP1 PUSH2 0x2806 JUMP JUMPDEST SWAP1 POP PUSH1 0x0 PUSH2 0x1AF9 PUSH3 0x278D00 PUSH1 0xFF DUP10 AND PUSH2 0x2791 JUMP JUMPDEST PUSH2 0x1B03 SWAP1 DUP10 PUSH2 0x2806 JUMP JUMPDEST SWAP1 POP DUP3 PUSH1 0x60 ADD MLOAD DUP2 GT ISZERO DUP1 PUSH2 0x1B18 JUMPI POP DUP2 DUP9 LT ISZERO JUMPDEST PUSH2 0x1B2A JUMPI PUSH1 0x0 SWAP6 POP POP POP POP POP POP PUSH2 0x1B47 JUMP JUMPDEST POP POP JUMPDEST POP DUP1 PUSH2 0x1B38 DUP2 PUSH2 0x281E JUMP JUMPDEST SWAP2 POP POP PUSH2 0x1A0D JUMP JUMPDEST POP PUSH1 0x1 SWAP2 POP POP JUMPDEST SWAP4 SWAP3 POP POP POP JUMP JUMPDEST PUSH1 0x6 PUSH1 0x20 MSTORE DUP2 PUSH1 0x0 MSTORE PUSH1 0x40 PUSH1 0x0 KECCAK256 DUP2 DUP2 SLOAD DUP2 LT PUSH2 0x1B6A JUMPI PUSH1 0x0 DUP1 REVERT JUMPDEST PUSH1 0x0 SWAP2 DUP3 MSTORE PUSH1 0x20 SWAP1 SWAP2 KECCAK256 PUSH1 0x4 SWAP1 SWAP2 MUL ADD DUP1 SLOAD PUSH1 0x1 DUP3 ADD SLOAD PUSH1 0x2 DUP4 ADD DUP1 SLOAD PUSH1 0x1 PUSH1 0x1 PUSH1 0xA0 SHL SUB DUP5 AND SWAP7 POP PUSH1 0x1 PUSH1 0xA0 SHL SWAP1 SWAP4 DIV PUSH1 0xFF AND SWAP5 POP SWAP1 SWAP3 SWAP2 PUSH2 0x1BAC SWAP1 PUSH2 0x28B0 JUMP JUMPDEST DUP1 PUSH1 0x1F ADD PUSH1 0x20 DUP1 SWAP2 DIV MUL PUSH1 0x20 ADD PUSH1 0x40 MLOAD SWAP1 DUP2 ADD PUSH1 0x40 MSTORE DUP1 SWAP3 SWAP2 SWAP1 DUP2 DUP2 MSTORE PUSH1 0x20 ADD DUP3 DUP1 SLOAD PUSH2 0x1BD8 SWAP1 PUSH2 0x28B0 JUMP JUMPDEST DUP1 ISZERO PUSH2 0x1C25 JUMPI DUP1 PUSH1 0x1F LT PUSH2 0x1BFA JUMPI PUSH2 0x100 DUP1 DUP4 SLOAD DIV MUL DUP4 MSTORE SWAP2 PUSH1 0x20 ADD SWAP2 PUSH2 0x1C25 JUMP JUMPDEST DUP3 ADD SWAP2 SWAP1 PUSH1 0x0 MSTORE PUSH1 0x20 PUSH1 0x0 KECCAK256 SWAP1 JUMPDEST DUP2 SLOAD DUP2 MSTORE SWAP1 PUSH1 0x1 ADD SWAP1 PUSH1 0x20 ADD DUP1 DUP4 GT PUSH2 0x1C08 JUMPI DUP3 SWAP1 SUB PUSH1 0x1F AND DUP3 ADD SWAP2 JUMPDEST POP POP POP POP POP SWAP1 DUP1 PUSH1 0x3 ADD SLOAD SWAP1 POP DUP6 JUMP JUMPDEST PUSH1 0x0 DUP4 DUP2 MSTORE PUSH1 0x8 PUSH1 0x20 MSTORE PUSH1 0x40 SWAP1 KECCAK256 PUSH1 0x1 DUP2 ADD SLOAD PUSH1 0x1 PUSH1 0x1 PUSH1 0xA0 SHL SUB AND CALLER EQ PUSH2 0x1C70 JUMPI PUSH1 0x40 MLOAD PUSH4 0x8FF4F0C9 PUSH1 0xE0 SHL DUP2 MSTORE PUSH1 0x4 ADD PUSH1 0x40 MLOAD DUP1 SWAP2 SUB SWAP1 REVERT JUMPDEST DUP3 PUSH2 0x1C8E JUMPI PUSH1 0x40 MLOAD PUSH4 0x50DD03F7 PUSH1 0xE1 SHL DUP2 MSTORE PUSH1 0x4 ADD PUSH1 0x40 MLOAD DUP1 SWAP2 SUB SWAP1 REVERT JUMPDEST PUSH1 0x2 DUP2 ADD DUP4 SWAP1 SSTORE PUSH1 0x3 DUP2 ADD DUP1 SLOAD PUSH1 0xFF NOT AND DUP4 ISZERO ISZERO SWAP1 DUP2 OR SWAP1 SWAP2 SSTORE PUSH1 0x40 DUP1 MLOAD DUP6 DUP2 MSTORE PUSH1 0x20 DUP2 ADD SWAP3 SWAP1 SWAP3 MSTORE DUP6 SWAP2 PUSH32 0x31ACEB5C222C3C2ACF0BFDD74237844684C71194BDB3442F13492D1BFCEB950B SWAP2 ADD PUSH1 0x40 MLOAD DUP1 SWAP2 SUB SWAP1 LOG2 POP POP POP POP JUMP JUMPDEST PUSH2 0x1CF2 PUSH2 0x1E94 JUMP JUMPDEST DUP2 ISZERO DUP1 PUSH2 0x1CFD JUMPI POP DUP1 ISZERO JUMPDEST ISZERO PUSH2 0x1D1B JUMPI PUSH1 0x40 MLOAD PUSH4 0x50DD03F7 PUSH1 0xE1 SHL DUP2 MSTORE PUSH1 0x4 ADD PUSH1 0x40 MLOAD DUP1 SWAP2 SUB SWAP1 REVERT JUMPDEST PUSH1 0x40 DUP1 MLOAD PUSH1 0x60 DUP2 ADD DUP3 MSTORE CALLER DUP1 DUP3 MSTORE PUSH1 0x20 DUP1 DUP4 ADD DUP6 DUP2 MSTORE TIMESTAMP DUP5 DUP7 ADD SWAP1 DUP2 MSTORE PUSH1 0x0 DUP9 DUP2 MSTORE PUSH1 0x7 DUP5 MSTORE DUP7 SWAP1 KECCAK256 SWAP5 MLOAD DUP6 SLOAD PUSH1 0x1 PUSH1 0x1 PUSH1 0xA0 SHL SUB NOT AND PUSH1 0x1 PUSH1 0x1 PUSH1 0xA0 SHL SUB SWAP1 SWAP2 AND OR DUP6 SSTORE SWAP1 MLOAD PUSH1 0x1 DUP6 ADD SSTORE MLOAD PUSH1 0x2 SWAP1 SWAP4 ADD SWAP3 SWAP1 SWAP3 SSTORE SWAP2 MLOAD DUP4 DUP2 MSTORE DUP5 SWAP2 PUSH32 0x7E5AF458043E82233AA733596298771E3DFC3B42B42AC6CCF9787E665DFFB976 SWAP2 ADD PUSH1 0x40 MLOAD DUP1 SWAP2 SUB SWAP1 LOG3 PUSH2 0x1DAC PUSH1 0x1 DUP1 SSTORE JUMP JUMPDEST POP POP JUMP JUMPDEST PUSH2 0x1DB8 PUSH2 0x2033 JUMP JUMPDEST PUSH1 0x1 PUSH1 0x1 PUSH1 0xA0 SHL SUB DUP2 AND PUSH2 0x1DFC JUMPI PUSH1 0x40 MLOAD PUSH3 0x461BCD PUSH1 0xE5 SHL DUP2 MSTORE PUSH1 0x20 PUSH1 0x4 DUP3 ADD MSTORE PUSH1 0xB PUSH1 0x24 DUP3 ADD MSTORE PUSH11 0x5A65726F41646472657373 PUSH1 0xA8 SHL PUSH1 0x44 DUP3 ADD MSTORE PUSH1 0x64 ADD PUSH2 0x923 JUMP JUMPDEST PUSH1 0x2 DUP1 SLOAD PUSH1 0x1 PUSH1 0x1 PUSH1 0xA0 SHL SUB NOT AND PUSH1 0x1 PUSH1 0x1 PUSH1 0xA0 SHL SUB SWAP3 SWAP1 SWAP3 AND SWAP2 SWAP1 SWAP2 OR SWAP1 SSTORE JUMP JUMPDEST PUSH2 0x1E26 PUSH2 0x2033 JUMP JUMPDEST PUSH1 0x1 PUSH1 0x1 PUSH1 0xA0 SHL SUB DUP2 AND PUSH2 0x1E8B JUMPI PUSH1 0x40 MLOAD PUSH3 0x461BCD PUSH1 0xE5 SHL DUP2 MSTORE PUSH1 0x20 PUSH1 0x4 DUP3 ADD MSTORE PUSH1 0x26 PUSH1 0x24 DUP3 ADD MSTORE PUSH32 0x4F776E61626C653A206E6577206F776E657220697320746865207A65726F2061 PUSH1 0x44 DUP3 ADD MSTORE PUSH6 0x646472657373 PUSH1 0xD0 SHL PUSH1 0x64 DUP3 ADD MSTORE PUSH1 0x84 ADD PUSH2 0x923 JUMP JUMPDEST PUSH2 0x108E DUP2 PUSH2 0x2169 JUMP JUMPDEST PUSH1 0x2 PUSH1 0x1 SLOAD EQ ISZERO PUSH2 0x1EE7 JUMPI PUSH1 0x40 MLOAD PUSH3 0x461BCD PUSH1 0xE5 SHL DUP2 MSTORE PUSH1 0x20 PUSH1 0x4 DUP3 ADD MSTORE PUSH1 0x1F PUSH1 0x24 DUP3 ADD MSTORE PUSH32 0x5265656E7472616E637947756172643A207265656E7472616E742063616C6C00 PUSH1 0x44 DUP3 ADD MSTORE PUSH1 0x64 ADD PUSH2 0x923 JUMP JUMPDEST PUSH1 0x2 PUSH1 0x1 SSTORE JUMP JUMPDEST PUSH1 0x64 PUSH32 0x0 PUSH1 0xFF AND PUSH1 0xA EXP SWAP2 SWAP1 SWAP2 MUL DIV SWAP1 JUMP JUMPDEST PUSH1 0x40 MLOAD PUSH1 0x1 PUSH1 0x1 PUSH1 0xA0 SHL SUB DUP1 DUP6 AND PUSH1 0x24 DUP4 ADD MSTORE DUP4 AND PUSH1 0x44 DUP3 ADD MSTORE PUSH1 0x64 DUP2 ADD DUP3 SWAP1 MSTORE PUSH2 0x889 SWAP1 DUP6 SWAP1 PUSH4 0x23B872DD PUSH1 0xE0 SHL SWAP1 PUSH1 0x84 ADD JUMPDEST PUSH1 0x40 DUP1 MLOAD PUSH1 0x1F NOT DUP2 DUP5 SUB ADD DUP2 MSTORE SWAP2 SWAP1 MSTORE PUSH1 0x20 DUP2 ADD DUP1 MLOAD PUSH1 0x1 PUSH1 0x1 PUSH1 0xE0 SHL SUB AND PUSH1 0x1 PUSH1 0x1 PUSH1 0xE0 SHL SUB NOT SWAP1 SWAP4 AND SWAP3 SWAP1 SWAP3 OR SWAP1 SWAP2 MSTORE PUSH2 0x21B9 JUMP JUMPDEST PUSH1 0x0 DUP3 TIMESTAMP LT ISZERO PUSH2 0x1F9C JUMPI POP PUSH1 0x0 PUSH2 0x1FCE JUMP JUMPDEST PUSH1 0x0 PUSH3 0x278D00 PUSH2 0x1FAC DUP6 TIMESTAMP PUSH2 0x28EB JUMP JUMPDEST PUSH2 0x1FB6 SWAP2 SWAP1 PUSH2 0x2902 JUMP JUMPDEST SWAP1 POP DUP1 PUSH1 0xFF DUP1 DUP6 AND SWAP1 DUP3 AND GT ISZERO PUSH2 0x1FCA JUMPI POP DUP3 JUMPDEST SWAP2 POP POP JUMPDEST SWAP3 SWAP2 POP POP JUMP JUMPDEST PUSH1 0x0 DUP1 PUSH2 0x2710 PUSH2 0x1FE6 PUSH2 0x12C DUP6 PUSH2 0x2791 JUMP JUMPDEST PUSH2 0x1FF0 SWAP2 SWAP1 PUSH2 0x2902 JUMP JUMPDEST SWAP1 POP PUSH2 0x1FFC DUP2 DUP5 PUSH2 0x28EB JUMP JUMPDEST SWAP2 POP SWAP2 POP SWAP2 JUMP JUMPDEST PUSH1 0x40 MLOAD PUSH1 0x1 PUSH1 0x1 PUSH1 0xA0 SHL SUB DUP4 AND PUSH1 0x24 DUP3 ADD MSTORE PUSH1 0x44 DUP2 ADD DUP3 SWAP1 MSTORE PUSH2 0x15E9 SWAP1 DUP5 SWAP1 PUSH4 0xA9059CBB PUSH1 0xE0 SHL SWAP1 PUSH1 0x64 ADD PUSH2 0x1F53 JUMP JUMPDEST PUSH1 0x0 SLOAD PUSH1 0x1 PUSH1 0x1 PUSH1 0xA0 SHL SUB AND CALLER EQ PUSH2 0x1600 JUMPI PUSH1 0x40 MLOAD PUSH3 0x461BCD PUSH1 0xE5 SHL DUP2 MSTORE PUSH1 0x20 PUSH1 0x4 DUP3 ADD DUP2 SWAP1 MSTORE PUSH1 0x24 DUP3 ADD MSTORE PUSH32 0x4F776E61626C653A2063616C6C6572206973206E6F7420746865206F776E6572 PUSH1 0x44 DUP3 ADD MSTORE PUSH1 0x64 ADD PUSH2 0x923 JUMP JUMPDEST PUSH1 0x0 DUP1 PUSH2 0x209D DUP4 PUSH1 0x40 ADD MLOAD PUSH2 0x1EEE JUMP JUMPDEST SWAP1 POP PUSH1 0x0 DUP5 PUSH1 0x80 ADD MLOAD PUSH1 0xFF AND DUP3 PUSH2 0x20B4 SWAP2 SWAP1 PUSH2 0x2791 JUMP JUMPDEST SWAP1 POP PUSH1 0x0 DUP6 PUSH1 0xA0 ADD MLOAD PUSH1 0xFF AND DUP4 PUSH2 0x20CB SWAP2 SWAP1 PUSH2 0x2791 JUMP JUMPDEST SWAP1 POP PUSH1 0x0 DUP1 PUSH2 0x20D9 DUP4 PUSH2 0x1FD4 JUMP JUMPDEST SWAP1 SWAP3 POP SWAP1 POP PUSH1 0x0 PUSH2 0x20EA DUP3 DUP5 PUSH2 0x2806 JUMP JUMPDEST SWAP1 POP DUP9 PUSH1 0xE0 ADD MLOAD ISZERO PUSH2 0x213C JUMPI PUSH1 0x0 PUSH2 0x210A DUP11 PUSH1 0x60 ADD MLOAD DUP12 PUSH1 0x80 ADD MLOAD PUSH2 0x1F8A JUMP JUMPDEST SWAP1 POP PUSH1 0x0 DUP2 DUP12 PUSH1 0x80 ADD MLOAD PUSH2 0x211E SWAP2 SWAP1 PUSH2 0x2877 JUMP JUMPDEST SWAP1 POP PUSH2 0x212D PUSH1 0xFF DUP3 AND DUP10 PUSH2 0x2791 JUMP JUMPDEST PUSH2 0x2137 SWAP1 DUP5 PUSH2 0x2806 JUMP JUMPDEST SWAP3 POP POP POP JUMPDEST DUP5 DUP2 LT PUSH2 0x2152 JUMPI PUSH1 0x0 SWAP7 POP POP POP POP POP POP POP PUSH2 0x1FCE JUMP JUMPDEST PUSH2 0x215C DUP2 DUP7 PUSH2 0x28EB JUMP JUMPDEST SWAP10 SWAP9 POP POP POP POP POP POP POP POP POP JUMP JUMPDEST PUSH1 0x0 DUP1 SLOAD PUSH1 0x1 PUSH1 0x1 PUSH1 0xA0 SHL SUB DUP4 DUP2 AND PUSH1 0x1 PUSH1 0x1 PUSH1 0xA0 SHL SUB NOT DUP4 AND DUP2 OR DUP5 SSTORE PUSH1 0x40 MLOAD SWAP2 SWAP1 SWAP3 AND SWAP3 DUP4 SWAP2 PUSH32 0x8BE0079C531659141344CD1FD0A4F28419497F9722A3DAAFE3B4186F6B6457E0 SWAP2 SWAP1 LOG3 POP POP JUMP JUMPDEST PUSH1 0x0 PUSH2 0x220E DUP3 PUSH1 0x40 MLOAD DUP1 PUSH1 0x40 ADD PUSH1 0x40 MSTORE DUP1 PUSH1 0x20 DUP2 MSTORE PUSH1 0x20 ADD PUSH32 0x5361666545524332303A206C6F772D6C6576656C2063616C6C206661696C6564 DUP2 MSTORE POP DUP6 PUSH1 0x1 PUSH1 0x1 PUSH1 0xA0 SHL SUB AND PUSH2 0x228E SWAP1 SWAP3 SWAP2 SWAP1 PUSH4 0xFFFFFFFF AND JUMP JUMPDEST SWAP1 POP DUP1 MLOAD PUSH1 0x0 EQ DUP1 PUSH2 0x222F JUMPI POP DUP1 DUP1 PUSH1 0x20 ADD SWAP1 MLOAD DUP2 ADD SWAP1 PUSH2 0x222F SWAP2 SWAP1 PUSH2 0x2924 JUMP JUMPDEST PUSH2 0x15E9 JUMPI PUSH1 0x40 MLOAD PUSH3 0x461BCD PUSH1 0xE5 SHL DUP2 MSTORE PUSH1 0x20 PUSH1 0x4 DUP3 ADD MSTORE PUSH1 0x2A PUSH1 0x24 DUP3 ADD MSTORE PUSH32 0x5361666545524332303A204552433230206F7065726174696F6E20646964206E PUSH1 0x44 DUP3 ADD MSTORE PUSH10 0x1BDD081CDD58D8D95959 PUSH1 0xB2 SHL PUSH1 0x64 DUP3 ADD MSTORE PUSH1 0x84 ADD PUSH2 0x923 JUMP JUMPDEST PUSH1 0x60 PUSH2 0x229D DUP5 DUP5 PUSH1 0x0 DUP6 PUSH2 0x22A5 JUMP JUMPDEST SWAP5 SWAP4 POP POP POP POP JUMP JUMPDEST PUSH1 0x60 DUP3 SELFBALANCE LT ISZERO PUSH2 0x2306 JUMPI PUSH1 0x40 MLOAD PUSH3 0x461BCD PUSH1 0xE5 SHL DUP2 MSTORE PUSH1 0x20 PUSH1 0x4 DUP3 ADD MSTORE PUSH1 0x26 PUSH1 0x24 DUP3 ADD MSTORE PUSH32 0x416464726573733A20696E73756666696369656E742062616C616E636520666F PUSH1 0x44 DUP3 ADD MSTORE PUSH6 0x1C8818D85B1B PUSH1 0xD2 SHL PUSH1 0x64 DUP3 ADD MSTORE PUSH1 0x84 ADD PUSH2 0x923 JUMP JUMPDEST PUSH1 0x0 DUP1 DUP7 PUSH1 0x1 PUSH1 0x1 PUSH1 0xA0 SHL SUB AND DUP6 DUP8 PUSH1 0x40 MLOAD PUSH2 0x2322 SWAP2 SWAP1 PUSH2 0x2941 JUMP JUMPDEST PUSH1 0x0 PUSH1 0x40 MLOAD DUP1 DUP4 SUB DUP2 DUP6 DUP8 GAS CALL SWAP3 POP POP POP RETURNDATASIZE DUP1 PUSH1 0x0 DUP2 EQ PUSH2 0x235F JUMPI PUSH1 0x40 MLOAD SWAP2 POP PUSH1 0x1F NOT PUSH1 0x3F RETURNDATASIZE ADD AND DUP3 ADD PUSH1 0x40 MSTORE RETURNDATASIZE DUP3 MSTORE RETURNDATASIZE PUSH1 0x0 PUSH1 0x20 DUP5 ADD RETURNDATACOPY PUSH2 0x2364 JUMP JUMPDEST PUSH1 0x60 SWAP2 POP JUMPDEST POP SWAP2 POP SWAP2 POP PUSH2 0x2375 DUP8 DUP4 DUP4 DUP8 PUSH2 0x2380 JUMP JUMPDEST SWAP8 SWAP7 POP POP POP POP POP POP POP JUMP JUMPDEST PUSH1 0x60 DUP4 ISZERO PUSH2 0x23EC JUMPI DUP3 MLOAD PUSH2 0x23E5 JUMPI PUSH1 0x1 PUSH1 0x1 PUSH1 0xA0 SHL SUB DUP6 AND EXTCODESIZE PUSH2 0x23E5 JUMPI PUSH1 0x40 MLOAD PUSH3 0x461BCD PUSH1 0xE5 SHL DUP2 MSTORE PUSH1 0x20 PUSH1 0x4 DUP3 ADD MSTORE PUSH1 0x1D PUSH1 0x24 DUP3 ADD MSTORE PUSH32 0x416464726573733A2063616C6C20746F206E6F6E2D636F6E7472616374000000 PUSH1 0x44 DUP3 ADD MSTORE PUSH1 0x64 ADD PUSH2 0x923 JUMP JUMPDEST POP DUP2 PUSH2 0x229D JUMP JUMPDEST PUSH2 0x229D DUP4 DUP4 DUP2 MLOAD ISZERO PUSH2 0x2401 JUMPI DUP2 MLOAD DUP1 DUP4 PUSH1 0x20 ADD REVERT JUMPDEST DUP1 PUSH1 0x40 MLOAD PUSH3 0x461BCD PUSH1 0xE5 SHL DUP2 MSTORE PUSH1 0x4 ADD PUSH2 0x923 SWAP2 SWAP1 PUSH2 0x295D JUMP JUMPDEST DUP3 DUP1 SLOAD PUSH2 0x2427 SWAP1 PUSH2 0x28B0 JUMP JUMPDEST SWAP1 PUSH1 0x0 MSTORE PUSH1 0x20 PUSH1 0x0 KECCAK256 SWAP1 PUSH1 0x1F ADD PUSH1 0x20 SWAP1 DIV DUP2 ADD SWAP3 DUP3 PUSH2 0x2449 JUMPI PUSH1 0x0 DUP6 SSTORE PUSH2 0x248F JUMP JUMPDEST DUP3 PUSH1 0x1F LT PUSH2 0x2462 JUMPI DUP1 MLOAD PUSH1 0xFF NOT AND DUP4 DUP1 ADD OR DUP6 SSTORE PUSH2 0x248F JUMP JUMPDEST DUP3 DUP1 ADD PUSH1 0x1 ADD DUP6 SSTORE DUP3 ISZERO PUSH2 0x248F JUMPI SWAP2 DUP3 ADD JUMPDEST DUP3 DUP2 GT ISZERO PUSH2 0x248F JUMPI DUP3 MLOAD DUP3 SSTORE SWAP2 PUSH1 0x20 ADD SWAP2 SWAP1 PUSH1 0x1 ADD SWAP1 PUSH2 0x2474 JUMP JUMPDEST POP PUSH2 0x249B SWAP3 SWAP2 POP PUSH2 0x249F JUMP JUMPDEST POP SWAP1 JUMP JUMPDEST JUMPDEST DUP1 DUP3 GT ISZERO PUSH2 0x249B JUMPI PUSH1 0x0 DUP2 SSTORE PUSH1 0x1 ADD PUSH2 0x24A0 JUMP JUMPDEST DUP1 CALLDATALOAD PUSH1 0xFF DUP2 AND DUP2 EQ PUSH2 0x24C5 JUMPI PUSH1 0x0 DUP1 REVERT JUMPDEST SWAP2 SWAP1 POP JUMP JUMPDEST PUSH1 0x0 DUP1 DUP4 PUSH1 0x1F DUP5 ADD SLT PUSH2 0x24DC JUMPI PUSH1 0x0 DUP1 REVERT JUMPDEST POP DUP2 CALLDATALOAD PUSH8 0xFFFFFFFFFFFFFFFF DUP2 GT ISZERO PUSH2 0x24F4 JUMPI PUSH1 0x0 DUP1 REVERT JUMPDEST PUSH1 0x20 DUP4 ADD SWAP2 POP DUP4 PUSH1 0x20 DUP3 DUP6 ADD ADD GT ISZERO PUSH2 0x250C JUMPI PUSH1 0x0 DUP1 REVERT JUMPDEST SWAP3 POP SWAP3 SWAP1 POP JUMP JUMPDEST PUSH1 0x0 DUP1 PUSH1 0x0 DUP1 PUSH1 0x60 DUP6 DUP8 SUB SLT ISZERO PUSH2 0x2529 JUMPI PUSH1 0x0 DUP1 REVERT JUMPDEST DUP5 CALLDATALOAD SWAP4 POP PUSH2 0x2539 PUSH1 0x20 DUP7 ADD PUSH2 0x24B4 JUMP JUMPDEST SWAP3 POP PUSH1 0x40 DUP6 ADD CALLDATALOAD PUSH8 0xFFFFFFFFFFFFFFFF DUP2 GT ISZERO PUSH2 0x2555 JUMPI PUSH1 0x0 DUP1 REVERT JUMPDEST PUSH2 0x2561 DUP8 DUP3 DUP9 ADD PUSH2 0x24CA JUMP JUMPDEST SWAP6 SWAP9 SWAP5 SWAP8 POP SWAP6 POP POP POP POP JUMP JUMPDEST PUSH1 0x0 PUSH1 0x20 DUP3 DUP5 SUB SLT ISZERO PUSH2 0x257F JUMPI PUSH1 0x0 DUP1 REVERT JUMPDEST POP CALLDATALOAD SWAP2 SWAP1 POP JUMP JUMPDEST PUSH1 0x0 DUP1 PUSH1 0x0 DUP1 PUSH1 0x0 PUSH1 0x80 DUP7 DUP9 SUB SLT ISZERO PUSH2 0x259E JUMPI PUSH1 0x0 DUP1 REVERT JUMPDEST DUP6 CALLDATALOAD SWAP5 POP PUSH1 0x20 DUP7 ADD CALLDATALOAD SWAP4 POP PUSH2 0x25B5 PUSH1 0x40 DUP8 ADD PUSH2 0x24B4 JUMP JUMPDEST SWAP3 POP PUSH1 0x60 DUP7 ADD CALLDATALOAD PUSH8 0xFFFFFFFFFFFFFFFF DUP2 GT ISZERO PUSH2 0x25D1 JUMPI PUSH1 0x0 DUP1 REVERT JUMPDEST PUSH2 0x25DD DUP9 DUP3 DUP10 ADD PUSH2 0x24CA JUMP JUMPDEST SWAP7 SWAP10 SWAP6 SWAP9 POP SWAP4 SWAP7 POP SWAP3 SWAP5 SWAP4 SWAP3 POP POP POP JUMP JUMPDEST PUSH1 0x0 DUP1 PUSH1 0x0 PUSH1 0x60 DUP5 DUP7 SUB SLT ISZERO PUSH2 0x2603 JUMPI PUSH1 0x0 DUP1 REVERT JUMPDEST POP POP DUP2 CALLDATALOAD SWAP4 PUSH1 0x20 DUP4 ADD CALLDATALOAD SWAP4 POP PUSH1 0x40 SWAP1 SWAP3 ADD CALLDATALOAD SWAP2 SWAP1 POP JUMP JUMPDEST PUSH1 0x0 PUSH1 0x20 DUP3 DUP5 SUB SLT ISZERO PUSH2 0x262C JUMPI PUSH1 0x0 DUP1 REVERT JUMPDEST DUP2 CALLDATALOAD PUSH1 0x1 PUSH1 0x1 PUSH1 0xA0 SHL SUB DUP2 AND DUP2 EQ PUSH2 0x1B47 JUMPI PUSH1 0x0 DUP1 REVERT JUMPDEST PUSH1 0x0 DUP1 PUSH1 0x40 DUP4 DUP6 SUB SLT ISZERO PUSH2 0x2656 JUMPI PUSH1 0x0 DUP1 REVERT JUMPDEST POP POP DUP1 CALLDATALOAD SWAP3 PUSH1 0x20 SWAP1 SWAP2 ADD CALLDATALOAD SWAP2 POP JUMP JUMPDEST PUSH1 0x0 JUMPDEST DUP4 DUP2 LT ISZERO PUSH2 0x2680 JUMPI DUP2 DUP2 ADD MLOAD DUP4 DUP3 ADD MSTORE PUSH1 0x20 ADD PUSH2 0x2668 JUMP JUMPDEST DUP4 DUP2 GT ISZERO PUSH2 0x889 JUMPI POP POP PUSH1 0x0 SWAP2 ADD MSTORE JUMP JUMPDEST PUSH1 0x0 DUP2 MLOAD DUP1 DUP5 MSTORE PUSH2 0x26A9 DUP2 PUSH1 0x20 DUP7 ADD PUSH1 0x20 DUP7 ADD PUSH2 0x2665 JUMP JUMPDEST PUSH1 0x1F ADD PUSH1 0x1F NOT AND SWAP3 SWAP1 SWAP3 ADD PUSH1 0x20 ADD SWAP3 SWAP2 POP POP JUMP JUMPDEST PUSH1 0x1 DUP1 PUSH1 0xA0 SHL SUB DUP7 AND DUP2 MSTORE PUSH1 0xFF DUP6 AND PUSH1 0x20 DUP3 ADD MSTORE DUP4 PUSH1 0x40 DUP3 ADD MSTORE PUSH1 0xA0 PUSH1 0x60 DUP3 ADD MSTORE PUSH1 0x0 PUSH2 0x26ED PUSH1 0xA0 DUP4 ADD DUP6 PUSH2 0x2691 JUMP JUMPDEST SWAP1 POP DUP3 PUSH1 0x80 DUP4 ADD MSTORE SWAP7 SWAP6 POP POP POP POP POP POP JUMP JUMPDEST PUSH1 0x0 DUP1 PUSH1 0x0 PUSH1 0x60 DUP5 DUP7 SUB SLT ISZERO PUSH2 0x2714 JUMPI PUSH1 0x0 DUP1 REVERT JUMPDEST DUP4 CALLDATALOAD SWAP3 POP PUSH1 0x20 DUP5 ADD CALLDATALOAD SWAP2 POP PUSH2 0x272B PUSH1 0x40 DUP6 ADD PUSH2 0x24B4 JUMP JUMPDEST SWAP1 POP SWAP3 POP SWAP3 POP SWAP3 JUMP JUMPDEST DUP1 ISZERO ISZERO DUP2 EQ PUSH2 0x108E JUMPI PUSH1 0x0 DUP1 REVERT JUMPDEST PUSH1 0x0 DUP1 PUSH1 0x0 PUSH1 0x60 DUP5 DUP7 SUB SLT ISZERO PUSH2 0x2757 JUMPI PUSH1 0x0 DUP1 REVERT JUMPDEST DUP4 CALLDATALOAD SWAP3 POP PUSH1 0x20 DUP5 ADD CALLDATALOAD SWAP2 POP PUSH1 0x40 DUP5 ADD CALLDATALOAD PUSH2 0x2770 DUP2 PUSH2 0x2734 JUMP JUMPDEST DUP1 SWAP2 POP POP SWAP3 POP SWAP3 POP SWAP3 JUMP JUMPDEST PUSH4 0x4E487B71 PUSH1 0xE0 SHL PUSH1 0x0 MSTORE PUSH1 0x11 PUSH1 0x4 MSTORE PUSH1 0x24 PUSH1 0x0 REVERT JUMPDEST PUSH1 0x0 DUP2 PUSH1 0x0 NOT DIV DUP4 GT DUP3 ISZERO ISZERO AND ISZERO PUSH2 0x27AB JUMPI PUSH2 0x27AB PUSH2 0x277B JUMP JUMPDEST POP MUL SWAP1 JUMP JUMPDEST DUP2 DUP4 MSTORE DUP2 DUP2 PUSH1 0x20 DUP6 ADD CALLDATACOPY POP PUSH1 0x0 DUP3 DUP3 ADD PUSH1 0x20 SWAP1 DUP2 ADD SWAP2 SWAP1 SWAP2 MSTORE PUSH1 0x1F SWAP1 SWAP2 ADD PUSH1 0x1F NOT AND SWAP1 SWAP2 ADD ADD SWAP1 JUMP JUMPDEST PUSH1 0xFF DUP6 AND DUP2 MSTORE DUP4 PUSH1 0x20 DUP3 ADD MSTORE PUSH1 0x60 PUSH1 0x40 DUP3 ADD MSTORE PUSH1 0x0 PUSH2 0x27FC PUSH1 0x60 DUP4 ADD DUP5 DUP7 PUSH2 0x27B0 JUMP JUMPDEST SWAP7 SWAP6 POP POP POP POP POP POP JUMP JUMPDEST PUSH1 0x0 DUP3 NOT DUP3 GT ISZERO PUSH2 0x2819 JUMPI PUSH2 0x2819 PUSH2 0x277B JUMP JUMPDEST POP ADD SWAP1 JUMP JUMPDEST PUSH1 0x0 PUSH1 0x0 NOT DUP3 EQ ISZERO PUSH2 0x2832 JUMPI PUSH2 0x2832 PUSH2 0x277B JUMP JUMPDEST POP PUSH1 0x1 ADD SWAP1 JUMP JUMPDEST PUSH1 0x1 PUSH1 0x1 PUSH1 0xA0 SHL SUB DUP5 AND DUP2 MSTORE PUSH1 0x40 PUSH1 0x20 DUP3 ADD DUP2 SWAP1 MSTORE PUSH1 0x0 SWAP1 PUSH2 0xE2A SWAP1 DUP4 ADD DUP5 DUP7 PUSH2 0x27B0 JUMP JUMPDEST PUSH1 0x0 PUSH1 0x20 DUP3 DUP5 SUB SLT ISZERO PUSH2 0x2870 JUMPI PUSH1 0x0 DUP1 REVERT JUMPDEST POP MLOAD SWAP2 SWAP1 POP JUMP JUMPDEST PUSH1 0x0 PUSH1 0xFF DUP3 AND PUSH1 0xFF DUP5 AND DUP1 DUP3 LT ISZERO PUSH2 0x2891 JUMPI PUSH2 0x2891 PUSH2 0x277B JUMP JUMPDEST SWAP1 SUB SWAP4 SWAP3 POP POP POP JUMP JUMPDEST PUSH4 0x4E487B71 PUSH1 0xE0 SHL PUSH1 0x0 MSTORE PUSH1 0x32 PUSH1 0x4 MSTORE PUSH1 0x24 PUSH1 0x0 REVERT JUMPDEST PUSH1 0x1 DUP2 DUP2 SHR SWAP1 DUP3 AND DUP1 PUSH2 0x28C4 JUMPI PUSH1 0x7F DUP3 AND SWAP2 POP JUMPDEST PUSH1 0x20 DUP3 LT DUP2 EQ ISZERO PUSH2 0x28E5 JUMPI PUSH4 0x4E487B71 PUSH1 0xE0 SHL PUSH1 0x0 MSTORE PUSH1 0x22 PUSH1 0x4 MSTORE PUSH1 0x24 PUSH1 0x0 REVERT JUMPDEST POP SWAP2 SWAP1 POP JUMP JUMPDEST PUSH1 0x0 DUP3 DUP3 LT ISZERO PUSH2 0x28FD JUMPI PUSH2 0x28FD PUSH2 0x277B JUMP JUMPDEST POP SUB SWAP1 JUMP JUMPDEST PUSH1 0x0 DUP3 PUSH2 0x291F JUMPI PUSH4 0x4E487B71 PUSH1 0xE0 SHL PUSH1 0x0 MSTORE PUSH1 0x12 PUSH1 0x4 MSTORE PUSH1 0x24 PUSH1 0x0 REVERT JUMPDEST POP DIV SWAP1 JUMP JUMPDEST PUSH1 0x0 PUSH1 0x20 DUP3 DUP5 SUB SLT ISZERO PUSH2 0x2936 JUMPI PUSH1 0x0 DUP1 REVERT JUMPDEST DUP2 MLOAD PUSH2 0x1B47 DUP2 PUSH2 0x2734 JUMP JUMPDEST PUSH1 0x0 DUP3 MLOAD PUSH2 0x2953 DUP2 DUP5 PUSH1 0x20 DUP8 ADD PUSH2 0x2665 JUMP JUMPDEST SWAP2 SWAP1 SWAP2 ADD SWAP3 SWAP2 POP POP JUMP JUMPDEST PUSH1 0x20 DUP2 MSTORE PUSH1 0x0 PUSH2 0x1B47 PUSH1 0x20 DUP4 ADD DUP5 PUSH2 0x2691 JUMP INVALID LOG2 PUSH5 0x6970667358 0x22 SLT KECCAK256 CALL CALLDATALOAD 0xDF 0xF6 SELFDESTRUCT TIMESTAMP 0x4D SWAP9 DUP16 MULMOD PUSH8 0xF77716D63A027375 0xA8 BYTE BALANCE DIV 0xCA 0x4F BLOCKHASH ISZERO PUSH29 0xC30DB71664736F6C634300080900330000000000000000000000000000 "},"methodIdentifiers":{"FEE_BPS()":"bf333f2c","MAX_MONTHS()":"da5d24cf","MIN_START_DELAY()":"87674c5b","MONTH()":"d5999a5c","addListing(uint256)":"a48e7230","bnplRequestAt(uint256,uint256)":"ae445984","bnplRequests(uint256,uint256)":"c3a9d506","bnplRequestsCount(uint256)":"5063046c","book(uint256,uint256,uint8,string)":"1defb941","bookTravelPackage(uint256,uint256)":"ddefe587","bookingNFT()":"59627bf6","bookings(uint256)":"1dab301e","cancelEarly(uint256)":"3dc59ab1","feeReceiver()":"b3f00674","isAvailable(uint256,uint256,uint8)":"bbf83835","listings(uint256)":"de74e57b","owner()":"8da5cb5b","paymentToken()":"3013ce29","paymentTokenDecimals()":"325cd796","raiseDispute(uint256)":"a5c1674e","releaseAvailable(uint256)":"371a5a22","renounceOwnership()":"715018a6","requestBNPL(uint256,uint8,string)":"091c1b3b","resolveDispute(uint256,uint256,uint256)":"3fabe74f","setBookingNFT(address)":"9d45e780","setFeeReceiver(address)":"efdcd974","transferOwnership(address)":"f2fde38b","travelBookings(uint256)":"7401eab5","updateListing(uint256,uint256,bool)":"dda12b4b"}}}}}