{
  "_format": "hh-sol-artifact-1",
  "contractName": "MockV3Aggregator",
  "sourceName": "contracts/MockV3Aggregator.sol",
  "abi": [
    {
      "inputs": [
        {
          "internalType": "uint8",
          "name": "decimals_",
          "type": "uint8"
        },
        {
          "internalType": "int256",
          "name": "initialAnswer",
          "type": "int256"
        }
      ],
      "stateMutability": "nonpayable",
      "type": "constructor"
    },
    {
      "inputs": [],
      "name": "decimals",
      "outputs": [
        {
          "internalType": "uint8",
          "name": "",
          "type": "uint8"
        }
      ],
      "stateMutability": "view",
      "type": "function"
    },
    {
      "inputs": [],
      "name": "description",
      "outputs": [
        {
          "internalType": "string",
          "name": "",
          "type": "string"
        }
      ],
      "stateMutability": "pure",
      "type": "function"
    },
    {
      "inputs": [
        {
          "internalType": "uint80",
          "name": "_roundId",
          "type": "uint80"
        }
      ],
      "name": "getRoundData",
      "outputs": [
        {
          "internalType": "uint80",
          "name": "roundId",
          "type": "uint80"
        },
        {
          "internalType": "int256",
          "name": "answer",
          "type": "int256"
        },
        {
          "internalType": "uint256",
          "name": "startedAt",
          "type": "uint256"
        },
        {
          "internalType": "uint256",
          "name": "updatedAt",
          "type": "uint256"
        },
        {
          "internalType": "uint80",
          "name": "answeredInRound",
          "type": "uint80"
        }
      ],
      "stateMutability": "view",
      "type": "function"
    },
    {
      "inputs": [],
      "name": "latestRoundData",
      "outputs": [
        {
          "internalType": "uint80",
          "name": "roundId",
          "type": "uint80"
        },
        {
          "internalType": "int256",
          "name": "answer",
          "type": "int256"
        },
        {
          "internalType": "uint256",
          "name": "startedAt",
          "type": "uint256"
        },
        {
          "internalType": "uint256",
          "name": "updatedAt",
          "type": "uint256"
        },
        {
          "internalType": "uint80",
          "name": "answeredInRound",
          "type": "uint80"
        }
      ],
      "stateMutability": "view",
      "type": "function"
    },
    {
      "inputs": [],
      "name": "version",
      "outputs": [
        {
          "internalType": "uint256",
          "name": "",
          "type": "uint256"
        }
      ],
      "stateMutability": "pure",
      "type": "function"
    }
  ],
  "bytecode": "0x608060405234801561001057600080fd5b5060405161026238038061026283398101604081905261002f9161004c565b6001805460ff191660ff9390931692909217909155600055610080565b6000806040838503121561005f57600080fd5b825160ff8116811461007057600080fd5b6020939093015192949293505050565b6101d38061008f6000396000f3fe608060405234801561001057600080fd5b50600436106100575760003560e01c8063313ce5671461005c57806354fd4d50146100765780637284e416146100855780639a6fc8f5146100b7578063feaf968c14610109575b600080fd5b60015460405160ff90911681526020015b60405180910390f35b6040516001815260200161006d565b604080518082018252601081526f26b7b1b5ab19a0b3b3b932b3b0ba37b960811b6020820152905161006d9190610115565b6100d26100c536600461016a565b6000549091429081908490565b6040805169ffffffffffffffffffff968716815260208101959095528401929092526060830152909116608082015260a00161006d565b600080544280836100d2565b600060208083528351808285015260005b8181101561014257858101830151858201604001528201610126565b81811115610154576000604083870101525b50601f01601f1916929092016040019392505050565b60006020828403121561017c57600080fd5b813569ffffffffffffffffffff8116811461019657600080fd5b939250505056fea2646970667358221220ef63af63754bf4e9be46f624d8d2295af9e734c5dfd7bf632212a0a1218706fe64736f6c63430008090033",
  "linkReferences": {},
  "deployedLinkReferences": {}
}