{
  "_format": "hh-sol-artifact-1",
  "contractName": "BookingNFT",
  "sourceName": "contracts/BookingNFT.sol",
  "abi": [
    {
      "inputs": [],
      "stateMutability": "nonpayable",
      "type": "constructor"
    },
    {
      "anonymous": false,
      "inputs": [
        {
          "indexed": true,
          "internalType": "address",
          "name": "owner",
          "type": "address"
        },
        {
          "indexed": true,
          "internalType": "address",
          "name": "approved",
          "type": "address"
        },
        {
          "indexed": true,
          "internalType": "uint256",
          "name": "tokenId",
          "type": "uint256"
        }
      ],
      "name": "Approval",
      "type": "event"
    },
    {
      "anonymous": false,
      "inputs": [
        {
          "indexed": true,
          "internalType": "address",
          "name": "owner",
          "type": "address"
        },
        {
          "indexed": true,
          "internalType": "address",
          "name": "operator",
          "type": "address"
        },
        {
          "indexed": false,
          "internalType": "bool",
          "name": "approved",
          "type": "bool"
        }
      ],
      "name": "ApprovalForAll",
      "type": "event"
    },
    {
      "anonymous": false,
      "inputs": [
        {
          "indexed": false,
          "internalType": "uint256",
          "name": "_fromTokenId",
          "type": "uint256"
        },
        {
          "indexed": false,
          "internalType": "uint256",
          "name": "_toTokenId",
          "type": "uint256"
        }
      ],
      "name": "BatchMetadataUpdate",
      "type": "event"
    },
    {
      "anonymous": false,
      "inputs": [
        {
          "indexed": false,
          "internalType": "uint256",
          "name": "_tokenId",
          "type": "uint256"
        }
      ],
      "name": "MetadataUpdate",
      "type": "event"
    },
    {
      "anonymous": false,
      "inputs": [
        {
          "indexed": true,
          "internalType": "address",
          "name": "previousOwner",
          "type": "address"
        },
        {
          "indexed": true,
          "internalType": "address",
          "name": "newOwner",
          "type": "address"
        }
      ],
      "name": "OwnershipTransferred",
      "type": "event"
    },
    {
      "anonymous": false,
      "inputs": [
        {
          "indexed": true,
          "internalType": "address",
          "name": "from",
          "type": "address"
        },
        {
          "indexed": true,
          "internalType": "address",
          "name": "to",
          "type": "address"
        },
        {
          "indexed": true,
          "internalType": "uint256",
          "name": "tokenId",
          "type": "uint256"
        }
      ],
      "name": "Transfer",
      "type": "event"
    },
    {
      "inputs": [
        {
          "internalType": "address",
          "name": "to",
          "type": "address"
        },
        {
          "internalType": "uint256",
          "name": "tokenId",
          "type": "uint256"
        }
      ],
      "name": "approve",
      "outputs": [],
      "stateMutability": "nonpayable",
      "type": "function"
    },
    {
      "inputs": [
        {
          "internalType": "address",
          "name": "owner",
          "type": "address"
        }
      ],
      "name": "balanceOf",
      "outputs": [
        {
          "internalType": "uint256",
          "name": "",
          "type": "uint256"
        }
      ],
      "stateMutability": "view",
      "type": "function"
    },
    {
      "inputs": [
        {
          "internalType": "uint256",
          "name": "tokenId",
          "type": "uint256"
        }
      ],
      "name": "getApproved",
      "outputs": [
        {
          "internalType": "address",
          "name": "",
          "type": "address"
        }
      ],
      "stateMutability": "view",
      "type": "function"
    },
    {
      "inputs": [
        {
          "internalType": "address",
          "name": "owner",
          "type": "address"
        },
        {
          "internalType": "address",
          "name": "operator",
          "type": "address"
        }
      ],
      "name": "isApprovedForAll",
      "outputs": [
        {
          "internalType": "bool",
          "name": "",
          "type": "bool"
        }
      ],
      "stateMutability": "view",
      "type": "function"
    },
    {
      "inputs": [],
      "name": "lastId",
      "outputs": [
        {
          "internalType": "uint256",
          "name": "",
          "type": "uint256"
        }
      ],
      "stateMutability": "view",
      "type": "function"
    },
    {
      "inputs": [
        {
          "internalType": "address",
          "name": "to",
          "type": "address"
        },
        {
          "internalType": "string",
          "name": "tokenURI_",
          "type": "string"
        }
      ],
      "name": "mint",
      "outputs": [
        {
          "internalType": "uint256",
          "name": "",
          "type": "uint256"
        }
      ],
      "stateMutability": "nonpayable",
      "type": "function"
    },
    {
      "inputs": [],
      "name": "name",
      "outputs": [
        {
          "internalType": "string",
          "name": "",
          "type": "string"
        }
      ],
      "stateMutability": "view",
      "type": "function"
    },
    {
      "inputs": [],
      "name": "owner",
      "outputs": [
        {
          "internalType": "address",
          "name": "",
          "type": "address"
        }
      ],
      "stateMutability": "view",
      "type": "function"
    },
    {
      "inputs": [
        {
          "internalType": "uint256",
          "name": "tokenId",
          "type": "uint256"
        }
      ],
      "name": "ownerOf",
      "outputs": [
        {
          "internalType": "address",
          "name": "",
          "type": "address"
        }
      ],
      "stateMutability": "view",
      "type": "function"
    },
    {
      "inputs": [],
      "name": "renounceOwnership",
      "outputs": [],
      "stateMutability": "nonpayable",
      "type": "function"
    },
    {
      "inputs": [
        {
          "internalType": "address",
          "name": "from",
          "type": "address"
        },
        {
          "internalType": "address",
          "name": "to",
          "type": "address"
        },
        {
          "internalType": "uint256",
          "name": "tokenId",
          "type": "uint256"
        }
      ],
      "name": "safeTransferFrom",
      "outputs": [],
      "stateMutability": "nonpayable",
      "type": "function"
    },
    {
      "inputs": [
        {
          "internalType": "address",
          "name": "from",
          "type": "address"
        },
        {
          "internalType": "address",
          "name": "to",
          "type": "address"
        },
        {
          "internalType": "uint256",
          "name": "tokenId",
          "type": "uint256"
        },
        {
          "internalType": "bytes",
          "name": "data",
          "type": "bytes"
        }
      ],
      "name": "safeTransferFrom",
      "outputs": [],
      "stateMutability": "nonpayable",
      "type": "function"
    },
    {
      "inputs": [
        {
          "internalType": "address",
          "name": "operator",
          "type": "address"
        },
        {
          "internalType": "bool",
          "name": "approved",
          "type": "bool"
        }
      ],
      "name": "setApprovalForAll",
      "outputs": [],
      "stateMutability": "nonpayable",
      "type": "function"
    },
    {
      "inputs": [
        {
          "internalType": "bytes4",
          "name": "interfaceId",
          "type": "bytes4"
        }
      ],
      "name": "supportsInterface",
      "outputs": [
        {
          "internalType": "bool",
          "name": "",
          "type": "bool"
        }
      ],
      "stateMutability": "view",
      "type": "function"
    },
    {
      "inputs": [],
      "name": "symbol",
      "outputs": [
        {
          "internalType": "string",
          "name": "",
          "type": "string"
        }
      ],
      "stateMutability": "view",
      "type": "function"
    },
    {
      "inputs": [
        {
          "internalType": "uint256",
          "name": "tokenId",
          "type": "uint256"
        }
      ],
      "name": "tokenURI",
      "outputs": [
        {
          "internalType": "string",
          "name": "",
          "type": "string"
        }
      ],
      "stateMutability": "view",
      "type": "function"
    },
    {
      "inputs": [
        {
          "internalType": "address",
          "name": "from",
          "type": "address"
        },
        {
          "internalType": "address",
          "name": "to",
          "type": "address"
        },
        {
          "internalType": "uint256",
          "name": "tokenId",
          "type": "uint256"
        }
      ],
      "name": "transferFrom",
      "outputs": [],
      "stateMutability": "nonpayable",
      "type": "function"
    },
    {
      "inputs": [
        {
          "internalType": "address",
          "name": "newOwner",
          "type": "address"
        }
      ],
      "name": "transferOwnership",
      "outputs": [],
      "stateMutability": "nonpayable",
      "type": "function"
    }
  ],
  "bytecode": "0x60806040523480156200001157600080fd5b506040805180820182526011815270547275737452656e7420426f6f6b696e6760781b6020808301918252835180850190945260068452655452424f4f4b60d01b9084015281519192916200006991600091620000f8565b5080516200007f906001906020840190620000f8565b5050506200009c62000096620000a260201b60201c565b620000a6565b620001db565b3390565b600780546001600160a01b038381166001600160a01b0319831681179093556040519116919082907f8be0079c531659141344cd1fd0a4f28419497f9722a3daafe3b4186f6b6457e090600090a35050565b82805462000106906200019e565b90600052602060002090601f0160209004810192826200012a576000855562000175565b82601f106200014557805160ff191683800117855562000175565b8280016001018555821562000175579182015b828111156200017557825182559160200191906001019062000158565b506200018392915062000187565b5090565b5b8082111562000183576000815560010162000188565b600181811c90821680620001b357607f821691505b60208210811415620001d557634e487b7160e01b600052602260045260246000fd5b50919050565b61183880620001eb6000396000f3fe608060405234801561001057600080fd5b50600436106101165760003560e01c80638da5cb5b116100a2578063c1292cc311610071578063c1292cc314610239578063c87b56dd14610241578063d0def52114610254578063e985e9c514610267578063f2fde38b146102a357600080fd5b80638da5cb5b146101fa57806395d89b411461020b578063a22cb46514610213578063b88d4fde1461022657600080fd5b806323b872dd116100e957806323b872dd1461019857806342842e0e146101ab5780636352211e146101be57806370a08231146101d1578063715018a6146101f257600080fd5b806301ffc9a71461011b57806306fdde0314610143578063081812fc14610158578063095ea7b314610183575b600080fd5b61012e61012936600461131a565b6102b6565b60405190151581526020015b60405180910390f35b61014b6102e1565b60405161013a919061138f565b61016b6101663660046113a2565b610373565b6040516001600160a01b03909116815260200161013a565b6101966101913660046113d7565b61039a565b005b6101966101a6366004611401565b6104b5565b6101966101b9366004611401565b6104e6565b61016b6101cc3660046113a2565b610501565b6101e46101df36600461143d565b610561565b60405190815260200161013a565b6101966105e7565b6007546001600160a01b031661016b565b61014b6105fb565b610196610221366004611458565b61060a565b610196610234366004611520565b610619565b6008546101e4565b61014b61024f3660046113a2565b610651565b6101e461026236600461159c565b610762565b61012e6102753660046115fe565b6001600160a01b03918216600090815260056020908152604080832093909416825291909152205460ff1690565b6101966102b136600461143d565b6107a6565b60006001600160e01b03198216632483248360e11b14806102db57506102db8261081f565b92915050565b6060600080546102f090611631565b80601f016020809104026020016040519081016040528092919081815260200182805461031c90611631565b80156103695780601f1061033e57610100808354040283529160200191610369565b820191906000526020600020905b81548152906001019060200180831161034c57829003601f168201915b5050505050905090565b600061037e8261086f565b506000908152600460205260409020546001600160a01b031690565b60006103a582610501565b9050806001600160a01b0316836001600160a01b031614156104185760405162461bcd60e51b815260206004820152602160248201527f4552433732313a20617070726f76616c20746f2063757272656e74206f776e656044820152603960f91b60648201526084015b60405180910390fd5b336001600160a01b038216148061043457506104348133610275565b6104a65760405162461bcd60e51b815260206004820152603d60248201527f4552433732313a20617070726f76652063616c6c6572206973206e6f7420746f60448201527f6b656e206f776e6572206f7220617070726f76656420666f7220616c6c000000606482015260840161040f565b6104b083836108ce565b505050565b6104bf338261093c565b6104db5760405162461bcd60e51b815260040161040f9061166c565b6104b08383836109ba565b6104b083838360405180602001604052806000815250610619565b6000818152600260205260408120546001600160a01b0316806102db5760405162461bcd60e51b8152602060048201526018602482015277115490cdcc8c4e881a5b9d985b1a59081d1bdad95b88125160421b604482015260640161040f565b60006001600160a01b0382166105cb5760405162461bcd60e51b815260206004820152602960248201527f4552433732313a2061646472657373207a65726f206973206e6f7420612076616044820152683634b21037bbb732b960b91b606482015260840161040f565b506001600160a01b031660009081526003602052604090205490565b6105ef610b1e565b6105f96000610b78565b565b6060600180546102f090611631565b610615338383610bca565b5050565b610623338361093c565b61063f5760405162461bcd60e51b815260040161040f9061166c565b61064b84848484610c99565b50505050565b606061065c8261086f565b6000828152600660205260408120805461067590611631565b80601f01602080910402602001604051908101604052809291908181526020018280546106a190611631565b80156106ee5780601f106106c3576101008083540402835291602001916106ee565b820191906000526020600020905b8154815290600101906020018083116106d157829003601f168201915b50505050509050600061070c60408051602081019091526000815290565b905080516000141561071f575092915050565b8151156107515780826040516020016107399291906116b9565b60405160208183030381529060405292505050919050565b61075a84610ccc565b949350505050565b600061076c610b1e565b600060086000815461077d906116e8565b9182905550905061078e8482610d3f565b82511561079f5761079f8184610d59565b9392505050565b6107ae610b1e565b6001600160a01b0381166108135760405162461bcd60e51b815260206004820152602660248201527f4f776e61626c653a206e6577206f776e657220697320746865207a65726f206160448201526564647265737360d01b606482015260840161040f565b61081c81610b78565b50565b60006001600160e01b031982166380ac58cd60e01b148061085057506001600160e01b03198216635b5e139f60e01b145b806102db57506301ffc9a760e01b6001600160e01b03198316146102db565b6000818152600260205260409020546001600160a01b031661081c5760405162461bcd60e51b8152602060048201526018602482015277115490cdcc8c4e881a5b9d985b1a59081d1bdad95b88125160421b604482015260640161040f565b600081815260046020526040902080546001600160a01b0319166001600160a01b038416908117909155819061090382610501565b6001600160a01b03167f8c5be1e5ebec7d5bd14f71427d1e84f3dd0314c0f7b2291e5b200ac8c7c3b92560405160405180910390a45050565b60008061094883610501565b9050806001600160a01b0316846001600160a01b0316148061098f57506001600160a01b0380821660009081526005602090815260408083209388168352929052205460ff165b8061075a5750836001600160a01b03166109a884610373565b6001600160a01b031614949350505050565b826001600160a01b03166109cd82610501565b6001600160a01b0316146109f35760405162461bcd60e51b815260040161040f90611711565b6001600160a01b038216610a555760405162461bcd60e51b8152602060048201526024808201527f4552433732313a207472616e7366657220746f20746865207a65726f206164646044820152637265737360e01b606482015260840161040f565b826001600160a01b0316610a6882610501565b6001600160a01b031614610a8e5760405162461bcd60e51b815260040161040f90611711565b600081815260046020908152604080832080546001600160a01b03199081169091556001600160a01b0387811680865260038552838620805460001901905590871680865283862080546001019055868652600290945282852080549092168417909155905184937fddf252ad1be2c89b69c2b068fc378daa952ba7f163c4a11628f55a4df523b3ef91a4505050565b6007546001600160a01b031633146105f95760405162461bcd60e51b815260206004820181905260248201527f4f776e61626c653a2063616c6c6572206973206e6f7420746865206f776e6572604482015260640161040f565b600780546001600160a01b038381166001600160a01b0319831681179093556040519116919082907f8be0079c531659141344cd1fd0a4f28419497f9722a3daafe3b4186f6b6457e090600090a35050565b816001600160a01b0316836001600160a01b03161415610c2c5760405162461bcd60e51b815260206004820152601960248201527f4552433732313a20617070726f766520746f2063616c6c657200000000000000604482015260640161040f565b6001600160a01b03838116600081815260056020908152604080832094871680845294825291829020805460ff191686151590811790915591519182527f17307eab39ab6107e8899845ad3d59bd9653f200f220920489ca2b5937696c31910160405180910390a3505050565b610ca48484846109ba565b610cb084848484610e2b565b61064b5760405162461bcd60e51b815260040161040f90611756565b6060610cd78261086f565b6000610cee60408051602081019091526000815290565b90506000815111610d0e576040518060200160405280600081525061079f565b80610d1884610f38565b604051602001610d299291906116b9565b6040516020818303038152906040529392505050565b610615828260405180602001604052806000815250610fd5565b6000828152600260205260409020546001600160a01b0316610dd45760405162461bcd60e51b815260206004820152602e60248201527f45524337323155524953746f726167653a2055524920736574206f66206e6f6e60448201526d32bc34b9ba32b73a103a37b5b2b760911b606482015260840161040f565b60008281526006602090815260409091208251610df39284019061126b565b506040518281527ff8e1a15aba9398e019f0b49df1a4fde98ee17ae345cb5f6b5e2c27f5033e8ce79060200160405180910390a15050565b60006001600160a01b0384163b15610f2d57604051630a85bd0160e11b81526001600160a01b0385169063150b7a0290610e6f9033908990889088906004016117a8565b602060405180830381600087803b158015610e8957600080fd5b505af1925050508015610eb9575060408051601f3d908101601f19168201909252610eb6918101906117e5565b60015b610f13573d808015610ee7576040519150601f19603f3d011682016040523d82523d6000602084013e610eec565b606091505b508051610f0b5760405162461bcd60e51b815260040161040f90611756565b805181602001fd5b6001600160e01b031916630a85bd0160e11b14905061075a565b506001949350505050565b60606000610f4583611008565b600101905060008167ffffffffffffffff811115610f6557610f65611494565b6040519080825280601f01601f191660200182016040528015610f8f576020820181803683370190505b5090508181016020015b600019016f181899199a1a9b1b9c1cb0b131b232b360811b600a86061a8153600a8504945084610fc857610fcd565b610f99565b509392505050565b610fdf83836110e0565b610fec6000848484610e2b565b6104b05760405162461bcd60e51b815260040161040f90611756565b60008072184f03e93ff9f4daa797ed6e38ed64bf6a1f0160401b83106110475772184f03e93ff9f4daa797ed6e38ed64bf6a1f0160401b830492506040015b6d04ee2d6d415b85acef81000000008310611073576d04ee2d6d415b85acef8100000000830492506020015b662386f26fc10000831061109157662386f26fc10000830492506010015b6305f5e10083106110a9576305f5e100830492506008015b61271083106110bd57612710830492506004015b606483106110cf576064830492506002015b600a83106102db5760010192915050565b6001600160a01b0382166111365760405162461bcd60e51b815260206004820181905260248201527f4552433732313a206d696e7420746f20746865207a65726f2061646472657373604482015260640161040f565b6000818152600260205260409020546001600160a01b03161561119b5760405162461bcd60e51b815260206004820152601c60248201527f4552433732313a20746f6b656e20616c7265616479206d696e74656400000000604482015260640161040f565b6000818152600260205260409020546001600160a01b0316156112005760405162461bcd60e51b815260206004820152601c60248201527f4552433732313a20746f6b656e20616c7265616479206d696e74656400000000604482015260640161040f565b6001600160a01b038216600081815260036020908152604080832080546001019055848352600290915280822080546001600160a01b0319168417905551839291907fddf252ad1be2c89b69c2b068fc378daa952ba7f163c4a11628f55a4df523b3ef908290a45050565b82805461127790611631565b90600052602060002090601f01602090048101928261129957600085556112df565b82601f106112b257805160ff19168380011785556112df565b828001600101855582156112df579182015b828111156112df5782518255916020019190600101906112c4565b506112eb9291506112ef565b5090565b5b808211156112eb57600081556001016112f0565b6001600160e01b03198116811461081c57600080fd5b60006020828403121561132c57600080fd5b813561079f81611304565b60005b8381101561135257818101518382015260200161133a565b8381111561064b5750506000910152565b6000815180845261137b816020860160208601611337565b601f01601f19169290920160200192915050565b60208152600061079f6020830184611363565b6000602082840312156113b457600080fd5b5035919050565b80356001600160a01b03811681146113d257600080fd5b919050565b600080604083850312156113ea57600080fd5b6113f3836113bb565b946020939093013593505050565b60008060006060848603121561141657600080fd5b61141f846113bb565b925061142d602085016113bb565b9150604084013590509250925092565b60006020828403121561144f57600080fd5b61079f826113bb565b6000806040838503121561146b57600080fd5b611474836113bb565b91506020830135801515811461148957600080fd5b809150509250929050565b634e487b7160e01b600052604160045260246000fd5b600067ffffffffffffffff808411156114c5576114c5611494565b604051601f8501601f19908116603f011681019082821181831017156114ed576114ed611494565b8160405280935085815286868601111561150657600080fd5b858560208301376000602087830101525050509392505050565b6000806000806080858703121561153657600080fd5b61153f856113bb565b935061154d602086016113bb565b925060408501359150606085013567ffffffffffffffff81111561157057600080fd5b8501601f8101871361158157600080fd5b611590878235602084016114aa565b91505092959194509250565b600080604083850312156115af57600080fd5b6115b8836113bb565b9150602083013567ffffffffffffffff8111156115d457600080fd5b8301601f810185136115e557600080fd5b6115f4858235602084016114aa565b9150509250929050565b6000806040838503121561161157600080fd5b61161a836113bb565b9150611628602084016113bb565b90509250929050565b600181811c9082168061164557607f821691505b6020821081141561166657634e487b7160e01b600052602260045260246000fd5b50919050565b6020808252602d908201527f4552433732313a2063616c6c6572206973206e6f7420746f6b656e206f776e6560408201526c1c881bdc88185c1c1c9bdd9959609a1b606082015260800190565b600083516116cb818460208801611337565b8351908301906116df818360208801611337565b01949350505050565b600060001982141561170a57634e487b7160e01b600052601160045260246000fd5b5060010190565b60208082526025908201527f4552433732313a207472616e736665722066726f6d20696e636f72726563742060408201526437bbb732b960d91b606082015260800190565b60208082526032908201527f4552433732313a207472616e7366657220746f206e6f6e20455243373231526560408201527131b2b4bb32b91034b6b83632b6b2b73a32b960711b606082015260800190565b6001600160a01b03858116825284166020820152604081018390526080606082018190526000906117db90830184611363565b9695505050505050565b6000602082840312156117f757600080fd5b815161079f8161130456fea2646970667358221220724894c828b80d58e91a7d7b07daf15d65484cea3335b338a74c2392cf25174c64736f6c63430008090033",
  "linkReferences": {},
  "deployedLinkReferences": {}
}