{
  "_format": "hh-sol-artifact-1",
  "contractName": "TrustRent",
  "sourceName": "contracts/TrustRent.sol",
  "abi": [
    {
      "inputs": [
        {
          "internalType": "address",
          "name": "_paymentToken",
          "type": "address"
        },
        {
          "internalType": "address",
          "name": "_feeReceiver",
          "type": "address"
        }
      ],
      "stateMutability": "nonpayable",
      "type": "constructor"
    },
    {
      "inputs": [],
      "name": "AlreadyCancelled",
      "type": "error"
    },
    {
      "inputs": [],
      "name": "InDispute",
      "type": "error"
    },
    {
      "inputs": [],
      "name": "InvalidArgs",
      "type": "error"
    },
    {
      "inputs": [],
      "name": "NotActive",
      "type": "error"
    },
    {
      "inputs": [],
      "name": "NotGuest",
      "type": "error"
    },
    {
      "inputs": [],
      "name": "NotHost",
      "type": "error"
    },
    {
      "inputs": [],
      "name": "NothingToRelease",
      "type": "error"
    },
    {
      "inputs": [],
      "name": "TooEarly",
      "type": "error"
    },
    {
      "anonymous": false,
      "inputs": [
        {
          "indexed": true,
          "internalType": "uint256",
          "name": "bookingId",
          "type": "uint256"
        },
        {
          "indexed": true,
          "internalType": "address",
          "name": "requester",
          "type": "address"
        },
        {
          "indexed": false,
          "internalType": "uint8",
          "name": "months",
          "type": "uint8"
        },
        {
          "indexed": false,
          "internalType": "uint256",
          "name": "amountPlannedUsdCents",
          "type": "uint256"
        },
        {
          "indexed": false,
          "internalType": "string",
          "name": "plan",
          "type": "string"
        }
      ],
      "name": "BNPLRequested",
      "type": "event"
    },
    {
      "anonymous": false,
      "inputs": [
        {
          "indexed": true,
          "internalType": "uint256",
          "name": "bookingId",
          "type": "uint256"
        },
        {
          "indexed": true,
          "internalType": "uint256",
          "name": "listingId",
          "type": "uint256"
        },
        {
          "indexed": true,
          "internalType": "address",
          "name": "guest",
          "type": "address"
        },
        {
          "indexed": false,
          "internalType": "uint256",
          "name": "startTs",
          "type": "uint256"
        },
        {
          "indexed": false,
          "internalType": "uint8",
          "name": "months",
          "type": "uint8"
        },
        {
          "indexed": false,
          "internalType": "uint256",
          "name": "totalPaid",
          "type": "uint256"
        },
        {
          "indexed": false,
          "internalType": "uint256",
          "name": "nftId",
          "type": "uint256"
        }
      ],
      "name": "Booked",
      "type": "event"
    },
    {
      "anonymous": false,
      "inputs": [
        {
          "indexed": true,
          "internalType": "uint256",
          "name": "bookingId",
          "type": "uint256"
        },
        {
          "indexed": false,
          "internalType": "uint8",
          "name": "monthsCompleted",
          "type": "uint8"
        },
        {
          "indexed": false,
          "internalType": "uint256",
          "name": "refundToGuest",
          "type": "uint256"
        },
        {
          "indexed": false,
          "internalType": "uint256",
          "name": "payoutToHost",
          "type": "uint256"
        },
        {
          "indexed": false,
          "internalType": "uint256",
          "name": "feeAmount",
          "type": "uint256"
        }
      ],
      "name": "CancelledEarly",
      "type": "event"
    },
    {
      "anonymous": false,
      "inputs": [
        {
          "indexed": true,
          "internalType": "uint256",
          "name": "bookingId",
          "type": "uint256"
        },
        {
          "indexed": false,
          "internalType": "uint256",
          "name": "payoutToHost",
          "type": "uint256"
        },
        {
          "indexed": false,
          "internalType": "uint256",
          "name": "payoutToGuest",
          "type": "uint256"
        },
        {
          "indexed": false,
          "internalType": "uint256",
          "name": "feeAmount",
          "type": "uint256"
        }
      ],
      "name": "DisputeResolved",
      "type": "event"
    },
    {
      "anonymous": false,
      "inputs": [
        {
          "indexed": true,
          "internalType": "uint256",
          "name": "bookingId",
          "type": "uint256"
        },
        {
          "indexed": false,
          "internalType": "address",
          "name": "by",
          "type": "address"
        }
      ],
      "name": "Disputed",
      "type": "event"
    },
    {
      "anonymous": false,
      "inputs": [
        {
          "indexed": true,
          "internalType": "uint256",
          "name": "listingId",
          "type": "uint256"
        },
        {
          "indexed": true,
          "internalType": "address",
          "name": "host",
          "type": "address"
        },
        {
          "indexed": false,
          "internalType": "uint256",
          "name": "priceUsdCentsPerMonth",
          "type": "uint256"
        }
      ],
      "name": "ListingAdded",
      "type": "event"
    },
    {
      "anonymous": false,
      "inputs": [
        {
          "indexed": true,
          "internalType": "uint256",
          "name": "listingId",
          "type": "uint256"
        },
        {
          "indexed": false,
          "internalType": "uint256",
          "name": "newPriceUsdCentsPerMonth",
          "type": "uint256"
        },
        {
          "indexed": false,
          "internalType": "bool",
          "name": "active",
          "type": "bool"
        }
      ],
      "name": "ListingUpdated",
      "type": "event"
    },
    {
      "anonymous": false,
      "inputs": [
        {
          "indexed": true,
          "internalType": "address",
          "name": "previousOwner",
          "type": "address"
        },
        {
          "indexed": true,
          "internalType": "address",
          "name": "newOwner",
          "type": "address"
        }
      ],
      "name": "OwnershipTransferred",
      "type": "event"
    },
    {
      "anonymous": false,
      "inputs": [
        {
          "indexed": true,
          "internalType": "uint256",
          "name": "bookingId",
          "type": "uint256"
        },
        {
          "indexed": false,
          "internalType": "uint8",
          "name": "monthsReleasedNow",
          "type": "uint8"
        },
        {
          "indexed": false,
          "internalType": "uint256",
          "name": "amountToHost",
          "type": "uint256"
        },
        {
          "indexed": false,
          "internalType": "uint256",
          "name": "feeAmount",
          "type": "uint256"
        }
      ],
      "name": "Released",
      "type": "event"
    },
    {
      "anonymous": false,
      "inputs": [
        {
          "indexed": true,
          "internalType": "uint256",
          "name": "packageId",
          "type": "uint256"
        },
        {
          "indexed": true,
          "internalType": "address",
          "name": "guest",
          "type": "address"
        },
        {
          "indexed": false,
          "internalType": "uint256",
          "name": "priceUsdCents",
          "type": "uint256"
        }
      ],
      "name": "TravelPackageBooked",
      "type": "event"
    },
    {
      "inputs": [],
      "name": "FEE_BPS",
      "outputs": [
        {
          "internalType": "uint96",
          "name": "",
          "type": "uint96"
        }
      ],
      "stateMutability": "view",
      "type": "function"
    },
    {
      "inputs": [],
      "name": "MAX_MONTHS",
      "outputs": [
        {
          "internalType": "uint256",
          "name": "",
          "type": "uint256"
        }
      ],
      "stateMutability": "view",
      "type": "function"
    },
    {
      "inputs": [],
      "name": "MIN_START_DELAY",
      "outputs": [
        {
          "internalType": "uint256",
          "name": "",
          "type": "uint256"
        }
      ],
      "stateMutability": "view",
      "type": "function"
    },
    {
      "inputs": [],
      "name": "MONTH",
      "outputs": [
        {
          "internalType": "uint256",
          "name": "",
          "type": "uint256"
        }
      ],
      "stateMutability": "view",
      "type": "function"
    },
    {
      "inputs": [
        {
          "internalType": "uint256",
          "name": "priceUsdCentsPerMonth",
          "type": "uint256"
        }
      ],
      "name": "addListing",
      "outputs": [
        {
          "internalType": "uint256",
          "name": "",
          "type": "uint256"
        }
      ],
      "stateMutability": "nonpayable",
      "type": "function"
    },
    {
      "inputs": [
        {
          "internalType": "uint256",
          "name": "bookingId",
          "type": "uint256"
        },
        {
          "internalType": "uint256",
          "name": "index",
          "type": "uint256"
        }
      ],
      "name": "bnplRequestAt",
      "outputs": [
        {
          "internalType": "address",
          "name": "requester",
          "type": "address"
        },
        {
          "internalType": "uint8",
          "name": "months",
          "type": "uint8"
        },
        {
          "internalType": "uint256",
          "name": "amountPlannedUsdCents",
          "type": "uint256"
        },
        {
          "internalType": "string",
          "name": "plan",
          "type": "string"
        },
        {
          "internalType": "uint256",
          "name": "ts",
          "type": "uint256"
        }
      ],
      "stateMutability": "view",
      "type": "function"
    },
    {
      "inputs": [
        {
          "internalType": "uint256",
          "name": "",
          "type": "uint256"
        },
        {
          "internalType": "uint256",
          "name": "",
          "type": "uint256"
        }
      ],
      "name": "bnplRequests",
      "outputs": [
        {
          "internalType": "address",
          "name": "requester",
          "type": "address"
        },
        {
          "internalType": "uint8",
          "name": "months",
          "type": "uint8"
        },
        {
          "internalType": "uint256",
          "name": "amountPlannedUsdCents",
          "type": "uint256"
        },
        {
          "internalType": "string",
          "name": "plan",
          "type": "string"
        },
        {
          "internalType": "uint256",
          "name": "ts",
          "type": "uint256"
        }
      ],
      "stateMutability": "view",
      "type": "function"
    },
    {
      "inputs": [
        {
          "internalType": "uint256",
          "name": "bookingId",
          "type": "uint256"
        }
      ],
      "name": "bnplRequestsCount",
      "outputs": [
        {
          "internalType": "uint256",
          "name": "",
          "type": "uint256"
        }
      ],
      "stateMutability": "view",
      "type": "function"
    },
    {
      "inputs": [
        {
          "internalType": "uint256",
          "name": "listingId",
          "type": "uint256"
        },
        {
          "internalType": "uint256",
          "name": "startTs",
          "type": "uint256"
        },
        {
          "internalType": "uint8",
          "name": "months",
          "type": "uint8"
        },
        {
          "internalType": "string",
          "name": "tokenURI_",
          "type": "string"
        }
      ],
      "name": "book",
      "outputs": [
        {
          "internalType": "uint256",
          "name": "",
          "type": "uint256"
        }
      ],
      "stateMutability": "nonpayable",
      "type": "function"
    },
    {
      "inputs": [
        {
          "internalType": "uint256",
          "name": "packageId",
          "type": "uint256"
        },
        {
          "internalType": "uint256",
          "name": "priceUsdCents",
          "type": "uint256"
        }
      ],
      "name": "bookTravelPackage",
      "outputs": [],
      "stateMutability": "nonpayable",
      "type": "function"
    },
    {
      "inputs": [],
      "name": "bookingNFT",
      "outputs": [
        {
          "internalType": "contract IBookingNFT",
          "name": "",
          "type": "address"
        }
      ],
      "stateMutability": "view",
      "type": "function"
    },
    {
      "inputs": [
        {
          "internalType": "uint256",
          "name": "",
          "type": "uint256"
        }
      ],
      "name": "bookings",
      "outputs": [
        {
          "internalType": "uint256",
          "name": "id",
          "type": "uint256"
        },
        {
          "internalType": "uint256",
          "name": "listingId",
          "type": "uint256"
        },
        {
          "internalType": "address",
          "name": "guest",
          "type": "address"
        },
        {
          "internalType": "uint256",
          "name": "startTs",
          "type": "uint256"
        },
        {
          "internalType": "uint8",
          "name": "monthsTotal",
          "type": "uint8"
        },
        {
          "internalType": "uint8",
          "name": "monthsReleased",
          "type": "uint8"
        },
        {
          "internalType": "uint256",
          "name": "amountTokenPaid",
          "type": "uint256"
        },
        {
          "internalType": "bool",
          "name": "cancelled",
          "type": "bool"
        },
        {
          "internalType": "bool",
          "name": "disputed",
          "type": "bool"
        },
        {
          "internalType": "uint256",
          "name": "nftId",
          "type": "uint256"
        }
      ],
      "stateMutability": "view",
      "type": "function"
    },
    {
      "inputs": [
        {
          "internalType": "uint256",
          "name": "bookingId",
          "type": "uint256"
        }
      ],
      "name": "cancelEarly",
      "outputs": [],
      "stateMutability": "nonpayable",
      "type": "function"
    },
    {
      "inputs": [],
      "name": "feeReceiver",
      "outputs": [
        {
          "internalType": "address",
          "name": "",
          "type": "address"
        }
      ],
      "stateMutability": "view",
      "type": "function"
    },
    {
      "inputs": [
        {
          "internalType": "uint256",
          "name": "listingId",
          "type": "uint256"
        },
        {
          "internalType": "uint256",
          "name": "startTs",
          "type": "uint256"
        },
        {
          "internalType": "uint8",
          "name": "months",
          "type": "uint8"
        }
      ],
      "name": "isAvailable",
      "outputs": [
        {
          "internalType": "bool",
          "name": "",
          "type": "bool"
        }
      ],
      "stateMutability": "view",
      "type": "function"
    },
    {
      "inputs": [
        {
          "internalType": "uint256",
          "name": "",
          "type": "uint256"
        }
      ],
      "name": "listings",
      "outputs": [
        {
          "internalType": "uint256",
          "name": "id",
          "type": "uint256"
        },
        {
          "internalType": "address",
          "name": "host",
          "type": "address"
        },
        {
          "internalType": "uint256",
          "name": "priceUsdCentsPerMonth",
          "type": "uint256"
        },
        {
          "internalType": "bool",
          "name": "active",
          "type": "bool"
        }
      ],
      "stateMutability": "view",
      "type": "function"
    },
    {
      "inputs": [],
      "name": "owner",
      "outputs": [
        {
          "internalType": "address",
          "name": "",
          "type": "address"
        }
      ],
      "stateMutability": "view",
      "type": "function"
    },
    {
      "inputs": [],
      "name": "paymentToken",
      "outputs": [
        {
          "internalType": "contract IERC20",
          "name": "",
          "type": "address"
        }
      ],
      "stateMutability": "view",
      "type": "function"
    },
    {
      "inputs": [],
      "name": "paymentTokenDecimals",
      "outputs": [
        {
          "internalType": "uint8",
          "name": "",
          "type": "uint8"
        }
      ],
      "stateMutability": "view",
      "type": "function"
    },
    {
      "inputs": [
        {
          "internalType": "uint256",
          "name": "bookingId",
          "type": "uint256"
        }
      ],
      "name": "raiseDispute",
      "outputs": [],
      "stateMutability": "nonpayable",
      "type": "function"
    },
    {
      "inputs": [
        {
          "internalType": "uint256",
          "name": "bookingId",
          "type": "uint256"
        }
      ],
      "name": "releaseAvailable",
      "outputs": [],
      "stateMutability": "nonpayable",
      "type": "function"
    },
    {
      "inputs": [],
      "name": "renounceOwnership",
      "outputs": [],
      "stateMutability": "nonpayable",
      "type": "function"
    },
    {
      "inputs": [
        {
          "internalType": "uint256",
          "name": "bookingId",
          "type": "uint256"
        },
        {
          "internalType": "uint8",
          "name": "months",
          "type": "uint8"
        },
        {
          "internalType": "string",
          "name": "plan",
          "type": "string"
        }
      ],
      "name": "requestBNPL",
      "outputs": [],
      "stateMutability": "nonpayable",
      "type": "function"
    },
    {
      "inputs": [
        {
          "internalType": "uint256",
          "name": "bookingId",
          "type": "uint256"
        },
        {
          "internalType": "uint256",
          "name": "payoutToHostGross",
          "type": "uint256"
        },
        {
          "internalType": "uint256",
          "name": "payoutToGuest",
          "type": "uint256"
        }
      ],
      "name": "resolveDispute",
      "outputs": [],
      "stateMutability": "nonpayable",
      "type": "function"
    },
    {
      "inputs": [
        {
          "internalType": "address",
          "name": "nft",
          "type": "address"
        }
      ],
      "name": "setBookingNFT",
      "outputs": [],
      "stateMutability": "nonpayable",
      "type": "function"
    },
    {
      "inputs": [
        {
          "internalType": "address",
          "name": "receiver",
          "type": "address"
        }
      ],
      "name": "setFeeReceiver",
      "outputs": [],
      "stateMutability": "nonpayable",
      "type": "function"
    },
    {
      "inputs": [
        {
          "internalType": "address",
          "name": "newOwner",
          "type": "address"
        }
      ],
      "name": "transferOwnership",
      "outputs": [],
      "stateMutability": "nonpayable",
      "type": "function"
    },
    {
      "inputs": [
        {
          "internalType": "uint256",
          "name": "",
          "type": "uint256"
        }
      ],
      "name": "travelBookings",
      "outputs": [
        {
          "internalType": "address",
          "name": "guest",
          "type": "address"
        },
        {
          "internalType": "uint256",
          "name": "priceUsdCents",
          "type": "uint256"
        },
        {
          "internalType": "uint256",
          "name": "ts",
          "type": "uint256"
        }
      ],
      "stateMutability": "view",
      "type": "function"
    },
    {
      "inputs": [
        {
          "internalType": "uint256",
          "name": "listingId",
          "type": "uint256"
        },
        {
          "internalType": "uint256",
          "name": "newPriceUsdCentsPerMonth",
          "type": "uint256"
        },
        {
          "internalType": "bool",
          "name": "active",
          "type": "bool"
        }
      ],
      "name": "updateListing",
      "outputs": [],
      "stateMutability": "nonpayable",
      "type": "function"
    }
  ],
  "bytecode": "0x60c06040523480156200001157600080fd5b5060405162002c3438038062002c348339810160408190526200003491620001be565b6200003f3362000151565b600180556001600160a01b038216158015906200006457506001600160a01b03811615155b620000a35760405162461bcd60e51b815260206004820152600b60248201526a5a65726f4164647265737360a81b604482015260640160405180910390fd5b6001600160a01b03821660808190526040805163313ce56760e01b8152905163313ce56791600480820192602092909190829003018186803b158015620000e957600080fd5b505afa158015620000fe573d6000803e3d6000fd5b505050506040513d601f19601f82011682018060405250810190620001249190620001f6565b60ff1660a052600280546001600160a01b0319166001600160a01b03929092169190911790555062000222565b600080546001600160a01b038381166001600160a01b0319831681178455604051919092169283917f8be0079c531659141344cd1fd0a4f28419497f9722a3daafe3b4186f6b6457e09190a35050565b80516001600160a01b0381168114620001b957600080fd5b919050565b60008060408385031215620001d257600080fd5b620001dd83620001a1565b9150620001ed60208401620001a1565b90509250929050565b6000602082840312156200020957600080fd5b815160ff811681146200021b57600080fd5b9392505050565b60805160a0516129a66200028e600039600081816103220152611ef20152600081816102e301528181610b9801528181610fd00152818161100e0152818161126a015281816112aa015281816112eb015281816114e201528181611522015261156201526129a66000f3fe608060405234801561001057600080fd5b50600436106101cf5760003560e01c80639d45e78011610104578063c3a9d506116100a2578063ddefe58711610071578063ddefe58714610534578063de74e57b14610547578063efdcd974146105b3578063f2fde38b146105c657600080fd5b8063c3a9d506146104fc578063d5999a5c1461050f578063da5d24cf14610519578063dda12b4b1461052157600080fd5b8063ae445984116100de578063ae4459841461047c578063b3f00674146104a0578063bbf83835146104b3578063bf333f2c146104d657600080fd5b80639d45e78014610443578063a48e723014610456578063a5c1674e1461046957600080fd5b80633fabe74f11610171578063715018a61161014b578063715018a6146103c25780637401eab5146103ca57806387674c5b146104285780638da5cb5b1461043257600080fd5b80633fabe74f1461037c5780635063046c1461038f57806359627bf6146103af57600080fd5b80633013ce29116101ad5780633013ce29146102de578063325cd7961461031d578063371a5a22146103565780633dc59ab11461036957600080fd5b8063091c1b3b146101d45780631dab301e146101e95780631defb941146102bd575b600080fd5b6101e76101e2366004612513565b6105d9565b005b61025a6101f736600461256d565b60096020526000908152604090208054600182015460028301546003840154600485015460058601546006870154600790970154959694956001600160a01b0390941694929360ff8084169461010094859004821694818316939104909116908a565b604080519a8b5260208b01999099526001600160a01b0390971697890197909752606088019490945260ff9283166080880152911660a086015260c0850152151560e0840152901515610100830152610120820152610140015b60405180910390f35b6102d06102cb366004612586565b61088f565b6040519081526020016102b4565b6103057f000000000000000000000000000000000000000000000000000000000000000081565b6040516001600160a01b0390911681526020016102b4565b6103447f000000000000000000000000000000000000000000000000000000000000000081565b60405160ff90911681526020016102b4565b6101e761036436600461256d565b610e33565b6101e761037736600461256d565b611091565b6101e761038a3660046125ee565b611375565b6102d061039d36600461256d565b60009081526006602052604090205490565b600354610305906001600160a01b031681565b6101e76115ee565b6104036103d836600461256d565b6007602052600090815260409020805460018201546002909201546001600160a01b03909116919083565b604080516001600160a01b0390941684526020840192909252908201526060016102b4565b6102d06201518081565b6000546001600160a01b0316610305565b6101e761045136600461261a565b611602565b6102d061046436600461256d565b611670565b6101e761047736600461256d565b611756565b61048f61048a366004612643565b611870565b6040516102b49594939291906126bd565b600254610305906001600160a01b031681565b6104c66104c13660046126ff565b61197d565b60405190151581526020016102b4565b6104df61012c81565b6040516bffffffffffffffffffffffff90911681526020016102b4565b61048f61050a366004612643565b611b4e565b6102d062278d0081565b6102d0600681565b6101e761052f366004612742565b611c35565b6101e7610542366004612643565b611cea565b61058961055536600461256d565b600860205260009081526040902080546001820154600283015460039093015491926001600160a01b039091169160ff1684565b604080519485526001600160a01b03909316602085015291830152151560608201526080016102b4565b6101e76105c136600461261a565b611db0565b6101e76105d436600461261a565b611e1e565b6105e1611e94565b60ff8316610602576040516350dd03f760e11b815260040160405180910390fd5b600084815260096020908152604091829020825161014081018452815480825260018301549382019390935260028201546001600160a01b03169381019390935260038101546060840152600481015460ff808216608086015261010091829004811660a0860152600583015460c08601526006830154808216151560e087015282900416151590840152600701546101208301526106b4576040516350dd03f760e11b815260040160405180910390fd5b60408101516001600160a01b031633146106e05760405162a39df360e71b815260040160405180910390fd5b602080820151600090815260088252604080822081516080810183528154815260018201546001600160a01b03169481019490945260028101549184018290526003015460ff9081161515606085015261073d9190881690612791565b9050600660008881526020019081526020016000206040518060a00160405280336001600160a01b031681526020018860ff16815260200183815260200187878080601f01602080910402602001604051908101604052809392919081815260200183838082843760009201829052509385525050426020938401525083546001818101865594825290829020835160049092020180548484015160ff16600160a01b026001600160a81b03199091166001600160a01b039093169290921791909117815560408301519381019390935560608201518051929392610828926002850192019061241b565b50608082015181600301555050336001600160a01b0316877fea9b13c5cd89e62c935debc483d9f305240a57f31ad56d8daf8e465960d2585c8884898960405161087594939291906127d9565b60405180910390a350505061088960018055565b50505050565b6000610899611e94565b6000868152600860209081526040918290208251608081018452815480825260018301546001600160a01b0316938201939093526002820154938101939093526003015460ff161515606083015261092c5760405162461bcd60e51b8152602060048201526011602482015270131a5cdd1a5b99c81b9bdd08199bdd5b99607a1b60448201526064015b60405180910390fd5b80606001516109705760405162461bcd60e51b815260206004820152601060248201526f4c697374696e6720696e61637469766560801b6044820152606401610923565b60008560ff16118015610987575060068560ff1611155b6109c85760405162461bcd60e51b815260206004820152601260248201527126b7b73a34399036bab9ba1031329018969b60711b6044820152606401610923565b6109d56201518042612806565b861015610a105760405162461bcd60e51b8152602060048201526009602482015268546f6f206561726c7960b81b6044820152606401610923565b60015b6005548111610b685760008181526009602090815260409182902082516101408101845281548152600182015492810183905260028201546001600160a01b03169381019390935260038101546060840152600481015460ff808216608086015261010091829004811660a0860152600583015460c08601526006830154808216151560e0870152829004161515908401526007015461012083015289148015610abf57508060e00151155b15610b5f57600062278d00826080015160ff16610adc9190612791565b8260600151610aeb9190612806565b90506000610aff62278d0060ff8b16612791565b610b09908b612806565b9050826060015181111580610b1e5750818a10155b610b5c5760405162461bcd60e51b815260206004820152600f60248201526e4f7665726c617020626f6f6b696e6760881b6044820152606401610923565b50505b50600101610a13565b506000610b788260400151611eee565b90506000610b8960ff881683612791565b9050610bc06001600160a01b037f000000000000000000000000000000000000000000000000000000000000000016333084611f1f565b6000600560008154610bd19061281e565b918290555060035460405163d0def52160e01b81529192506000916001600160a01b039091169063d0def52190610c109033908c908c90600401612839565b602060405180830381600087803b158015610c2a57600080fd5b505af1158015610c3e573d6000803e3d6000fd5b505050506040513d601f19601f82011682018060405250810190610c62919061285e565b90506040518061014001604052808381526020018c8152602001336001600160a01b031681526020018b81526020018a60ff168152602001600060ff1681526020018481526020016000151581526020016000151581526020018281525060096000848152602001908152602001600020600082015181600001556020820151816001015560408201518160020160006101000a8154816001600160a01b0302191690836001600160a01b031602179055506060820151816003015560808201518160040160006101000a81548160ff021916908360ff16021790555060a08201518160040160016101000a81548160ff021916908360ff16021790555060c0820151816005015560e08201518160060160006101000a81548160ff0219169083151502179055506101008201518160060160016101000a81548160ff0219169083151502179055506101208201518160070155905050336001600160a01b03168b837f5829ff22a8bf2c53a38f1e2e4cf6b44d3b0b9224da2a2203004d5f15fe3c87cc8d8d8887604051610e13949392919093845260ff9290921660208401526040830152606082015260800190565b60405180910390a4509350505050610e2a60018055565b95945050505050565b610e3b611e94565b600081815260096020908152604080832060018082015485526008845293829020825160808101845281548152948101546001600160a01b031693850184905260028101549285019290925260039091015460ff161515606084015291903314610eb857604051638ff4f0c960e01b815260040160405180910390fd5b600682015460ff1615610ede576040516354e3762560e01b815260040160405180910390fd5b6006820154610100900460ff1615610f0957604051630a30a94d60e01b815260040160405180910390fd5b60038201546004830154600091610f229160ff16611f8a565b600484015490915060ff610100909104811690821611610f555760405163b10205ed60e01b815260040160405180910390fd5b6004830154600090610f6f90610100900460ff1683612877565b60048501805461ff00191661010060ff8616021790556040840151909150600090610f9990611eee565b90506000610faa60ff841683612791565b9050600080610fb883611fd4565b60208901519193509150610ff7906001600160a01b037f0000000000000000000000000000000000000000000000000000000000000000169084612003565b801561103757600254611037906001600160a01b037f00000000000000000000000000000000000000000000000000000000000000008116911683612003565b6040805160ff871681526020810184905290810182905289907f1592310480057b30d97ffbbaa2c233e77f6d24cf00612a24fe9608f7d98b35bb9060600160405180910390a2505050505050505061108e60018055565b50565b611099611e94565b600081815260096020526040902060028101546001600160a01b031633146110d35760405162a39df360e71b815260040160405180910390fd5b600681015460ff16156110f9576040516354e3762560e01b815260040160405180910390fd5b6006810154610100900460ff161561112457604051630a30a94d60e01b815260040160405180910390fd5b6001808201546000908152600860209081526040808320815160808101835281548152948101546001600160a01b03169285019290925260028201549084015260039081015460ff908116151560608501529084015460048501546111899216611f8a565b600484015490915060ff610100909104811690821610156111b357506004820154610100900460ff165b60048301546000906111cd90610100900460ff1683612877565b60048501549091506000906111e690849060ff16612877565b905060006111f78560400151611eee565b9050600061120860ff851683612791565b905060008061121683611fd4565b9092509050600061122a60ff871686612791565b60048b01805461ff00191661010060ff8c160217905560068b01805460ff1916600117905590508215611291576020890151611291906001600160a01b037f0000000000000000000000000000000000000000000000000000000000000000169085612003565b80156112d35760028a01546112d3906001600160a01b037f00000000000000000000000000000000000000000000000000000000000000008116911683612003565b81801561131457600254611314906001600160a01b037f00000000000000000000000000000000000000000000000000000000000000008116911683612003565b6040805160ff8b16815260208101849052908101859052606081018290528c907f7b962a03ba93184b4ce4263e86eae4306e600458596ffc74a206b6ce0eabd4299060800160405180910390a2505050505050505050505061108e60018055565b61137d612033565b611385611e94565b60008381526009602090815260408083206001808201548086526008855283862084516080808201875282548252938201546001600160a01b03908116828901526002808401548389015260039384015460ff9081161515606080860191909152895161014081018b52895481529a8b01969096529087015490911696880196909652908401549186019190915260048301548085169286019290925261010091829004841660a0860152600583015460c08601526006830154808516151560e0870152829004909316151590840152600781015461012084015292909161146d908361208d565b90508061147a8587612806565b11156114b85760405162461bcd60e51b815260206004820152600d60248201526c45786365656420657363726f7760981b6044820152606401610923565b6000806114c487611fd4565b90925090508115611509576020840151611509906001600160a01b037f0000000000000000000000000000000000000000000000000000000000000000169084612003565b851561154b57600285015461154b906001600160a01b037f00000000000000000000000000000000000000000000000000000000000000008116911688612003565b801561158b5760025461158b906001600160a01b037f00000000000000000000000000000000000000000000000000000000000000008116911683612003565b60068501805461ff0019169055604080518381526020810188905290810182905288907f43c6fe16c1e88a9b3bceaf30a2ae3d7e9ad9533f87698ebb2b628263771ae0e69060600160405180910390a250505050506115e960018055565b505050565b6115f6612033565b6116006000612169565b565b61160a612033565b6001600160a01b03811661164e5760405162461bcd60e51b815260206004820152600b60248201526a5a65726f4164647265737360a81b6044820152606401610923565b600380546001600160a01b0319166001600160a01b0392909216919091179055565b600081611690576040516350dd03f760e11b815260040160405180910390fd5b60006004600081546116a19061281e565b91829055506040805160808101825282815233602080830182815283850189815260016060860181815260008981526008865288902096518755925190860180546001600160a01b0319166001600160a01b03909216919091179055516002850155516003909301805460ff1916931515939093179092559151868152929350909183917f6c46eb6ba6a1b1a0cb085158b0b8b1bcb23f05a9f188c3b06d334c7721bcea0b910160405180910390a392915050565b600081815260096020908152604080832060018082015485526008845293829020825160808101845281548152948101546001600160a01b0390811694860194909452600280820154938601939093526003015460ff1615156060850152908101549092911633148015906117e1575080602001516001600160a01b0316336001600160a01b031614155b156117ff576040516350dd03f760e11b815260040160405180910390fd5b600682015460ff1615611825576040516354e3762560e01b815260040160405180910390fd5b60068201805461ff00191661010017905560405133815283907fcde8e21e97a7f6ec4bbf0ee44450212e0ba73be8fdfbfb2b155e861d86756bac9060200160405180910390a2505050565b6000806000606060008060066000898152602001908152602001600020878154811061189e5761189e61289a565b600091825260209091206004909102018054600182015460038301546002840180549495506001600160a01b03841694600160a01b90940460ff169390919082906118e8906128b0565b80601f0160208091040260200160405190810160405280929190818152602001828054611914906128b0565b80156119615780601f1061193657610100808354040283529160200191611961565b820191906000526020600020905b81548152906001019060200180831161194457829003601f168201915b5050505050915095509550955095509550509295509295909350565b600060ff82161580611992575060068260ff16115b1561199f57506000611b47565b6000848152600860209081526040918290208251608081018452815480825260018301546001600160a01b0316938201939093526002820154938101939093526003015460ff161515606083015215806119fb57508060600151155b15611a0a576000915050611b47565b60015b6005548111611b405760008181526009602090815260409182902082516101408101845281548152600182015492810183905260028201546001600160a01b03169381019390935260038101546060840152600481015460ff808216608086015261010091829004811660a0860152600583015460c08601526006830154808216151560e0870152829004161515908401526007015461012083015287148015611ab957508060e00151155b15611b2d57600062278d00826080015160ff16611ad69190612791565b8260600151611ae59190612806565b90506000611af962278d0060ff8916612791565b611b039089612806565b9050826060015181111580611b185750818810155b611b2a57600095505050505050611b47565b50505b5080611b388161281e565b915050611a0d565b5060019150505b9392505050565b60066020528160005260406000208181548110611b6a57600080fd5b60009182526020909120600490910201805460018201546002830180546001600160a01b0384169650600160a01b90930460ff169450909291611bac906128b0565b80601f0160208091040260200160405190810160405280929190818152602001828054611bd8906128b0565b8015611c255780601f10611bfa57610100808354040283529160200191611c25565b820191906000526020600020905b815481529060010190602001808311611c0857829003601f168201915b5050505050908060030154905085565b600083815260086020526040902060018101546001600160a01b03163314611c7057604051638ff4f0c960e01b815260040160405180910390fd5b82611c8e576040516350dd03f760e11b815260040160405180910390fd5b6002810183905560038101805460ff191683151590811790915560408051858152602081019290925285917f31aceb5c222c3c2acf0bfdd74237844684c71194bdb3442f13492d1bfceb950b910160405180910390a250505050565b611cf2611e94565b811580611cfd575080155b15611d1b576040516350dd03f760e11b815260040160405180910390fd5b6040805160608101825233808252602080830185815242848601908152600088815260078452869020945185546001600160a01b0319166001600160a01b039091161785559051600185015551600290930192909255915183815284917f7e5af458043e82233aa733596298771e3dfc3b42b42ac6ccf9787e665dffb976910160405180910390a3611dac60018055565b5050565b611db8612033565b6001600160a01b038116611dfc5760405162461bcd60e51b815260206004820152600b60248201526a5a65726f4164647265737360a81b6044820152606401610923565b600280546001600160a01b0319166001600160a01b0392909216919091179055565b611e26612033565b6001600160a01b038116611e8b5760405162461bcd60e51b815260206004820152602660248201527f4f776e61626c653a206e6577206f776e657220697320746865207a65726f206160448201526564647265737360d01b6064820152608401610923565b61108e81612169565b60026001541415611ee75760405162461bcd60e51b815260206004820152601f60248201527f5265656e7472616e637947756172643a207265656e7472616e742063616c6c006044820152606401610923565b6002600155565b60647f000000000000000000000000000000000000000000000000000000000000000060ff16600a0a919091020490565b6040516001600160a01b03808516602483015283166044820152606481018290526108899085906323b872dd60e01b906084015b60408051601f198184030181529190526020810180516001600160e01b03166001600160e01b0319909316929092179091526121b9565b600082421015611f9c57506000611fce565b600062278d00611fac85426128eb565b611fb69190612902565b90508060ff8085169082161115611fca5750825b9150505b92915050565b600080612710611fe661012c85612791565b611ff09190612902565b9050611ffc81846128eb565b9150915091565b6040516001600160a01b0383166024820152604481018290526115e990849063a9059cbb60e01b90606401611f53565b6000546001600160a01b031633146116005760405162461bcd60e51b815260206004820181905260248201527f4f776e61626c653a2063616c6c6572206973206e6f7420746865206f776e65726044820152606401610923565b60008061209d8360400151611eee565b90506000846080015160ff16826120b49190612791565b905060008560a0015160ff16836120cb9190612791565b90506000806120d983611fd4565b909250905060006120ea8284612806565b90508860e001511561213c57600061210a8a606001518b60800151611f8a565b90506000818b6080015161211e9190612877565b905061212d60ff821689612791565b6121379084612806565b925050505b8481106121525760009650505050505050611fce565b61215c81866128eb565b9998505050505050505050565b600080546001600160a01b038381166001600160a01b0319831681178455604051919092169283917f8be0079c531659141344cd1fd0a4f28419497f9722a3daafe3b4186f6b6457e09190a35050565b600061220e826040518060400160405280602081526020017f5361666545524332303a206c6f772d6c6576656c2063616c6c206661696c6564815250856001600160a01b031661228e9092919063ffffffff16565b905080516000148061222f57508080602001905181019061222f9190612924565b6115e95760405162461bcd60e51b815260206004820152602a60248201527f5361666545524332303a204552433230206f7065726174696f6e20646964206e6044820152691bdd081cdd58d8d9595960b21b6064820152608401610923565b606061229d84846000856122a5565b949350505050565b6060824710156123065760405162461bcd60e51b815260206004820152602660248201527f416464726573733a20696e73756666696369656e742062616c616e636520666f6044820152651c8818d85b1b60d21b6064820152608401610923565b600080866001600160a01b031685876040516123229190612941565b60006040518083038185875af1925050503d806000811461235f576040519150601f19603f3d011682016040523d82523d6000602084013e612364565b606091505b509150915061237587838387612380565b979650505050505050565b606083156123ec5782516123e5576001600160a01b0385163b6123e55760405162461bcd60e51b815260206004820152601d60248201527f416464726573733a2063616c6c20746f206e6f6e2d636f6e74726163740000006044820152606401610923565b508161229d565b61229d83838151156124015781518083602001fd5b8060405162461bcd60e51b8152600401610923919061295d565b828054612427906128b0565b90600052602060002090601f016020900481019282612449576000855561248f565b82601f1061246257805160ff191683800117855561248f565b8280016001018555821561248f579182015b8281111561248f578251825591602001919060010190612474565b5061249b92915061249f565b5090565b5b8082111561249b57600081556001016124a0565b803560ff811681146124c557600080fd5b919050565b60008083601f8401126124dc57600080fd5b50813567ffffffffffffffff8111156124f457600080fd5b60208301915083602082850101111561250c57600080fd5b9250929050565b6000806000806060858703121561252957600080fd5b84359350612539602086016124b4565b9250604085013567ffffffffffffffff81111561255557600080fd5b612561878288016124ca565b95989497509550505050565b60006020828403121561257f57600080fd5b5035919050565b60008060008060006080868803121561259e57600080fd5b85359450602086013593506125b5604087016124b4565b9250606086013567ffffffffffffffff8111156125d157600080fd5b6125dd888289016124ca565b969995985093965092949392505050565b60008060006060848603121561260357600080fd5b505081359360208301359350604090920135919050565b60006020828403121561262c57600080fd5b81356001600160a01b0381168114611b4757600080fd5b6000806040838503121561265657600080fd5b50508035926020909101359150565b60005b83811015612680578181015183820152602001612668565b838111156108895750506000910152565b600081518084526126a9816020860160208601612665565b601f01601f19169290920160200192915050565b60018060a01b038616815260ff8516602082015283604082015260a0606082015260006126ed60a0830185612691565b90508260808301529695505050505050565b60008060006060848603121561271457600080fd5b833592506020840135915061272b604085016124b4565b90509250925092565b801515811461108e57600080fd5b60008060006060848603121561275757600080fd5b8335925060208401359150604084013561277081612734565b809150509250925092565b634e487b7160e01b600052601160045260246000fd5b60008160001904831182151516156127ab576127ab61277b565b500290565b81835281816020850137506000828201602090810191909152601f909101601f19169091010190565b60ff851681528360208201526060604082015260006127fc6060830184866127b0565b9695505050505050565b600082198211156128195761281961277b565b500190565b60006000198214156128325761283261277b565b5060010190565b6001600160a01b0384168152604060208201819052600090610e2a90830184866127b0565b60006020828403121561287057600080fd5b5051919050565b600060ff821660ff8416808210156128915761289161277b565b90039392505050565b634e487b7160e01b600052603260045260246000fd5b600181811c908216806128c457607f821691505b602082108114156128e557634e487b7160e01b600052602260045260246000fd5b50919050565b6000828210156128fd576128fd61277b565b500390565b60008261291f57634e487b7160e01b600052601260045260246000fd5b500490565b60006020828403121561293657600080fd5b8151611b4781612734565b60008251612953818460208701612665565b9190910192915050565b602081526000611b47602083018461269156fea2646970667358221220f135dff6ff424d988f0967f77716d63a027375a81a3104ca4f40157cc30db71664736f6c63430008090033",
  "linkReferences": {},
  "deployedLinkReferences": {}
}